:1000000045C0C0C398C367C066C065C064C063C054
:1000100062C047C360C05FC05EC05DC05CC05BC003
:100020005AC059C058C000000000370034003100E9
:1000300000000000380035003200000000003600EB
:100040003300300004040404040404040202020225
:100050000202030303030303020203010204081064
:1000600020408001020408102001020408102040F2
:1000700080400000000000000000000405070000B0
:10008000000000000000000000003D0B11241FBE16
:10009000CFE5D4E0DEBFCDBF10E0A0E6B0E0E2ECFB
:1000A000F6E102C005900D92A436B107D9F720E021
:1000B000A4E6B0E001C01D92AD3FB207E1F710E049
:1000C000C6E4D0E003C02197FE01F3DAC534D107BE
:1000D000D1F77FD3F4CA94CF853041F0873049F00F
:1000E000843051F48FB58F778FBD08958FB58F7D94
:1000F000FBCF85B58F7D85BD0895CF93DF93282FE6
:1001000030E0F901EE58FF4F8491F901E55AFF4FB5
:10011000D491F901EC5BFF4FC491CC2399F081118C
:10012000DBDFEC2FF0E0EE0FFF1FE65CFF4FA59149
:10013000B491EC91ED2381E090E009F480E0DF914F
:10014000CF91089580E090E0FACF1F93CF93DF9393
:10015000282F30E0F901EE58FF4F8491F901E55A5C
:10016000FF4FD491F901EC5BFF4FC491CC23A1F078
:10017000162F8111B1DFEC2FF0E0EE0FFF1FE05DD5
:10018000FF4FA591B4918FB7F894EC91111108C06D
:10019000D095DE23DC938FBFDF91CF911F9108951F
:1001A000DE2BF8CFCF93DF9390E0FC01E55AFF4FB1
:1001B00024918C5B9F4FFC0184918823D1F090E0C7
:1001C000880F991FFC01EA5DFF4FA591B491FC01D6
:1001D000E05DFF4FC591D491623071F49FB7F89400
:1001E0003C91822F809583238C93E8812E2B28834A
:1001F0009FBFDF91CF9108958FB7F894EC912E2B8C
:100200002C938FBFF6CF3FB7F8948091F90090916F
:10021000FA00A091FB00B091FC0022B708B600FEE6
:1002200005C02F3F19F00196A11DB11D3FBFBA2F88
:10023000A92F982F8827BC01CD01620F711D811D48
:10024000911D42E0660F771F881F991F4A95D1F7CD
:1002500008958F929F92AF92BF92CF92DF92EF92CA
:10026000FF924B015C01CFDF6B017C01CCDF6C198D
:100270007D098E099F09683E734081059105B0F3A1
:1002800021E0821A9108A108B10888EEC80E83E027
:10029000D81EE11CF11C81149104A104B10431F7B2
:1002A000FF90EF90DF90CF90BF90AF909F908F9096
:1002B0000895CF92DF92EF92FF920F931F93809158
:1002C00096001BDF9FB7F8944091F5005091F6001F
:1002D0006091F7007091F8009FBF0091910010911C
:1002E000920020919300309194006A017B01C01A22
:1002F000D10AE20AF30A970186010B3F1105210595
:10030000310510F0109290004093910050939200AC
:100310006093930070939400909190009F5F9093EE
:1003200090009A3038F4923060F59130F9F01092E4
:10033000900020C09A30A9F19B30C9F780918E00BF
:100340008D3FA8F78091A7008F5F803108F080E093
:100350009091A800981759F3E82FF0E090918F0042
:10036000E956FF4F90838093A700E1CF10928F0052
:1003700010928E001F910F91FF90EF90DF90CF9021
:10038000089590918E00980F90938E0020918F0089
:1003900030E035952795811180E8282B20938F0038
:1003A000E9CF90918E009170981719F090938E007C
:1003B000E1CF8DEF80938E00DDCF0895E8EBF0E084
:1003C00011929F01285B304028173907CCF308951C
:1003D000CF92DF92EF92FF920F931F93CF93DF9311
:1003E00008EB10E0D0E0C12CD12C7601C394F801C9
:1003F00090E080E0C0E02191B701A601082E04C082
:10040000440F551F661F771F0A94D2F7222349F124
:10041000C42B01968830910571F7DF5F90918C00B5
:1004200080918D009DB98EB960E08AE08EDEDFB9E3
:100430000000779BFECF8FB1CFB90000779BFECF36
:100440008FB161E08AE081DE085F1F4FD73079F617
:10045000DF91CF911F910F91FF90EF90DF90CF90A0
:1004600008954095C423D5CFCF93DF93C8EBD0E058
:1004700081E08AA7ADDF64EF71E080E090E0E9DE23
:100480001AA6DF91CF91A4CFCF93DF9388E290E0BB
:1004900095DFC8EBD0E081E088A79ADF64EF71E0D8
:1004A00080E090E0D6DE18A6DF91CF9191CFFF9249
:1004B0000F931F93CF93DF93C82F88E290E07EDFE6
:1004C00087DF64E170E080E090E0C3DE08EB10E0DD
:1004D000FF24F394F801F0827BDF64E170E080E0B8
:1004E00090E0B7DEF801F78673DF64E170E080E04A
:1004F00090E0AFDEF80117866BDF64E170E080E02A
:1005000090E0A7DED0E0C854DF4FF88261DF64E1FD
:1005100070E080E090E09DDEF8011082188258DFE4
:1005200064E170E080E090E0DF91CF911F910F9146
:10053000FF908FCECF92DF92EF92FF920F931F9397
:10054000CF93DF93CDB7DEB7A8970FB6F894DEBF91
:100550000FBECDBF2091A9003091AA00611133C018
:1005600012161306A4F4E4E6F0E050E040E0A19196
:10057000B1918A179B0709F461E04F5F5F4F421703
:100580005307A9F7611110C02431310569F0F90151
:10059000EE0FFF1FEC59FF4F918380832F5F3F4F7A
:1005A0003093AA002093A900A8960FB6F894DEBF56
:1005B0000FBECDBFDF91CF911F910F91FF90EF90B4
:1005C000DF90CF900895FE01319648E2DF011D9241
:1005D0004A95E9F71216130684F504E610E078014F
:1005E00050E040E070E060E0D701CD90DD907D010B
:1005F0008C159D0549F0DA01AA0FBB1FAE0FBF1F76
:10060000CD92DC924F5F5F4F6F5F7F4F6217730732
:1006100059F74115510589F090E080E02191319121
:10062000D8012D933D938D01019684179507B1F75D
:100630005093AA004093A900B7CF50E040E0F8CF14
:10064000CF93C82F8093B50081E090E01DD8C817E4
:1006500021F06C2F81E090E01FD88091B500982F99
:1006600091709093E80081FB992790F99093E900AD
:1006700082FB882780F98093EA00CF9105CF1F93F2
:10068000CF93DF93EC01162FFFD7181731F0612FAE
:10069000CE01DF91CF911F91FFC7DF91CF911F91C5
:1006A00008951F920F920FB60F9211242F933F932C
:1006B0008F939F93AF93BF938091F5009091F60035
:1006C000A091F700B091F8003091F40023E0230FDF
:1006D0002D3768F126E8230F0296A11DB11D209346
:1006E000F4008093F5009093F600A093F700B09388
:1006F000F8008091F9009091FA00A091FB00B09170
:10070000FC000196A11DB11D8093F9009093FA00A1
:10071000A093FB00B093FC00BF91AF919F918F918C
:100720003F912F910F900FBE0F901F90189501963B
:10073000A11DB11DD4CF1F920F920FB60F9211249D
:100740002F933F934F935F936F937F938F939F93D9
:10075000AF93BF93EF93FF93E0916200F09163003A
:100760000995FF91EF91BF91AF919F918F917F91EB
:100770006F915F914F913F912F910F900FBE0F900E
:100780001F9018951F920F920FB60F9211242F935E
:100790003F934F935F936F937F938F939F93AF9309
:1007A000BF93EF93FF93E0916000F0916100099592
:1007B000FF91EF91BF91AF919F918F917F916F9139
:1007C0005F914F913F912F910F900FBE0F901F900F
:1007D0001895789483B7836083BF89B7816089BF98
:1007E00082E08EBD8EB581608EBD8FB581608FBD7C
:1007F00085B5846085BD85B5806485BD87E886B98B
:100800001AB8CFB7F8948091950081111FC0EEE41B
:10081000F0E08491E5E6F0E09491E82FF0E0EE0F4F
:10082000FF1FEA5DFF4FA591B491EC91E92319F404
:1008300061E08AE08ADC61E08AE0B4DC6C9A6E9A5E
:1008400061E08DE0AFDC61E08BE0ACDC8091950095
:100850008F5F80939500CFBF61E08AE0A3DC61E009
:100860008AE073DC61E08EE09DDC61E08FE09ADC81
:1008700061E080E197DC61E081E194DC61E082E1AC
:1008800091DC61E083E18EDC62E085E08BDC62E09C
:1008900086E088DC62E087E085DC62E088E082DC7C
:1008A00062E089E07FDC62E083E07CDC62E084E09F
:1008B00079DC61E08EE049DC61E08FE046DC60E0FD
:1008C00080E143DC60E081E140DC60E082E13DDC2E
:1008D00060E083E13ADC62E082E064DC62E081E0D7
:1008E00061DC62E080E05EDC88E390E067DD81E06F
:1008F00090E0CAD6C82F8093B50090E080E0C4D6BF
:100900008093B700C83030F01092B50060E081E00D
:1009100090E0B5DE8091B700833030F01092B700E0
:1009200060E090E080E0ABDE8091B70061E0811193
:1009300001C060E06093AB00982F91709093EE003F
:10094000869581708093EF006093E100C091B500BF
:100950008C2F81708093E800C1FB882780F98093F9
:10096000E900C2FB882780F98093EA0080E1EDDB93
:1009700061E0C11101C060E081E1E7DB60ED77E09B
:1009800080E090E066DC80DD81E08093960062E0AC
:1009900082E008DC62E081E005DC1092A7001092A2
:1009A000A80089E591E0909361008093600085B78D
:1009B0008C7F826085BF8BB780648BBF60E08FE0E7
:1009C000C4DB8FB7F894C090F500D090F600E090AB
:1009D000F700F090F8008FBF8091A7009091A800D9
:1009E000891B87FD805F882379F18091A700909112
:1009F000A800891B87FD805F882391F0E091A80003
:100A00008091A700E81761F0EF5FE03108F0E0E0C7
:100A1000E093A800F0E0E956FF4FC081C11101C08A
:100A2000CFEFD0E0C092F000D092F100E092F2005F
:100A3000F092F30061E08FE088DBC03ED10509F061
:100A400080C081E08093B40085E057DB21E0892BF2
:100A500009F420E02093E40086E04FDB21E0892BBD
:100A600009F420E02093E50087E047DB21E0892BB3
:100A700009F420E02093E60088E03FDB21E0892BA9
:100A800009F420E02093E70089E037DB21E0892B9F
:100A900009F420E02093E30083E02FDB21E0892BA1
:100AA00009F420E02093EB0084E027DB21E0892B90
:100AB00009F420E02093EC0080E01FDB892B09F48F
:100AC000D3DC86DC8091F0009091F100A091F200DF
:100AD000B091F300A7019601281B390B4A0B5B0B61
:100AE000DA01C901883C9105A105B10558F060E023
:100AF0008FE02BDBC092F000D092F100E092F20088
:100B0000F092F30061E08091B700811101C060E0D4
:100B100080E11BDBC091B6006C2F82E116DB6C2FED
:100B200083E113DB61E08091B500811101C060E0D9
:100B300081E10BDB80E090E0892B09F442CF60DAA1
:100B400040CFC13ED10531F481E08093B400809361
:100B5000B3007ACFC03FD10541F48091B20081113A
:100B600004C081E08093B2006FCF8091B400811106
:100B700005C08091B300882309F48FC080E091E024
:100B80001092B1008C0F9D1F8534910509F483C22A
:100B90000CF0AEC18432910509F4AEC30CF0FEC076
:100BA0008231910509F43FC30CF0B1C08A30910540
:100BB00009F43EC50CF082C08530910509F408C5E2
:100BC0000CF06EC08330910509F41AC5049709F43E
:100BD0000FC58091B100882341F08091A9009091C8
:100BE000AA00892B11F41092B8008091AF008823DD
:100BF000B9F08091AE00882399F08091AD008823F0
:100C000079F01092AF001092AE001092AD001092E9
:100C1000B0001092B1001092AA001092A90034DC2A
:100C20008091AF00882379F18091AE00882359F13B
:100C30008091AC00882339F11092AF001092AE0081
:100C40001092AC001092B0001092B1001092AA0065
:100C50001092A90088E290E0B1DBC1E0C093E0000F
:100C6000B7DBC093C100B4DB64EF71E080E090E0DB
:100C7000F0DA1092E000ACDB64EF71E080E090E02D
:100C8000E8DA1092C1001092B2008091B30088237C
:100C900009F4E9C41092B300D7CE90E080E070CFA1
:100CA0008630910509F49CC4079709F092CF809192
:100CB000B200882309F48DCFD7DB8BCF8D3091051F
:100CC00009F433C47CF48B30910509F4A1C40C976A
:100CD00009F07FCF8091B200882309F47ACF83E0B6
:100CE000AFDC77CF8E30910509F4F8C3419709F056
:100CF00070CF6091B20081E086278093C700809317
:100D0000B8008093AE0081E190E014DC62CF8C31BA
:100D1000910509F4DCC20CF58631910509F4A7C1EF
:100D200074F48431910509F487C2459709F051CFD5
:100D30008091B20091E089278093BA004ACF8A312E
:100D4000910509F442C34B9709F043CF8091B2005B
:100D500091E089278093C1003CCF8132910509F44D
:100D6000C4C274F48D31910509F41AC34E9709F089
:100D700030CF8091B20091E089278093C30029CFC2
:100D80008232910509F413C3839709F022CF809131
:100D9000B20091E089278093C9001BCF843391056D
:100DA00009F4B1C20CF047C08C32910509F4EAC2D3
:100DB0000CF58932910509F483C274F485329105EA
:100DC00009F40AC3869709F004CF8091B20091E03C
:100DD00089278093CB00FDCE8A32910509F4D9C2D0
:100DE0008B9709F0F6CE8091B20091E0892780932D
:100DF000D100EFCE8133910509F4AFC274F48D3286
:100E0000910509F4B8C28E9709F0E3CE8091B20043
:100E100091E089278093DB00DCCE8233910509F4D1
:100E20005DC2C39709F0D5CE8091B20091E08927C9
:100E30008093DE00CECE8D33910509F4D4C20CF53B
:100E40008A33910509F482C274F48533910509F45B
:100E5000B5C2C69709F0BDCE8091B20091E0892756
:100E60008093DC00B6CE8B33910509F45AC2CC973F
:100E700009F0AFCE8091B20091E089278093D50030
:100E8000A8CE8234910509F453C21CF58E33910526
:100E900009F4B0C28134910509F09BCE4091B200B3
:100EA00021E024272093C7003091B0008AE190E030
:100EB000311102C08FE190E088549F4FFC012083E4
:100EC000442321F01092D2001092D7003093B10049
:100ED00080CE8334910509F41DC28434910509F054
:100EE00078CE8091B20091E089278093C50071CEC1
:100EF0008437910509F4B0CF0CF0DDC08935910538
:100F000009F491C10CF08DC08D34910509F42CC207
:100F10000CF04BC08A34910509F482C21CF586346A
:100F2000910509F403C18934910509F052CE40912D
:100F3000B20021E024272093C7003091B00082E264
:100F400090E0311102C087E190E088549F4FFC018E
:100F50002083442321F01092DA001092CF003093C6
:100F6000B10037CE8B34910509F4E9C18C34910579
:100F700009F02FCE4091B20021E024272093C70032
:100F80003091B00088E090E0311102C08DE090E037
:100F900088549F4FFC012083442321F01092C0000D
:100FA0001092C5003093B10014CE8435910509F438
:100FB00028C21CF58E34910509F475C2823591055D
:100FC00009F007CE4091B20021E024272093C7000A
:100FD0003091B00085E090E0311102C08CE190E0EA
:100FE00088549F4FFC012083442321F01092BD00C0
:100FF0001092D4003093B100ECCD8535910509F401
:1010000037C28835910509F0E4CD6091B20081E0E6
:1010100086278093C7008093B80088E590E08ADA3D
:10102000D8CD8B36910509F4D7C144F58D3591059E
:1010300009F411C2A4F48A35910509F4A9C08B35CD
:10104000910509F0C6CD8091B2008111C2CD809189
:10105000B000882309F4E2C181E229DABACD8636EC
:10106000910509F41FC18936910509F0B2CD80912F
:10107000B20091E089278093BB00ABCD8137910509
:1010800009F455CF7CF48C36910509F4ACC1803756
:10109000910509F09ECD8091B20091E0892780935F
:1010A000BC0097CD8237910509F463CE8337910553
:1010B00009F4ACCE8ECD843121E0920709F4BCC096
:1010C0000CF051C08B37910509F41DC214F5883717
:1010D000910509F4B5C2A4F48537910509F48AC1D4
:1010E0008637910509F075CD6091B20081E08627C1
:1010F0008093B8008093BF0086E790E01BDA69CD4B
:101100008937910509F408C28A37910509F45DCE43
:1011100060CD8E37910509F420C27CF48C3791059F
:1011200009F4E8C18D37910509F053CD8091B200E3
:1011300091E089278093C4004CCD8338910509F450
:101140006FC28131914009F044CD6091B20081E0DD
:1011500086278093C7008093B8008093AE0081E11A
:1011600091E0E8D936CD823751E0950709F476C091
:1011700054F58B36F1E09F0709F47CC084F48A347F
:1011800031E0930709F44CC18A35914009F021CD33
:101190008091B20091E089278093BE001ACD8037FC
:1011A00051E0950709F451C08137914009F011CD04
:1011B0008091B20091E089278093C7008093D0008E
:1011C0008093AD0006CD8737F1E09F0709F4F2C1A7
:1011D000ACF4843731E0930709F458C08537914067
:1011E00009F0F7CC6091B20081E086278093B800C7
:1011F0008093D40085E791E09DD9EBCC8A3751E00C
:10120000950709F49EC18D37914009F0E2CC6091B9
:10121000B20081E086278093B8008093CB008DE7F1
:1012200091E088D9D6CC8091B20091E08927809353
:10123000B8008093B000CDCC8091B20091E08927B6
:101240008093C7008093AF00C4CC8091B20091E03E
:1012500089278093C7008093B900BBCC6091B2000E
:1012600081E086278093B8008093DC0082E791E0DC
:1012700061D9AFCC6091B20081E086278093B8003D
:101280008093DB008BE691E055D9A3CC6091B2004E
:1012900081E086278093B8008093CC0084E791E0BA
:1012A00049D997CC6091B200C1E0C627C093B8007D
:1012B000C093BC0086E690E03DD9C093AC0089CCD9
:1012C0008091B20091E089278093BF0082CC809109
:1012D000B20091E089278093B9007BCC8091B20065
:1012E00091E089278093DF0074CC8091B20091E077
:1012F00089278093D0006DCC8091B20091E089273E
:101300008093CA0066CC8091B20091E089278093D7
:10131000D9005FCC8091B20091E089278093CD0005
:1013200058CC8091B20091E089278093D60051CCAF
:101330008091B20091E089278093CE004ACC8091C1
:10134000B20091E089278093C60043CC8091B2001F
:1013500091E089278093CF003CCC8091B20091E04E
:1013600089278093D70035CC8091B20091E08927FE
:101370008093BD002ECC8091B20091E089278093AC
:10138000D20027CC8091B20091E089278093DA00C7
:1013900020CC8091B20091E089278093D80019CCAD
:1013A0008091B20091E089278093C20012CC809195
:1013B000B20091E089278093C8000BCC8091B200E5
:1013C00091E089278093DD0004CC8091B20091E008
:1013D00089278093C000FDCB8091B20091E08927DE
:1013E0008093D300F6CB8091B20091E0892780935F
:1013F000D400EFCB8091B20091E089278093CC009C
:10140000E8CB8091B2008111E4CB8091B0008823B9
:1014100019F089E14CD8DDCB85E2FCCF8DE11DCE02
:101420004091B20021E024272093C7003091B00002
:1014300088E190E0311102C080E290E088549F4F33
:10144000FC012083442321F01092D0001092D80098
:101450003093B100BECB8091B2008111BACB8091A4
:10146000B000882319F089E022D8B3CB81E1FCCF0A
:101470004091B20021E024272093C7003091B000B2
:1014800086E190E0311102C08EE090E088549F4FD9
:10149000FC012083442321F01092CE001092C6005C
:1014A0003093B10096CB4091B20021E024272093E5
:1014B000C7003091B00084E090E0311102C08EE1AD
:1014C00090E088549F4FFC012083442321F0109228
:1014D000BC001092D6003093B1007BCB8091B2005B
:1014E0009091B000992309F4C1C0811172CB81E0C1
:1014F000DED76FCB8091B20091E089278093C7003F
:101500008093DF0066CB8091B20091E089278093C1
:10151000C7008093D6005DCB8091B20091E089270F
:101520008093C7008093CE0054CB6091B20081E0DD
:1015300086278093B8008093CD008DE090E0FAD7A5
:1015400048CB6091B20081E086278093B8008093F9
:10155000D3008AE791E0EED73CCB8091B20088239C
:1015600009F437CB8091B70081111DC081E08093D1
:10157000B7006091B70081E0611101C080E0809305
:10158000AB0090E080E07BD88091B700982F9170FD
:101590009093EE00869581708093EF008091AB0070
:1015A0008093E10016CB813011F482E0E0CF1092FD
:1015B000B700DFCF8091B200882309F40ACB809175
:1015C000B60091E089278093B6008093ED0001CBAF
:1015D0008091B200882309F4FCCA80E031D8F9CAAE
:1015E0008091B200882309F4F4CA81E029D8F1CAB5
:1015F0008091B200882309F4ECCA82E021D8E9CABC
:101600008091B200882309F4E4CA84E019D8E1CAC1
:101610008091B200882309F4DCCA85E011D8D9CAC8
:101620008091B200882309F4D4CA86E009D8D1CACF
:101630008091B200882309F4CCCA87E001D8C9CAD6
:101640008091B200882309F4C4CA1092AF001092AE
:10165000AE001092AD001092B0001092AA0010924D
:10166000A90012D7B6CA1092B400EEC991E089273A
:101670008093C7008093C800ACCAECE8F0E080E536
:10168000808381E081830895E199FECF9FBB8EBB6B
:10169000E09A99278DB30895262FE199FECF9FBB3D
:1016A0008EBB2DBB0FB6F894E29AE19A0FBE01965D
:1016B0000895EE0FFF1F0590F491E02D0994F89422
:0216C000FFCF5A
:0416C200DD01000046
:00000001FF
