:1000000045C048C320C367C066C065C064C063C044
:1000100062C0CFC260C05FC05EC05DC05CC05BC07C
:100020005AC059C058C000000000370034003100E9
:1000300000000000380035003200000000003600EB
:100040003300300004040404040404040202020225
:100050000202030303030303020203010204081064
:1000600020408001020408102001020408102040F2
:1000700080400000000000000000000405070000B0
:1000800000000000000000000000E10A11241FBE73
:10009000CFE5D4E0DEBFCDBF10E0A0E6B0E0EAE0FF
:1000A000F6E102C005900D92A436B107D9F720E021
:1000B000A4E6B0E001C01D92A33DB207E1F710E055
:1000C000C6E4D0E003C02197FE0197DAC534D1071A
:1000D000D1F707D398CA94CF853039F0873049F0EB
:1000E000843051F48FB58F7702C08FB58F7D8FBD6F
:1000F000089585B58F7D85BD0895CF93DF93282F13
:1001000030E0F901EE58FF4F8491F901E55AFF4FB5
:10011000D491F901EC5BFF4FC491CC2389F081119C
:10012000DBDFEC2FF0E0EE0FFF1FE65CFF4FA59149
:10013000B491EC91ED2381E090E021F480E002C0E5
:1001400080E090E0DF91CF9108951F93CF93DF93EC
:10015000282F30E0F901EE58FF4F8491F901E55A5C
:10016000FF4FD491F901EC5BFF4FC491CC23B9F060
:10017000162F8111B1DFEC2FF0E0EE0FFF1FE05DD5
:10018000FF4FA591B4919FB7F894111104C08C91C1
:10019000D095D82302C0EC91DE2BDC939FBFDF917A
:1001A000CF911F910895CF93DF9390E0FC01E55A22
:1001B000FF4F2491FC01EC5BFF4F8491882361F198
:1001C00090E0880F991FFC01EA5DFF4FC591D49123
:1001D000FC01E05DFF4FA591B491611109C09FB78B
:1001E000F8948881209582238883EC912E230BC07C
:1001F000623061F49FB7F8948881322F3095832361
:100200008883EC912E2B2C939FBF06C08FB7F89458
:10021000E8812E2B28838FBFDF91CF9108953FB7C0
:10022000F8948091CF009091D000A091D100B0912E
:10023000D20022B708B600FE05C02F3F19F0019684
:10024000A11DB11D3FBFBA2FA92F982F8827820F5C
:10025000911DA11DB11DBC01CD0142E0660F771FAC
:10026000881F991F4A95D1F708958F929F92AF9258
:10027000BF92CF92DF92EF92FF926B017C01CFDFB2
:100280004B015C01C114D104E104F104E9F0C7DFC2
:10029000DC01CB0188199909AA09BB09883E934062
:1002A000A105B10578F321E0C21AD108E108F108EF
:1002B00088EE880E83E0981EA11CB11CC114D104E5
:1002C000E104F10421F7DECFFF90EF90DF90CF90B3
:1002D000BF90AF909F908F900895CF92DF92EF9252
:1002E000FF920F931F9380916E0007DF9FB7F894E2
:1002F0004091CB005091CC006091CD007091CE0028
:100300009FBF0091690010916A0020916B003091AD
:100310006C006A017B01C01AD10AE20AF30A970154
:1003200086010B3F11052105310510F01092680080
:100330004093690050936A0060936B0070936C0067
:10034000909168009F5F909368009A3048F49230D3
:1003500060F49130E9F510926700109266003AC09F
:100360009A3099F09B30E9F033C090916600980F75
:10037000909366002091670030E0359527958111B4
:1003800080E8282B2093670025C09091660091702B
:10039000891719F0909366001DC08DEF8093660059
:1003A00019C0809166008D3F98F480917F008F5F27
:1003B000803108F080E090918000891749F0E82FA3
:1003C000F0E090916700E159FF4F908380937F00A8
:1003D000109268001F910F91FF90EF90DF90CF90E7
:1003E00008950895EEE8F0E09F012E583040281758
:1003F000390714F41192F8CF0895CF92DF92EF925B
:10040000FF921F93CF93DF9310E0D0E0C12CD12C4B
:100410007601C39480E090E0C0E0E12FE80FF0E0C7
:10042000E257FF4F2081B701A601082E04C0440FF8
:10043000551F661F771F0A94D2F7222311F0C42B91
:1004400002C04095C42301968830910531F7DF5FE3
:1004500090916400809165009DB98EB960E08AE05A
:1004600074DEDFB90000779BFECF8FB1CFB90000FB
:10047000779BFECF8FB161E08AE067DE185FD730EF
:1004800049F6DF91CF911F91FF90EF90DF90CF90D1
:100490000895CF93DF9388E290E0A4DFCEE8D0E028
:1004A00081E088A7AADF64EF71E080E090E0DDDE04
:1004B00018A6DF91CF91A1CFFF920F931F93CF93F7
:1004C000DF93C82F88E290E08DDF97DF64E170E072
:1004D00080E090E0CADE0EE810E0FF24F394F8011B
:1004E000F0828BDF64E170E080E090E0BEDEF80136
:1004F000F78683DF64E170E080E090E0B6DEF8012B
:1005000017867BDF64E170E080E090E0AEDED0E053
:10051000C257DF4FF88271DF64E170E080E090E065
:10052000A4DEF8011082188268DF64E170E080E0E8
:1005300090E0DF91CF911F910F91FF9096CEFF92A7
:100540000F931F93CF93DF93EC01F62E088119814F
:10055000C8013ED8F81619F06F2DC80141D8CE0158
:10056000DF91CF911F910F91FF900895CF93DF936B
:1005700000D0CDB7DEB780938B0021E030E03A8326
:100580002983682FCE010196DADF80918B00EEE897
:10059000F0E0982F917090AB81FB992790F991AB87
:1005A00082FB882780F982AB0F900F90DF91CF916B
:1005B00008951F920F920FB60F9211242F933F931D
:1005C0008F939F93AF93BF938091CB009091CC007A
:1005D000A091CD00B091CE003091CA0023E0230F4E
:1005E0002D3720F40196A11DB11D05C026E8230F6B
:1005F0000296A11DB11D2093CA008093CB00909359
:10060000CC00A093CD00B093CE008091CF0090910C
:10061000D000A091D100B091D2000196A11DB11DD2
:100620008093CF009093D000A093D100B093D200DC
:10063000BF91AF919F918F913F912F910F900FBEDE
:100640000F901F9018951F920F920FB60F921124C2
:100650002F933F934F935F936F937F938F939F93CA
:10066000AF93BF93EF93FF93E0916200F09163002B
:100670000995FF91EF91BF91AF919F918F917F91DC
:100680006F915F914F913F912F910F900FBE0F90FF
:100690001F9018951F920F920FB60F9211242F934F
:1006A0003F934F935F936F937F938F939F93AF93FA
:1006B000BF93EF93FF93E0916000F0916100099583
:1006C000FF91EF91BF91AF919F918F917F916F912A
:1006D0005F914F913F912F910F900FBE0F901F9000
:1006E0001895CF93DF9300D0CDB7DEB7789483B75A
:1006F000836083BF89B7816089BF82E08EBD8EB57C
:1007000081608EBD8FB581608FBD85B5846085BDEC
:1007100085B5806485BD87E886B91AB81FB7F89497
:1007200080916D0081111FC0EEE4F0E08491E5E658
:10073000F0E09491E82FF0E0EE0FFF1FEA5DFF4F2D
:10074000A591B491EC91E92319F461E08AE0FDDC14
:1007500061E08AE028DD6C9A6E9A61E08DE023DD2D
:1007600061E08BE020DD80916D008F5F80936D00F4
:100770001FBF61E08AE017DD61E08AE0E6DC61E04E
:100780008EE011DD61E08FE00EDD61E080E10BDDE8
:1007900061E081E108DD61E082E105DD61E083E1A6
:1007A00002DD62E085E0FFDC62E086E0FCDC62E026
:1007B00087E0F9DC62E088E0F6DC62E089E0F3DC07
:1007C00062E083E0F0DC62E084E0EDDC61E08EE09A
:1007D000BCDC61E08FE0B9DC60E080E1B6DC60E0C9
:1007E00081E1B3DC60E082E1B0DC60E083E1ADDCBC
:1007F00062E082E0D8DC62E081E0D5DC88E390E072
:10080000F1DD10918D0080E090E0E2D68A3011F0A9
:10081000843129F411E08A3061F010E00AC011231C
:1008200011F06AE001C064E11A821982CE010196DA
:1008300086DE10938D0081E090E0CAD680938B0015
:10084000883050F010928B0081E090E09A83898389
:1008500060E0CE01019673DE60918D006093B70079
:1008600010918B00812F81708093BE0011FB88272F
:1008700080F98093BF0012FB882780F98093C00025
:1008800080E163DC61E0111101C060E081E15DDCC9
:1008900000DE81E080936E0062E082E084DC62E052
:1008A00081E081DC10927F00109280008DE691E063
:1008B000909361008093600085B78C7F826085BFD4
:1008C0008BB780648BBF60E08FE03FDC8FB7F8941C
:1008D000C090CB00D090CC00E090CD00F090CE0046
:1008E0008FBF80917F0090918000891B87FD805F82
:1008F000882309F4EDC580917F0090918000891BC9
:1009000087FD805F811102C08FEF12C0E0918000EF
:1009100080917F00E817C1F3EF5FE03108F0E0E07D
:10092000E0938000F0E0E159FF4F8081882361F37C
:10093000082F10E0C092C600D092C700E092C80015
:10094000F092C90061E08FE000DC003E110521F467
:1009500081E080938A00BCC5013E110531F481E03D
:1009600080938A0080938900B3C5003F110541F44C
:1009700080918800811104C081E080938800A8C51F
:1009800080918A00811104C080918900882319F028
:1009900080E091E002C080E090E010928700109229
:1009A0008600800F911F8534910509F43CC30CF03B
:1009B0001DC18432910509F4C6C20CF087C0823192
:1009C000910509F452C2DCF58A30910509F4FCC4A2
:1009D000ACF48530910509F4C3C444F48330910527
:1009E00009F4DDC4049709F4CBC413C5863091051E
:1009F00009F4BEC4079709F4FCC40BC58D309105FA
:100A000009F470C444F48B30910509F4CFC40C97F9
:100A100009F4BEC4FEC48E30910509F43CC441976C
:100A200009F0F7C49091880081E0892780939D00A8
:100A300080938E008093830080938600EAC48C317B
:100A4000910509F46BC20CF58631910509F4F2C2E7
:100A500074F48431910509F411C2459709F0D9C4A1
:100A60009091880081E0892780939000D2C48A31D8
:100A7000910509F4D1C24B9709F0CBC4909188003D
:100A800081E0892780939700C4C48132910509F4DD
:100A900053C274F48D31910509F4A9C24E9709F03F
:100AA000B8C49091880081E0892780939900B1C4EF
:100AB0008232910509F4A2C2839709F0AAC49091E9
:100AC000880081E0892780939F00A3C48433910527
:100AD00009F440C20CF047C08C32910509F479C288
:100AE0000CF58932910509F412C274F4853291052E
:100AF00009F4A7C2869709F08CC49091880081E020
:100B000089278093A10085C48A32910509F468C2BF
:100B10008B9709F07EC49091880081E089278093AB
:100B2000A70077C48133910509F43EC274F48D3275
:100B3000910509F447C28E9709F06BC49091880023
:100B400081E089278093B10064C48233910509F460
:100B5000ECC1C39709F05DC49091880081E08927BA
:100B60008093B40056C48D33910509F471C20CF51D
:100B70008A33910509F411C274F48533910509F49F
:100B800044C2C69709F045C49091880081E0892746
:100B90008093B2003EC48B33910509F4E9C1CC9730
:100BA00009F037C49091880081E089278093AB00D9
:100BB00030C48234910509F4E2C14CF48E339105BE
:100BC00009F44DC28134910509F496C222C48334DC
:100BD000910509F4C6C18434910509F01AC49091B5
:100BE000880081E0892780939B0013C48437910596
:100BF00009F451C20CF087C08935910509F435C15B
:100C0000ECF58D34910509F4D6C1BCF48A34910514
:100C100009F4E0C24CF48634910509F427C2893402
:100C2000910509F485C2F5C38B34910509F4AEC171
:100C30008C34910509F498C2ECC38435910509F40C
:100C4000AFC24CF48E34910509F409C38235910585
:100C500009F436C2DEC38535910509F4E4C288354E
:100C6000910509F0D6C39091880081E0892780938F
:100C70009D0080938E0080938600CBC38B369105B8
:100C800009F402C2ECF48D35910509F4BFC24CF4AD
:100C90008A35910509F434C18B35910509F48DC26B
:100CA000B8C38636910509F41EC18936910509F04D
:100CB000B0C39091880081E0892780939100A9C3F7
:100CC0008137910509F434C27CF48C36910509F41E
:100CD000E9C18037910509F09CC39091880081E0BB
:100CE00089278093920095C38237910509F4C5C185
:100CF0008337910509F08DC39091880081E08927A1
:100D00008093B10086C3823121E0920709F41AC3AF
:100D10000CF055C08B37910509F4D2C23CF58837E9
:100D2000910509F458C39CF48537910509F4C1C1B4
:100D30008637910509F06DC39091880081E089277D
:100D400080938E00809395008093860062C38937DC
:100D5000910509F4BEC28A37910509F05AC39091F2
:100D6000880081E089278093A10053C38E379105C5
:100D700009F4CEC27CF48C37910509F498C28D3702
:100D8000910509F046C39091880081E089278093FE
:100D90009A003FC38338910509F40FC38131914014
:100DA00009F037C39091880081E0892780939D00E6
:100DB00080938E0080938300809386002AC38137BE
:100DC00051E0950709F463C014F58A3531E09307C3
:100DD00009F496C054F4843151E0950709F44EC0EB
:100DE0008A34914009F4F6C114C38B3631E093077D
:100DF00009F46EC08037914009F00BC390918800D0
:100E000081E0892780939D0080938F0002C38537FE
:100E100051E0950709F446C0A4F4823731E0930706
:100E200009F44BC08437914009F0F3C290918800D7
:100E300081E0892780938E008093A20080938600B2
:100E4000E8C28A3751E0950709F457C28D379140BF
:100E500009F0DFC29091880081E0892780938E009D
:100E60008093A10080938600D4C29091880081E095
:100E7000892780938E0080938500CBC29091880053
:100E800081E0892780939D0080938400C2C2909165
:100E9000880081E0892780939D008093A60080933D
:100EA0008200B7C29091880081E0892780938E00EC
:100EB0008093AA0080938600ACC29091880081E064
:100EC000892780938E008093B20080938600A1C210
:100ED0009091880081E0892780938E008093B100F3
:100EE0008093860096C29091880081E08927809344
:100EF0008E0080939200809386008093810089C247
:100F00009091880081E089278093940082C290911B
:100F1000880081E08927809395007BC290918800AA
:100F200081E0892780938F0074C29091880081E0CE
:100F300089278093B5006DC29091880081E0892750
:100F40008093A60066C29091880081E089278093F3
:100F5000A0005FC29091880081E089278093AF0054
:100F600058C29091880081E089278093A30051C2E4
:100F70009091880081E089278093AC004AC29091CB
:100F8000880081E089278093A40043C29091880063
:100F900081E0892780939C003CC29091880081E089
:100FA00089278093A50035C29091880081E0892728
:100FB0008093AD002EC29091880081E089278093B4
:100FC000930027C29091880081E089278093A80030
:100FD00020C29091880081E089278093B00019C2D7
:100FE0009091880081E089278093AE0012C2909191
:100FF000880081E08927809398000BC29091880037
:1010000081E0892780939E0004C29091880081E04E
:1010100089278093B300FDC19091880081E08927E2
:1010200080939600F6C19091880081E08927809393
:101030009200EFC19091880081E089278093910010
:10104000E8C19091880081E089278093A900E1C1DF
:101050009091880081E089278093AA00DAC190915D
:10106000880081E089278093A200D3C190918800F5
:1010700081E0892780939A00CCC19091880081E01B
:10108000892780939900C5C19091880081E08927C4
:101090008093A900BEC19091880081E08927809348
:1010A000B200B7C19091880081E089278093AA009F
:1010B000B0C19091880081E089278093A200A9C1E6
:1010C0004091880021E0242720939D0030918500E5
:1010D000332319F085E090E002C08CE190E0FC0140
:1010E000E257FF4F2083442321F010929300109287
:1010F000AA00309387008DC14091880021E0242709
:1011000020939D0030918500332319F08AE190E00F
:1011100002C08FE190E0FC01E257FF4F208344239F
:1011200021F01092A8001092AD003093870071C199
:101130004091880021E0242720939D003091850074
:10114000332319F082E290E002C087E190E0FC01D5
:10115000E257FF4F2083442321F01092B0001092F9
:10116000A5003093870055C14091880021E02427D5
:1011700020939D0030918500332319F088E090E0A2
:1011800002C08DE090E0FC01E257FF4F2083442332
:1011900021F01092960010929B003093870039C185
:1011A00080918800811135C180918500882311F0DC
:1011B00089E101C085E280D92CC18091880081112C
:1011C00028C180918500882311F081E201C08DE162
:1011D00073D91FC14091880021E0242720939D00EE
:1011E00030918500332319F088E190E002C080E25D
:1011F00090E0FC01E257FF4F2083442321F010923E
:10120000A6001092AE003093870003C18091880041
:101210008111FFC080918500882311F089E001C011
:1012200081E14AD9F6C04091880021E0242720932B
:101230009D0030918500332319F086E190E002C0D3
:101240008EE090E0FC01E257FF4F2083442321F021
:101250001092A40010929C0030938700DAC0409155
:10126000880021E0242720939D00309185003323BE
:1012700019F084E090E002C08EE190E0FC01E257BA
:10128000FF4F2083442321F0109292001092AC0073
:1012900030938700BEC0809185009091880088239C
:1012A00009F488C19111B5C081E006D9B2C090910E
:1012B000880081E0892780939D008093B500A9C0B4
:1012C0009091880081E0892780939D008093AC00F5
:1012D000A0C09091880081E0892780939D00809331
:1012E000A40097C09091880081E0892780938E00A8
:1012F0008093A300809386008CC09091880081E049
:10130000892780938E008093A9008093860081C0F6
:1013100080918800882309F47CC090918D0081E041
:10132000892780938D00882311F06AE001C064E171
:101330001A821982CE01019602D980918D00809384
:10134000B70067C080918800882309F462C090913B
:101350008C0081E0892780938C008093C30059C062
:1013600080918800882309F454C080E0FFD851C0E0
:1013700080918800882309F44CC081E0F7D849C0E7
:1013800080918800882309F444C082E0EFD841C0EE
:10139000809188008823E9F183E0E8D83AC0809101
:1013A00088008823B1F184E0E1D833C080918800BF
:1013B000882379F185E0DAD82CC0809188008823D1
:1013C00041F186E0D3D825C080918800882309F1B7
:1013D00087E0CCD81EC0809188008823D1F010927D
:1013E000840010928300109282001092850051D8E0
:1013F00010C080918800882361F081E08093B8005C
:10140000FCD764EF71E080E090E02FD71092B80035
:10141000F4D780918700882331F080918600811174
:1014200002C010928E00809184008823A9F08091E0
:101430008300882389F080918200882369F01092CC
:101440008400109283001092820010928500109206
:101450008700109286001DD880918400882369F14E
:1014600080918300882349F180918100882329F1AC
:1014700010928400109283001092810010928500D7
:10148000109287001092860088E290E0ABD711E0BE
:101490001093B600B2D710939700AFD764EF71E006
:1014A00080E090E0E2D61092B600A7D764EF71E03A
:1014B00080E090E0DAD61092970010928800809138
:1014C0008900882319F01092890002C010928A00C6
:1014D00085E013D621E0892B09F420E02093BA009F
:1014E00086E00BD621E0892B09F420E02093BB0095
:1014F00087E003D621E0892B09F420E02093BC008B
:1015000088E0FBD521E0892B09F420E02093BD0081
:1015100089E0F3D521E0892B09F420E02093B9007C
:1015200083E0EBD521E0892B09F420E02093C10072
:1015300084E0E3D521E0892B09F420E02093C20068
:101540005CD78091C6009091C700A091C800B0916F
:10155000C900A7019601281B390B4A0B5B0B283CDD
:10156000310541055105F8F060E08FE0EED560915E
:101570008D0080E1EAD510918C00612F82E1E5D5E4
:10158000612F83E1E2D561E080918B00811101C080
:1015900060E081E1DAD5C092C600D092C700E09247
:1015A000C800F092C90080E090E0892B09F48EC950
:1015B00027D58CC981E0892780939D0080939E0068
:1015C00028CFE4E6F0E080E5808381E08183089520
:1015D000E199FECF9FBB8EBBE09A99278DB308950A
:1015E000262FE199FECF9FBB8EBB2DBB0FB6F89483
:1015F000E29AE19A0FBE01960895EE0FFF1F059043
:0A160000F491E02D0994F894FFCF57
:04160A00F1010000EA
:00000001FF
