:1000000045C059C331C367C066C065C064C063C022
:1000100062C0E0C260C05FC05EC05DC05CC05BC06B
:100020005AC059C058C000000000370034003100E9
:1000300000000000380035003200000000003600EB
:100040003300300004040404040404040202020225
:100050000202030303030303020203010204081064
:1000600020408001020408102001020408102040F2
:1000700080400000000000000000000405070000B0
:1000800000000000000000000000F20A11241FBE62
:10009000CFE5D4E0DEBFCDBF10E0A0E6B0E0ECE2FB
:1000A000F6E102C005900D92A436B107D9F720E021
:1000B000A4E6B0E001C01D92A33DB207E1F710E055
:1000C000C6E4D0E003C02197FE01A8DAC534D10709
:1000D000D1F718D3A9CA94CF853039F0873049F0C9
:1000E000843051F48FB58F7702C08FB58F7D8FBD6F
:1000F000089585B58F7D85BD0895CF93DF93282F13
:1001000030E0F901EE58FF4F8491F901E55AFF4FB5
:10011000D491F901EC5BFF4FC491CC2389F081119C
:10012000DBDFEC2FF0E0EE0FFF1FE65CFF4FA59149
:10013000B491EC91ED2381E090E021F480E002C0E5
:1001400080E090E0DF91CF9108951F93CF93DF93EC
:10015000282F30E0F901EE58FF4F8491F901E55A5C
:10016000FF4FD491F901EC5BFF4FC491CC23B9F060
:10017000162F8111B1DFEC2FF0E0EE0FFF1FE05DD5
:10018000FF4FA591B4919FB7F894111104C08C91C1
:10019000D095D82302C0EC91DE2BDC939FBFDF917A
:1001A000CF911F910895CF93DF9390E0FC01E55A22
:1001B000FF4F2491FC01EC5BFF4F8491882361F198
:1001C00090E0880F991FFC01EA5DFF4FC591D49123
:1001D000FC01E05DFF4FA591B491611109C09FB78B
:1001E000F8948881209582238883EC912E230BC07C
:1001F000623061F49FB7F8948881322F3095832361
:100200008883EC912E2B2C939FBF06C08FB7F89458
:10021000E8812E2B28838FBFDF91CF9108953FB7C0
:10022000F8948091CF009091D000A091D100B0912E
:10023000D20022B708B600FE05C02F3F19F0019684
:10024000A11DB11D3FBFBA2FA92F982F8827820F5C
:10025000911DA11DB11DBC01CD0142E0660F771FAC
:10026000881F991F4A95D1F708958F929F92AF9258
:10027000BF92CF92DF92EF92FF926B017C01CFDFB2
:100280004B015C01C114D104E104F104E9F0C7DFC2
:10029000DC01CB0188199909AA09BB09883E934062
:1002A000A105B10578F321E0C21AD108E108F108EF
:1002B00088EE880E83E0981EA11CB11CC114D104E5
:1002C000E104F10421F7DECFFF90EF90DF90CF90B3
:1002D000BF90AF909F908F900895CF92DF92EF9252
:1002E000FF920F931F9380916E0007DF9FB7F894E2
:1002F0004091CB005091CC006091CD007091CE0028
:100300009FBF0091690010916A0020916B003091AD
:100310006C006A017B01C01AD10AE20AF30A970154
:1003200086010B3F11052105310510F01092680080
:100330004093690050936A0060936B0070936C0067
:10034000909168009F5F909368009A3048F49230D3
:1003500060F49130E9F510926700109266003AC09F
:100360009A3099F09B30E9F033C090916600980F75
:10037000909366002091670030E0359527958111B4
:1003800080E8282B2093670025C09091660091702B
:10039000891719F0909366001DC08DEF8093660059
:1003A00019C0809166008D3F98F480917F008F5F27
:1003B000803108F080E090918000891749F0E82FA3
:1003C000F0E090916700E159FF4F908380937F00A8
:1003D000109268001F910F91FF90EF90DF90CF90E7
:1003E00008950895EEE8F0E09F012E583040281758
:1003F000390714F41192F8CF0895CF92DF92EF925B
:10040000FF921F93CF93DF9310E0D0E0C12CD12C4B
:100410007601C39480E090E0C0E0E12FE80FF0E0C7
:10042000E257FF4F2081B701A601082E04C0440FF8
:10043000551F661F771F0A94D2F7222311F0C42B91
:1004400002C04095C42301968830910531F7DF5FE3
:1004500090916400809165009DB98EB960E08AE05A
:1004600074DEDFB90000779BFECF8FB1CFB90000FB
:10047000779BFECF8FB161E08AE067DE185FD730EF
:1004800049F6DF91CF911F91FF90EF90DF90CF90D1
:100490000895CF93DF93CEE8D0E081E08AA7ADDF67
:1004A00064EF71E080E090E0E0DE1AA6DF91CF918A
:1004B000A4CFCF93DF9388E290E094DFCEE8D0E042
:1004C00081E088A79ADF64EF71E080E090E0CDDE04
:1004D00018A6DF91CF9191CFFF920F931F93CF93E7
:1004E000DF93C82F88E290E07DDF87DF64E170E072
:1004F00080E090E0BADE0EE810E0FF24F394F8010B
:10050000F0827BDF64E170E080E090E0AEDEF80135
:10051000F78673DF64E170E080E090E0A6DEF8012A
:1005200017866BDF64E170E080E090E09EDED0E053
:10053000C257DF4FF88261DF64E170E080E090E055
:1005400094DEF8011082188258DF64E170E080E0E8
:1005500090E0DF91CF911F910F91FF9086CEFF9297
:100560000F931F93CF93DF93EC01F62E088119812F
:10057000C8013FD8F81619F06F2DC80142D8CE0136
:10058000DF91CF911F910F91FF900895CF93DF934B
:1005900000D0CDB7DEB780938B0021E030E03A8306
:1005A0002983682FCE010196DADF80918B00EEE877
:1005B000F0E0982F917090AB81FB992790F991AB67
:1005C00082FB882780F982AB74DF0F900F90DF9158
:1005D000CF9108951F920F920FB60F9211242F936F
:1005E0003F938F939F93AF93BF938091CB00909154
:1005F000CC00A091CD00B091CE003091CA0023E094
:10060000230F2D3720F40196A11DB11D05C026E84A
:10061000230F0296A11DB11D2093CA008093CB0029
:100620009093CC00A093CD00B093CE008091CF00EA
:100630009091D000A091D100B091D2000196A11D5F
:10064000B11D8093CF009093D000A093D100B093C0
:10065000D200BF91AF919F918F913F912F910F90B9
:100660000FBE0F901F9018951F920F920FB60F920A
:1006700011242F933F934F935F936F937F938F93A7
:100680009F93AF93BF93EF93FF93E0916200F0913C
:1006900063000995FF91EF91BF91AF919F918F9169
:1006A0007F916F915F914F913F912F910F900FBE6E
:1006B0000F901F9018951F920F920FB60F92112452
:1006C0002F933F934F935F936F937F938F939F935A
:1006D000AF93BF93EF93FF93E0916000F0916100BF
:1006E0000995FF91EF91BF91AF919F918F917F916C
:1006F0006F915F914F913F912F910F900FBE0F908F
:100700001F901895CF93DF9300D0CDB7DEB77894C4
:1007100083B7836083BF89B7816089BF82E08EBD64
:100720008EB581608EBD8FB581608FBD85B58460CB
:1007300085BD85B5806485BD87E886B91AB81FB7C1
:10074000F89480916D0081111FC0EEE4F0E0849177
:10075000E5E6F0E09491E82FF0E0EE0FFF1FEA5D90
:10076000FF4FA591B491EC91E92319F461E08AE07F
:10077000ECDC61E08AE017DD6C9A6E9A61E08DE056
:1007800012DD61E08BE00FDD80916D008F5F809363
:100790006D001FBF61E08AE006DD61E08AE0D5DC24
:1007A00061E08EE000DD61E08FE0FDDC61E080E192
:1007B000FADC61E081E1F7DC61E082E1F4DC61E038
:1007C00083E1F1DC62E085E0EEDC62E086E0EBDC18
:1007D00062E087E0E8DC62E088E0E5DC62E089E096
:1007E000E2DC62E083E0DFDC62E084E0DCDC61E04C
:1007F0008EE0ABDC61E08FE0A8DC60E080E1A5DCAE
:1008000060E081E1A2DC60E082E19FDC60E083E106
:100810009CDC62E082E0C7DC62E081E0C4DC62E094
:1008200080E0C1DC88E390E0DDDD10918D0080E0A8
:1008300090E0DFD68A3011F0843129F411E08A305B
:1008400061F010E00AC0112311F06AE001C064E118
:100850001A821982CE01019682DE10938D0081E00A
:1008600090E0C7D680938B00883050F010928B00B8
:1008700081E090E09A83898360E0CE0101966FDE8B
:1008800060918D006093B70010918B00812F817073
:100890008093BE0011FB882780F98093BF0012FB74
:1008A000882780F98093C00080E14FDC61E011115E
:1008B00001C060E081E149DC60ED77E080E090E03C
:1008C000D4DCF7DD81E080936E0062E082E06BDCD7
:1008D00062E081E068DC10927F00109280008DE67B
:1008E00091E0909361008093600085B78C7F826077
:1008F00085BF8BB780648BBF60E08FE026DC8FB74D
:10090000F894C090CB00D090CC00E090CD00F09057
:10091000CE008FBF80917F0090918000891B87FD62
:10092000805F882309F4E0C580917F00909180006A
:10093000891B87FD805F811102C08FEF12C0E0919B
:10094000800080917F00E817C1F3EF5FE03108F08D
:10095000E0E0E0938000F0E0E159FF4F80818823E0
:1009600061F3082F10E0C092C600D092C700E09259
:10097000C800F092C90061E08FE0E7DB003E11059E
:1009800021F481E080938A00AFC5013E110531F466
:1009900081E080938A0080938900A6C5003F1105FD
:1009A00041F480918800811104C081E08093880027
:1009B0009BC580918A00811104C0809189008823A1
:1009C00019F080E091E002C080E090E01092870092
:1009D00010928600800F911F8534910509F43CC365
:1009E0000CF01DC18432910509F4C6C20CF087C019
:1009F0008231910509F452C2DCF58A30910509F47F
:100A0000FBC4ACF48530910509F4C3C444F48330CD
:100A1000910509F4DCC4049709F4CBC406C58630FB
:100A2000910509F4BEC4079709F4FBC4FEC48D30D8
:100A3000910509F470C444F48B30910509F4CEC4D7
:100A40000C9709F4BDC4F1C48E30910509F43CC47F
:100A5000419709F0EAC49091880081E0892780934A
:100A60009D0080938E008093830080938600DDC478
:100A70008C31910509F46BC20CF58631910509F4AE
:100A8000F2C274F48431910509F411C2459709F05A
:100A9000CCC49091880081E0892780939000C5C4E0
:100AA0008A31910509F4D1C24B9709F0BEC49091E7
:100AB000880081E0892780939700B7C4813291052F
:100AC00009F453C274F48D31910509F4A9C24E970B
:100AD00009F0ABC49091880081E089278093990048
:100AE000A4C48232910509F4A2C2839709F09DC47F
:100AF0009091880081E0892780939F0096C4843379
:100B0000910509F440C20CF047C08C32910509F4FC
:100B100079C20CF58932910509F412C274F4853258
:100B2000910509F4A7C2869709F07FC490918800C7
:100B300081E089278093A10078C48A32910509F465
:100B400068C28B9709F071C49091880081E0892771
:100B50008093A7006AC48133910509F43EC274F4FE
:100B60008D32910509F447C28E9709F05EC49091C9
:100B7000880081E089278093B10057C482339105B2
:100B800009F4ECC1C39709F050C49091880081E04A
:100B900089278093B40049C48D33910509F471C24B
:100BA0000CF58A33910509F411C274F4853391056B
:100BB00009F444C2C69709F038C49091880081E0D6
:100BC00089278093B20031C48B33910509F4E9C1C0
:100BD000CC9709F02AC49091880081E089278093FE
:100BE000AB0023C48234910509F4E2C14CF48E3386
:100BF000910509F44DC28134910509F496C215C4DA
:100C00008334910509F4C6C18434910509F00DC4FB
:100C10009091880081E0892780939B0006C48437E7
:100C2000910509F451C20CF087C08935910509F48A
:100C300035C1ECF58D34910509F4D6C1BCF48A3484
:100C4000910509F4E0C24CF48634910509F427C2F9
:100C50008934910509F485C2E8C38B34910509F400
:100C6000AEC18C34910509F498C2DFC38435910577
:100C700009F4AFC24CF48E34910509F409C38235EE
:100C8000910509F436C2D1C38535910509F4E4C252
:100C90008835910509F0C9C39091880081E08927C2
:100CA00080939D0080938E0080938600BEC38B3618
:100CB000910509F402C2ECF48D35910509F4BFC227
:100CC0004CF48A35910509F434C18B35910509F44A
:100CD0008DC2ABC38636910509F41EC189369105D4
:100CE00009F0A3C39091880081E089278093910047
:100CF0009CC38137910509F434C27CF48C3691058C
:100D000009F4E9C18037910509F08FC390918800FB
:100D100081E089278093920088C38237910509F486
:100D2000C5C18337910509F080C39091880081E0A7
:100D300089278093B10079C3823121E0920709F4B9
:100D40001AC30CF055C08B37910509F4D2C23CF59B
:100D50008837910509F457C39CF48537910509F448
:100D6000C1C18637910509F060C39091880081E088
:100D7000892780938E00809395008093860055C3C9
:100D80008937910509F4BEC28A37910509F04DC330
:100D90009091880081E089278093A10046C38E3717
:100DA000910509F4CEC27CF48C37910509F498C200
:100DB0008D37910509F039C39091880081E089272A
:100DC00080939A0032C38338910509F40EC38131B0
:100DD000914009F02AC39091880081E0892780938F
:100DE0009D0080938E0080938300809386001DC3B6
:100DF000813751E0950709F463C014F58A3531E075
:100E0000930709F496C054F4843151E0950709F42E
:100E10004EC08A34914009F4F6C107C38B3631E0E5
:100E2000930709F46EC08037914009F0FEC290919B
:100E3000880081E0892780939D0080938F00F5C210
:100E4000853751E0950709F446C0A4F4823731E0B4
:100E5000930709F44BC08437914009F0E6C29091A2
:100E6000880081E0892780938E008093A200809380
:100E70008600DBC28A3751E0950709F457C28D37E7
:100E8000914009F0D2C29091880081E08927809337
:100E90008E008093A10080938600C7C29091880045
:100EA00081E0892780938E0080938500BEC2909157
:100EB000880081E0892780939D0080938400B5C2DB
:100EC0009091880081E0892780939D008093A600FF
:100ED00080938200AAC29091880081E08927809344
:100EE0008E008093AA00809386009FC29091880014
:100EF00081E0892780938E008093B20080938600E2
:100F000094C29091880081E0892780938E0080931D
:100F1000B1008093860089C29091880081E0892782
:100F200080938E008093920080938600809381004E
:100F30007CC29091880081E089278093940075C2DB
:100F40009091880081E08927809395006EC29091EE
:100F5000880081E0892780938F0067C29091880084
:100F600081E089278093B50060C29091880081E07C
:100F700089278093A60059C29091880081E0892733
:100F80008093A00052C29091880081E089278093CD
:100F9000AF004BC29091880081E089278093A30025
:100FA00044C29091880081E089278093AC003DC2C3
:100FB0009091880081E089278093A40036C29091A7
:100FC000880081E0892780939C002FC2909188003F
:100FD00081E089278093A50028C29091880081E054
:100FE00089278093AD0021C29091880081E08927F4
:100FF000809393001AC29091880081E089278093A2
:10100000A80013C29091880081E089278093B000E6
:101010000CC29091880081E089278093AE0005C2C0
:101020009091880081E0892780939800FEC190917B
:10103000880081E0892780939E00F7C19091880005
:1010400081E089278093B300F0C19091880081E00E
:10105000892780939600E9C19091880081E08927D3
:1010600080939200E2C19091880081E0892780936B
:101070009100DBC19091880081E089278093A900CD
:10108000D4C19091880081E089278093AA00CDC1C6
:101090009091880081E089278093A200C6C1909139
:1010A000880081E0892780939A00BFC190918800D1
:1010B00081E0892780939900B8C19091880081E0F0
:1010C00089278093A900B1C19091880081E0892788
:1010D0008093B200AAC19091880081E08927809313
:1010E000AA00A3C19091880081E089278093A20083
:1010F0009CC14091880021E0242720939D003091DD
:101100008500332319F085E090E002C08CE190E087
:10111000FC01E257FF4F2083442321F010929300FB
:101120001092AA003093870080C14091880021E08E
:10113000242720939D0030918500332319F08AE104
:1011400090E002C08FE190E0FC01E257FF4F208366
:10115000442321F01092A8001092AD003093870034
:1011600064C14091880021E0242720939D003091A4
:101170008500332319F082E290E002C087E190E01D
:10118000FC01E257FF4F2083442321F01092B0006E
:101190001092A5003093870048C14091880021E05B
:1011A000242720939D0030918500332319F088E097
:1011B00090E002C08DE090E0FC01E257FF4F2083F9
:1011C000442321F01092960010929B0030938700E8
:1011D0002CC180918800811128C1809185008823CD
:1011E00011F089E101C085E277D91FC180918800A3
:1011F00081111BC180918500882311F081E201C01B
:101200008DE16AD912C14091880021E02427209302
:101210009D0030918500332319F088E190E002C0F1
:1012200080E290E0FC01E257FF4F2083442321F04D
:101230001092A6001092AE0030938700F6C0809105
:1012400088008111F2C080918500882311F089E027
:1012500001C081E141D9E9C04091880021E0242703
:1012600020939D0030918500332319F086E190E0B2
:1012700002C08EE090E0FC01E257FF4F2083442340
:1012800021F01092A40010929C0030938700CDC0F2
:101290004091880021E0242720939D003091850013
:1012A000332319F084E090E002C08EE190E0FC016D
:1012B000E257FF4F2083442321F0109292001092B6
:1012C000AC0030938700B1C0809185009091880078
:1012D000882309F480C19111A8C081E0FDD8A5C080
:1012E0009091880081E0892780939D008093B500CC
:1012F0009CC09091880081E0892780939D00809315
:10130000AC0093C09091880081E0892780939D0074
:101310008093A4008AC09091880081E089278093FF
:101320008E008093A300809386007FC090918800F8
:1013300081E0892780938E008093A90080938600A6
:1013400074C080918800882309F46FC090918D004B
:1013500081E0892780938D00882311F06AE001C025
:1013600064E11A821982CE010196F9D880918D002C
:101370008093B7005AC080918800882309F455C033
:1013800090918C0081E0892780938C008093C3002A
:101390004CC080918800882309F447C080E0F6D8CB
:1013A00044C080918800882309F43FC081E0EED8D2
:1013B0003CC0809188008823C1F182E0E7D835C025
:1013C00080918800882389F183E0E0D82EC0809145
:1013D0008800882351F184E0D9D827C08091880003
:1013E000882319F185E0D2D820C080918800882315
:1013F000E1F086E0CBD819C0809188008823A9F05D
:1014000087E0C4D812C080918800882371F01092C0
:10141000840010928300109282001092850049D8B7
:1014200004C080918800811134D88091870088237E
:1014300031F080918600811102C010928E0080915F
:1014400084008823A9F080918300882389F080910B
:101450008200882369F01092840010928300109219
:10146000820010928500109287001092860021D889
:1014700080918400882369F180918300882349F159
:1014800080918100882329F11092840010928300BA
:1014900010928100109285001092870010928600B1
:1014A00088E290E09FD711E01093B600A6D7109382
:1014B0009700A3D764EF71E080E090E0D6D6109259
:1014C000B6009BD764EF71E080E090E0CED610923A
:1014D00097001092880080918900882319F010925B
:1014E000890002C010928A0085E007D621E0892B8E
:1014F00009F420E02093BA0086E0FFD521E0892B93
:1015000009F420E02093BB0087E0F7D521E0892B88
:1015100009F420E02093BC0088E0EFD521E0892B7E
:1015200009F420E02093BD0089E0E7D521E0892B74
:1015300009F420E02093B90083E0DFD521E0892B76
:1015400009F420E02093C10084E0D7D521E0892B65
:1015500009F420E02093C20080E0CFD5892B09F464
:1015600098D74BD78091C6009091C700A091C80032
:10157000B091C900A7019601281B390B4A0B5B0BE0
:10158000283C31054105510558F060E08FE0DDD57C
:10159000C092C600D092C700E092C800F092C90085
:1015A00060918D0080E1D1D510918C00612F82E196
:1015B000CCD5612F83E1C9D561E080918B00811189
:1015C00001C060E081E1C1D580E090E0892B09F4A1
:1015D00096C916D594C981E0892780939D00809390
:1015E0009E0023CFE4E6F0E080E5808381E0818304
:1015F0000895E199FECF9FBB8EBBE09A99278DB3EA
:101600000895262FE199FECF9FBB8EBB2DBB0FB651
:10161000F894E29AE19A0FBE01960895EE0FFF1F2B
:0C1620000590F491E02D0994F894FFCFA0
:04162C00F1010000C8
:00000001FF
