:1000000045C0E0C3B8C367C066C065C064C063C014
:1000100062C067C360C05FC05EC05DC05CC05BC0E3
:100020005AC059C058C000000000370034003100E9
:1000300000000000380035003200000000003600EB
:100040003300300004040404040404040202020225
:100050000202030303030303020203010204081064
:1000600020408001020408102001020408102040F2
:1000700080400000000000000000000405070000B0
:10008000000000000000000000008D0B11241FBEC6
:10009000CFE5D4E0DEBFCDBF10E0A0E6B0E0E2E601
:1000A000F7E102C005900D92A436B107D9F720E020
:1000B000A4E6B0E001C01D92AC3FB207E1F710E04A
:1000C000C6E4D0E003C02197FE0143DBC534D1076D
:1000D000D1F79FD344CB94CF853039F0873049F0A6
:1000E000843051F48FB58F7702C08FB58F7D8FBD6F
:1000F000089585B58F7D85BD0895CF93DF93282F13
:1001000030E0F901EE58FF4F8491F901E55AFF4FB5
:10011000D491F901EC5BFF4FC491CC2389F081119C
:10012000DBDFEC2FF0E0EE0FFF1FE65CFF4FA59149
:10013000B491EC91ED2381E090E021F480E002C0E5
:1001400080E090E0DF91CF9108951F93CF93DF93EC
:10015000282F30E0F901EE58FF4F8491F901E55A5C
:10016000FF4FD491F901EC5BFF4FC491CC23B9F060
:10017000162F8111B1DFEC2FF0E0EE0FFF1FE05DD5
:10018000FF4FA591B4919FB7F894111104C08C91C1
:10019000D095D82302C0EC91DE2BDC939FBFDF917A
:1001A000CF911F910895CF93DF9390E0FC01E55A22
:1001B000FF4F2491FC01EC5BFF4F8491882361F198
:1001C00090E0880F991FFC01EA5DFF4FC591D49123
:1001D000FC01E05DFF4FA591B491611109C09FB78B
:1001E000F8948881209582238883EC912E230BC07C
:1001F000623061F49FB7F8948881322F3095832361
:100200008883EC912E2B2C939FBF06C08FB7F89458
:10021000E8812E2B28838FBFDF91CF9108953FB7C0
:10022000F8948091F8009091F900A091FA00B091B3
:10023000FB0022B708B600FE05C02F3F19F001965B
:10024000A11DB11D3FBFBA2FA92F982F8827820F5C
:10025000911DA11DB11DBC01CD0142E0660F771FAC
:10026000881F991F4A95D1F708958F929F92AF9258
:10027000BF92CF92DF92EF92FF926B017C01CFDFB2
:100280004B015C01C114D104E104F104E9F0C7DFC2
:10029000DC01CB0188199909AA09BB09883E934062
:1002A000A105B10578F321E0C21AD108E108F108EF
:1002B00088EE880E83E0981EA11CB11CC114D104E5
:1002C000E104F10421F7DECFFF90EF90DF90CF90B3
:1002D000BF90AF909F908F900895CF92DF92EF9252
:1002E000FF920F931F938091960007DF9FB7F894BA
:1002F0004091F4005091F5006091F6007091F70084
:100300009FBF009191001091920020919300309135
:1003100094006A017B01C01AD10AE20AF30A97012C
:1003200086010B3F11052105310510F01092900058
:1003300040939100509392006093930070939400C7
:10034000909190009F5F909390009A3048F4923083
:1003500060F49130E9F510928F0010928E003AC04F
:100360009A3099F09B30E9F033C090918E00980F4D
:1003700090938E0020918F0030E035952795811164
:1003800080E8282B20938F0025C090918E009170DB
:10039000891719F090938E001DC08DEF80938E0009
:1003A00019C080918E008D3F98F48091A7008F5FD7
:1003B000803108F080E09091A800891749F0E82F7B
:1003C000F0E090918F00E956FF4F90838093A70053
:1003D000109290001F910F91FF90EF90DF90CF90BF
:1003E00008950895E7EBF0E09F01275B3040281760
:1003F000390714F41192F8CF0895CF92DF92EF925B
:10040000FF921F93CF93DF9310E0D0E0C12CD12C4B
:100410007601C39480E090E0C0E0E12FE80FF0E0C7
:10042000E954FF4F2081B701A601082E04C0440FF4
:10043000551F661F771F0A94D2F7222311F0C42B91
:1004400002C04095C42301968830910531F7DF5FE3
:1004500090918C0080918D009DB98EB960E08AE00A
:1004600074DEDFB90000779BFECF8FB1CFB90000FB
:10047000779BFECF8FB161E08AE067DE185FD730EF
:1004800049F6DF91CF911F91FF90EF90DF90CF90D1
:100490000895CF93DF93C7EBD0E081E08AA7ADDF6B
:1004A00064EF71E080E090E0E0DE1AA6DF91CF918A
:1004B000A4CFCF93DF9388E290E094DFC7EBD0E046
:1004C00081E088A79ADF64EF71E080E090E0CDDE04
:1004D00018A6DF91CF9191CFFF920F931F93CF93E7
:1004E000DF93C82F88E290E07DDF87DF64E170E072
:1004F00080E090E0BADE07EB10E0FF24F394F8010F
:10050000F0827BDF64E170E080E090E0AEDEF80135
:10051000F78673DF64E170E080E090E0A6DEF8012A
:1005200017866BDF64E170E080E090E09EDED0E053
:10053000C954DF4FF88261DF64E170E080E090E051
:1005400094DEF8011082188258DF64E170E080E0E8
:1005500090E0DF91CF911F910F91FF9086CECF92C7
:10056000DF92EF92FF920F931F93CF93DF93CDB75C
:10057000DEB7A8970FB6F894DEBF0FBECDBF2091AF
:10058000A9003091AA00611126C012161306ACF41E
:10059000E4E6F0E040E050E0A191B1918A179B07BA
:1005A00009F461E04F5F5F4F24173507A9F7611128
:1005B0004EC0243131050CF04AC0F901EE0FFF1F87
:1005C000EC59FF4F918380832F5F3F4F3093AA00F8
:1005D0002093A9003CC0FE01319648E2DF011D9244
:1005E0004A95E9F7121613061CF040E050E02BC0C4
:1005F00004E610E0780140E050E060E070E0D701F0
:10060000CD90DD907D018C159D0549F0DA01AA0F92
:10061000BB1FAE0FBF1FCD92DC924F5F5F4F6F5F6E
:100620007F4F2617370759F741155105F1F280E042
:1006300090E021913191D8012D933D938D01019648
:1006400084179507B4F35093AA004093A900A89685
:100650000FB6F894DEBF0FBECDBFDF91CF911F91D3
:100660000F91FF90EF90DF90CF900895FF920F933E
:100670001F93CF93DF93EC01F62E08811981C801F7
:1006800053D8F81619F06F2DC80156D8CE01DF9156
:10069000CF911F910F91FF900895CF93DF9300D0DA
:1006A000CDB7DEB78093B40021E030E03A832983F0
:1006B000682FCE010196DADF8091B400E7EBF0E01D
:1006C000982F917090AB81FB992790F991AB82FBA9
:1006D000882780F982ABEDDE0F900F90DF91CF91EC
:1006E00008951F920F920FB60F9211242F933F93EC
:1006F0008F939F93AF93BF938091F4009091F500F7
:10070000A091F600B091F7003091F30023E0230FA1
:100710002D3720F40196A11DB11D05C026E8230F39
:100720000296A11DB11D2093F3008093F4009093D5
:10073000F500A093F600B093F7008091F800909137
:10074000F900A091FA00B091FB000196A11DB11D26
:100750008093F8009093F900A093FA00B093FB0007
:10076000BF91AF919F918F913F912F910F900FBEAD
:100770000F901F9018951F920F920FB60F92112491
:100780002F933F934F935F936F937F938F939F9399
:10079000AF93BF93EF93FF93E0916200F0916300FA
:1007A0000995FF91EF91BF91AF919F918F917F91AB
:1007B0006F915F914F913F912F910F900FBE0F90CE
:1007C0001F9018951F920F920FB60F9211242F931E
:1007D0003F934F935F936F937F938F939F93AF93C9
:1007E000BF93EF93FF93E0916000F0916100099552
:1007F000FF91EF91BF91AF919F918F917F916F91F9
:100800005F914F913F912F910F900FBE0F901F90CE
:100810001895CF93DF9300D0CDB7DEB7789483B728
:10082000836083BF89B7816089BF82E08EBD8EB54A
:1008300081608EBD8FB581608FBD85B5846085BDBB
:1008400085B5806485BD87E886B91AB81FB7F89466
:100850008091950081111FC0EEE4F0E08491E5E6FF
:10086000F0E09491E82FF0E0EE0FFF1FEA5DFF4FFC
:10087000A591B491EC91E92319F461E08AE065DC7B
:1008800061E08AE090DC6C9A6E9A61E08DE08BDC2E
:1008900061E08BE088DC809195008F5F809395000C
:1008A0001FBF61E08AE07FDC61E08AE04EDC61E04E
:1008B0008EE079DC61E08FE076DC61E080E173DC82
:1008C00061E081E170DC61E082E16DDC61E083E1A7
:1008D0006ADC62E085E067DC62E086E064DC62E0BE
:1008E00087E061DC62E088E05EDC62E089E05BDC9E
:1008F00062E083E058DC62E084E055DC61E08EE099
:1009000024DC61E08FE021DC60E080E11EDC60E05F
:1009100081E11BDC60E082E118DC60E083E115DC52
:1009200062E082E040DC62E081E03DDC62E080E0A9
:100930003ADC88E390E056DD1091B60080E090E06C
:10094000F3D68A3011F0843129F411E08A3061F055
:1009500010E00AC0112311F06AE001C064E11A82BC
:100960001982CE01019682DE1093B60081E090E0FC
:10097000DBD68093B400883050F01092B40081E050
:1009800090E09A83898360E0CE0101966FDE6091EA
:10099000B6006093E0001091B400812F81708093C5
:1009A000E70011FB882780F98093E80012FB882775
:1009B00080F98093E90080E1C8DB61E0111101C09A
:1009C00060E081E1C2DB60ED77E080E090E04DDC4B
:1009D00070DD81E08093960062E082E0E4DB62E01B
:1009E00081E0E1DB1092A7001092A8008DE691E073
:1009F000909361008093600085B78C7F826085BF93
:100A00008BB780648BBF60E08FE09FDB8FB7F8947B
:100A1000C090F400D090F500E090F600F090F70060
:100A20008FBF8091A7009091A800891B87FD805FF0
:100A3000882309F4F4C58091A7009091A800891B30
:100A400087FD805F811102C08FEF12C0E091A80086
:100A50008091A700E817C1F3EF5FE03108F0E0E014
:100A6000E093A800F0E0E956FF4F8081882361F30E
:100A7000082F10E0C092EF00D092F000E092F10059
:100A8000F092F20061E08FE060DB003E110521F49E
:100A900081E08093B300C3C5013E110531F481E0CC
:100AA0008093B3008093B200BAC5003F110541F4B2
:100AB0008091B100811104C081E08093B100AFC585
:100AC0008091B300811104C08091B200882319F095
:100AD00080E091E002C080E090E01092B000800FD2
:100AE000911F8534910509F446C30CF01EC1843270
:100AF000910509F4D0C20CF088C08231910509F447
:100B00005AC2E4F58A30910509F407C5ACF4853082
:100B1000910509F4CFC444F48330910509F4E8C485
:100B2000049709F4D7C416C58630910509F4CAC4E0
:100B3000079709F40BC50EC58D30910509F47AC4E9
:100B400044F48B30910509F4DAC40C9709F4C9C454
:100B500001C58E30910509F446C4419709F0FAC4E5
:100B60006091B10081E086278093C6008093B70032
:100B70008093AD0081E190E0F2DCECC48C31910512
:100B800009F474C20CF58631910509F4FBC274F4C2
:100B90008431910509F418C2459709F0DBC490919E
:100BA000B10081E089278093B900D4C48A319105CE
:100BB00009F4DAC24B9709F0CDC49091B10081E0FD
:100BC00089278093C000C6C48132910509F45CC2B4
:100BD00074F48D31910509F4B2C24E9709F0BAC48C
:100BE0009091B10081E089278093C200B3C4823222
:100BF000910509F4ABC2839709F0ACC49091B100A0
:100C000081E089278093C800A5C48433910509F445
:100C100049C20CF047C08C32910509F482C20CF530
:100C20008932910509F41BC274F48532910509F4E7
:100C3000B0C2869709F08EC49091B10081E08927F7
:100C40008093CA0087C48A32910509F471C28B97D8
:100C500009F080C49091B10081E089278093D00091
:100C600079C48133910509F447C274F48D3291053A
:100C700009F450C28E9709F06DC49091B10081E0E3
:100C800089278093DA0066C48233910509F4F5C19F
:100C9000C39709F05FC49091B10081E089278093E8
:100CA000DD0058C48D33910509F47AC20CF58A33FE
:100CB000910509F41AC274F48533910509F44DC203
:100CC000C69709F047C49091B10081E089278093CD
:100CD000DB0040C48B33910509F4F2C1CC9709F0D5
:100CE00039C49091B10081E089278093D40032C447
:100CF0008234910509F4EBC14CF48E33910509F46B
:100D000056C28134910509F49FC224C483349105ED
:100D100009F4CFC18434910509F01CC49091B1004D
:100D200081E089278093C40015C48437910509F4B4
:100D30005AC20CF088C08935910509F43CC1F4F51C
:100D40008D34910509F4DFC1BCF48A34910509F4AE
:100D5000E9C24CF48634910509F430C28934910516
:100D600009F48EC2F7C38B34910509F4B7C18C34F2
:100D7000910509F4A1C2EEC38435910509F4B8C206
:100D80004CF48E34910509F412C38235910509F4AF
:100D90003FC2E0C38535910509F4EDC28835910560
:100DA00009F0D8C36091B10081E086278093C60026
:100DB0008093B70088E590E0D2DBCCC38B369105F9
:100DC00009F40AC2ECF48D35910509F4C7C24CF45C
:100DD0008A35910509F43CC18B35910509F495C21A
:100DE000B9C38636910509F425C18936910509F004
:100DF000B1C39091B10081E089278093BA00AAC362
:100E00008137910509F43CC27CF48C36910509F4D4
:100E1000F1C18037910509F09DC39091B10081E047
:100E200089278093BB0096C38237910509F4CDC111
:100E30008337910509F08EC39091B10081E0892735
:100E40008093DA0087C3843121E0920709F4BCC0A3
:100E50000CF057C08B37910509F4DAC244F5883796
:100E6000910509F461C3A4F48537910509F4C9C15A
:100E70008637910509F06EC36091B10081E0862745
:100E80008093B7008093BE0086E790E068DB62C382
:100E90008937910509F4C5C28A37910509F05AC30B
:100EA0009091B10081E089278093CA0053C38E37A7
:100EB000910509F4D7C27CF48C37910509F49FC2DF
:100EC0008D37910509F046C39091B10081E08927E3
:100ED0008093C3003FC38338910509F417C3813160
:100EE000914009F037C36091B10081E0862780937B
:100EF000C6008093B7008093AD0081E191E02FDBC5
:100F000029C3823751E0950709F470C024F58B3668
:100F100031E0930709F476C054F48A3451E0950720
:100F200009F400C28A35914009F492C013C3803796
:100F300031E0930709F451C08137914009F00AC3A9
:100F40009091B10081E089278093C6008093CF0003
:100F50008093AC00FFC2873751E0950709F49CC22B
:100F6000ACF4843731E0930709F458C085379140D9
:100F700009F0F0C26091B10081E086278093B7004C
:100F80008093D30085E791E0EADAE4C28A3751E042
:100F9000950709F45BC28D37914009F0DBC260917F
:100FA000B10081E086278093B7008093CA008DE767
:100FB00091E0D5DACFC29091B10081E0892780938A
:100FC000B7008093AF00C6C29091B10081E089273D
:100FD0008093C6008093AE00BDC29091B10081E0C5
:100FE00089278093C6008093B800B4C26091B10095
:100FF00081E086278093B7008093DB0082E791E051
:10100000AEDAA8C26091B10081E086278093B70074
:101010008093DA008BE691E0A2DA9CC26091B10085
:1010200081E086278093B7008093CB0084E791E02E
:1010300096DA90C26091B10011E016271093B700C4
:101040001093BB0086E690E08ADA1093AB0082C270
:101050009091B10081E089278093BD007BC290917F
:10106000B10081E089278093BE0074C29091B100E5
:1010700081E089278093B8006DC29091B10081E032
:1010800089278093DE0066C29091B10081E08927B4
:101090008093CF005FC29091B10081E08927809357
:1010A000C90058C29091B10081E089278093D8008F
:1010B00051C29091B10081E089278093CC004AC24F
:1010C0009091B10081E089278093D50043C290912F
:1010D000B10081E089278093CD003CC29091B1009E
:1010E00081E089278093C50035C29091B10081E0ED
:1010F00089278093CE002EC29091B10081E089278C
:101100008093D60027C29091B10081E08927809317
:10111000BC0020C29091B10081E089278093D1006A
:1011200019C29091B10081E089278093D90012C241
:101130009091B10081E089278093D7000BC29091F4
:10114000B10081E089278093C10004C29091B10071
:1011500081E089278093C700FDC19091B10081E0B3
:1011600089278093DC00F6C19091B10081E0892746
:101170008093BF00EFC19091B10081E089278093F7
:10118000BB00E8C19091B10081E089278093BA004B
:10119000E1C19091B10081E089278093D200DAC14A
:1011A0009091B10081E089278093D300D3C19091C1
:1011B000B10081E089278093CB00CCC19091B10030
:1011C00081E089278093C300C5C19091B10081E07F
:1011D00089278093C200BEC19091B10081E0892728
:1011E0008093D200B7C19091B10081E089278093AC
:1011F000DB00B0C19091B10081E089278093D300DA
:10120000A9C19091B10081E089278093CB00A2C150
:101210004091B10021E024272093C6003091AF0017
:10122000332319F085E090E002C08CE190E0FC01EE
:10123000E954FF4F2083442321F01092BC00109208
:10124000D3003093B00086C14091B10021E0242743
:101250002093C6003091AF00332319F08AE190E06B
:1012600002C08FE190E0FC01E954FF4F208344234A
:1012700021F01092D1001092D6003093B0006AC1D4
:101280004091B10021E024272093C6003091AF00A7
:10129000332319F082E290E002C087E190E0FC0184
:1012A000E954FF4F2083442321F01092D90010927B
:1012B000CE003093B0004EC14091B10021E0242710
:1012C0002093C6003091AF00332319F088E090E0FE
:1012D00002C08DE090E0FC01E954FF4F20834423DD
:1012E00021F01092BF001092C4003093B00032C1C0
:1012F0008091B10081112EC18091AF00882311F03F
:1013000089E101C085E2E8D825C18091B100811151
:1013100021C18091AF00882311F081E201C08DE1ED
:10132000DBD818C14091B10021E024272093C600EA
:101330003091AF00332319F088E190E002C080E2E1
:1013400090E0FC01E954FF4F2083442321F01092E8
:10135000CF001092D7003093B000FCC08091B10054
:101360008111F8C08091AF00882311F089E001C09D
:1013700081E1B2D8EFC04091B10021E02427209351
:10138000C6003091AF00332319F086E190E002C02F
:101390008EE090E0FC01E954FF4F2083442321F0CC
:1013A0001092CD001092C5003093B000D3C0409190
:1013B000B10021E024272093C6003091AF003323F1
:1013C00019F084E090E002C08EE190E0FC01E95465
:1013D000FF4F2083442321F01092BB001092D500D0
:1013E0003093B000B7C08091AF009091B1008823D6
:1013F00009F48CC19111AEC081E06ED8ABC0909160
:10140000B10081E089278093C6008093DE00A2C0EE
:101410009091B10081E089278093C6008093D50028
:1014200099C09091B10081E089278093C600809394
:10143000CD0090C06091B10081E086278093B70015
:101440008093CC008DE090E08AD884C06091B10098
:1014500081E086278093B7008093D2008AE791E0ED
:101460007ED878C08091B100882309F473C0909130
:10147000B60081E089278093B600882311F06AE0E6
:1014800001C064E11A821982CE010196EFD88091E1
:10149000B6008093E0005EC08091B100882309F41B
:1014A00059C09091B50081E089278093B500809361
:1014B000EC0050C08091B100882309F44BC080E05B
:1014C000ECD848C08091B100882309F443C081E082
:1014D000E4D840C08091B1008823E1F182E0DDD8FA
:1014E00039C08091B1008823A9F183E0D6D832C0F9
:1014F0008091B100882371F184E0CFD82BC0809116
:10150000B100882339F185E0C8D824C08091B100AA
:10151000882301F186E0C1D81DC08091B1008823E5
:10152000C9F087E0BAD816C08091B100882391F045
:101530001092AE001092AD001092AC001092AF006D
:101540001092AA001092A900B4D704C08091B100F3
:1015500081119FD78091B000882341F08091A9002C
:101560009091AA00892B11F41092B7008091AE00DF
:101570008823B9F08091AD00882399F08091AC0068
:10158000882379F01092AE001092AD001092AC005A
:101590001092AF001092B0001092AA001092A90011
:1015A00088D78091AE00882379F18091AD0088239F
:1015B00059F18091AB00882339F11092AE0010925E
:1015C000AD001092AB001092AF001092B0001092DC
:1015D000AA001092A90088E290E004D711E01093CD
:1015E000DF000BD71093C00008D764EF71E080E0F4
:1015F00090E03BD61092DF0000D764EF71E080E00E
:1016000090E033D61092C0001092B1008091B200E9
:10161000882319F01092B20002C01092B30085E046
:101620006CD521E0892B09F420E02093E30086E0CB
:1016300064D521E0892B09F420E02093E40087E0C1
:101640005CD521E0892B09F420E02093E50088E0B7
:1016500054D521E0892B09F420E02093E60089E0AD
:101660004CD521E0892B09F420E02093E20083E0AF
:1016700044D521E0892B09F420E02093EA0084E09E
:101680003CD521E0892B09F420E02093EB0080E099
:1016900034D5892B09F4FDD6B0D68091EF00909116
:1016A000F000A091F100B091F200A7019601281B73
:1016B000390B4A0B5B0B283C31054105510558F0AD
:1016C00060E08FE042D5C092EF00D092F000E0924F
:1016D000F100F092F2006091B60080E136D51091F1
:1016E000B500612F82E131D5612F83E12ED561E014
:1016F0008091B400811101C060E081E126D580E0D5
:1017000090E0892B09F482C97BD480C981E08927C4
:101710008093C6008093C7001DCFECE8F0E080E521
:10172000808381E081830895E199FECF9FBB8EBBCA
:10173000E09A99278DB30895262FE199FECF9FBB9C
:101740008EBB2DBB0FB6F894E29AE19A0FBE0196BC
:101750000895EE0FFF1F0590F491E02D0994F89481
:02176000FFCFB9
:04176200F101000091
:00000001FF
