:1000000045C0D8C3B0C367C066C065C064C063C024
:1000100062C05FC360C05FC05EC05DC05CC05BC0EB
:100020005AC059C058C000000000370034003100E9
:1000300000000000380035003200000000003600EB
:100040003300300004040404040404040202020225
:100050000202030303030303020203010204081064
:1000600020408001020408102001020408102040F2
:1000700080400000000000000000000405070000B0
:1000800000000000000000000000D70C11241FBE7B
:10009000CFE5D4E0DEBFCDBF10E0A0E6B0E0E6E6FD
:1000A000FAE102C005900D92A436B107D9F721E01C
:1000B000A4E6B0E001C01D92AB31B207E1F710E059
:1000C000C6E4D0E003C02197FE01C5DCC534D107EA
:1000D000D1F797D3C6CC94CF853041F0873049F023
:1000E000843051F48FB58F778FBD08958FB58F7D94
:1000F000FBCF85B58F7D85BD0895CF93DF93282FE6
:1001000030E0F901EE58FF4F8491F901E55AFF4FB5
:10011000D491F901EC5BFF4FC491CC2399F081118C
:10012000DBDFEC2FF0E0EE0FFF1FE65CFF4FA59149
:10013000B491EC91ED2381E090E009F480E0DF914F
:10014000CF91089580E090E0FACF1F93CF93DF9393
:10015000282F30E0F901EE58FF4F8491F901E55A5C
:10016000FF4FD491F901EC5BFF4FC491CC23A1F078
:10017000162F8111B1DFEC2FF0E0EE0FFF1FE05DD5
:10018000FF4FA591B4918FB7F894EC91111108C06D
:10019000D095DE23DC938FBFDF91CF911F9108951F
:1001A000DE2BF8CFCF93DF9390E0FC01E55AFF4FB1
:1001B00024918C5B9F4FFC0184918823D1F090E0C7
:1001C000880F991FFC01EA5DFF4FA591B491FC01D6
:1001D000E05DFF4FC591D491623071F49FB7F89400
:1001E0003C91822F809583238C93E8812E2B28834A
:1001F0009FBFDF91CF9108958FB7F894EC912E2B8C
:100200002C938FBFF6CF3FB7F89480911701909150
:100210001801A0911901B0911A0122B708B600FE89
:1002200005C02F3F19F00196A11DB11D3FBFBA2F88
:10023000A92F982F8827BC01CD01620F711D811D48
:10024000911D42E0660F771F881F991F4A95D1F7CD
:1002500008958F929F92AF92BF92CF92DF92EF92CA
:10026000FF924B015C01CFDF6B017C01CCDF6C198D
:100270007D098E099F09683E734081059105B0F3A1
:1002800021E0821A9108A108B10888EEC80E83E027
:10029000D81EE11CF11C81149104A104B10431F7B2
:1002A000FF90EF90DF90CF90BF90AF909F908F9096
:1002B00008952FB7F8946091130170911401809103
:1002C0001501909116012FBF0895CF92DF92EF9202
:1002D000FF920F931F93CF93809196000EDFC82F4C
:1002E000E8DF0091910010919200209193003091ED
:1002F00094006B017C01C01AD10AE20AF30A97014B
:1003000086010B3F11052105310510F01092900078
:100310006093910070939200809393009093940067
:10032000809190008F5F809390008A3038F4823003
:1003300068F58130F9F01092900020C08A30B9F150
:100340008B30C9F780918E008D3FA8F78091A8006F
:100350008F5F803108F080E09091A900981759F3E1
:10036000E82FF0E090918F00E856FF4F9083809344
:10037000A800E1CF10928F0010928E00CF911F91B4
:100380000F91FF90EF90DF90CF90089580918E00B5
:100390008C0F80938E0080918F0090E095958795CB
:1003A00020E0C11120E8822B80938F00E7CF80915D
:1003B0008E0081708C1719F080938E00DFCF8DEF47
:1003C000FBCF0895EEEBF0E011929F012E5B3040E1
:1003D00028173907CCF30895CF93DF93C82FD62F72
:1003E00090918C0080918D009DB98EB960E08AE07B
:1003F000ACDECFB90000779BFECFCFB1DFB90000F4
:10040000779BFECF8FB161E08AE09FDEC03F19F499
:1004100081E080939700DF91CF9108958F929F9212
:10042000AF92BF92CF92DF92EF92FF920F931F9302
:10043000CF930EEB10E0C0E0C12CD12C7601C39419
:10044000F80190E080E060E0219146015701082E1C
:1004500004C0880C991CAA1CBB1C0A94D2F7222346
:10046000C1F0682901968830910571F7CF5F8C2F14
:10047000B3DF085F1F4FC83019F7CF911F910F915D
:10048000FF90EF90DF90CF90BF90AF909F908F90B4
:10049000089580946821E6CFCF93DF93CEEBD0E030
:1004A00081E08AA7BBDF64EF71E080E090E0D1DEFD
:1004B0001AA6DF91CF91B2CFCF93DF9388E290E07D
:1004C00081DFCEEBD0E081E088A7A8DF64EF71E0A8
:1004D00080E090E0BEDE18A6DF91CF919FCFFF9223
:1004E0000F931F93CF93DF93C82F88E290E06ADFCA
:1004F00095DF64E170E080E090E0ABDE0EEB10E0B1
:10050000FF24F394F801F08289DF64E170E080E079
:1005100090E09FDEF801F78681DF64E170E080E023
:1005200090E097DEF801178679DF64E170E080E003
:1005300090E08FDED0E0C254DF4FF8826FDF64E1DD
:1005400070E080E090E085DEF8011082188266DFBE
:1005500064E170E080E090E0DF91CF911F910F9116
:10056000FF9077CECF92DF92EF92FF920F931F937F
:10057000CF93DF93CDB7DEB7A8970FB6F894DEBF61
:100580000FBECDBF2091AA003091AB00611133C0E6
:1005900012161306A4F4E4E6F0E050E040E0A19166
:1005A000B1918A179B0709F461E04F5F5F4F4217D3
:1005B0005307A9F7611110C02431310569F0F90121
:1005C000EE0FFF1FEC59FF4F918380832F5F3F4F4A
:1005D0003093AB002093AA00A8960FB6F894DEBF24
:1005E0000FBECDBFDF91CF911F910F91FF90EF9084
:1005F000DF90CF900895FE01319648E2DF011D9211
:100600004A95E9F71216130684F504E610E078011E
:1006100050E040E070E060E0D701CD90DD907D01DA
:100620008C159D0549F0DA01AA0FBB1FAE0FBF1F45
:10063000CD92DC924F5F5F4F6F5F7F4F6217730702
:1006400059F74115510589F090E080E021913191F1
:10065000D8012D933D938D01019684179507B1F72D
:100660005093AB004093AA00B7CF50E040E0F8CFE2
:10067000CF93C82F8093B60081E090E0D7D9C817F8
:1006800021F06C2F81E090E0D9D98091B600982FAD
:1006900091709093EE0081FB992790F99093EF0071
:1006A00082FB882780F98093F000CF9105CF1F93BC
:1006B000CF93DF93EC01162FB9D9181731F0612FC2
:1006C000CE01DF91CF911F91B9C9DF91CF911F91D9
:1006D00008951F920F920FB60F9211242F933F93FC
:1006E0008F939F93AF93BF938091130190911401C7
:1006F000A0911501B09116013091120123E0230F52
:100700002D3768F126E8230F0296A11DB11D209315
:1007100012018093130190931401A0931501B093DB
:1007200016018091170190911801A0911901B091C3
:100730001A010196A11DB11D809317019093180114
:10074000A0931901B0931A01BF91AF919F918F911E
:100750003F912F910F900FBE0F901F90189501960B
:10076000A11DB11DD4CF1F920F920FB60F9211246D
:100770002F933F934F935F936F937F938F939F93A9
:10078000AF93BF93EF93FF93E0916200F09163000A
:100790000995FF91EF91BF91AF919F918F917F91BB
:1007A0006F915F914F913F912F910F900FBE0F90DE
:1007B0001F9018951F920F920FB60F9211242F932E
:1007C0003F934F935F936F937F938F939F93AF93D9
:1007D000BF93EF93FF93E0916000F0916100099562
:1007E000FF91EF91BF91AF919F918F917F916F9109
:1007F0005F914F913F912F910F900FBE0F901F90DF
:100800001895789483B7836083BF89B7816089BF67
:1008100082E08EBD8EB581608EBD8FB581608FBD4B
:1008200085B5846085BD85B5806485BD87E886B95A
:100830001AB8CFB7F8948091950081111FC0EEE4EB
:10084000F0E08491E5E6F0E09491E82FF0E0EE0F1F
:10085000FF1FEA5DFF4FA591B491EC91E92319F4D4
:1008600061E08AE072DC61E08AE09CDC6C9A6E9A5E
:1008700061E08DE097DC61E08BE094DC8091950095
:100880008F5F80939500CFBF61E08AE08BDC61E0F1
:100890008AE05BDC61E08EE085DC61E08FE082DC99
:1008A00061E080E17FDC61E081E17CDC61E082E1AC
:1008B00079DC61E083E176DC61E08EE046DC61E0DA
:1008C0008FE043DC60E080E140DC60E081E13DDC22
:1008D00060E082E13ADC60E083E137DC62E082E004
:1008E00061DC62E081E05EDC62E080E05BDC80E4B1
:1008F00090E068DD81E090E099D8C82F8093B60041
:1009000090E080E093D88093B800C83030F0109227
:10091000B60060E081E090E0CADE8091B8008330EC
:1009200030F01092B80060E090E080E0C0DE80918E
:10093000B80061E0811101C060E06093AC00982FC5
:1009400091709093F400869581708093F500609388
:10095000E700C091B6008C2F81708093EE00C1FB40
:10096000882780F98093EF00C2FB882780F9809365
:10097000F00080E1EADB61E0C11101C060E081E1EB
:10098000E4DB81E08093960062E082E00BDC62E0D1
:1009900081E008DC1092A8001092A90085E691E0A1
:1009A000909361008093600085B78C7F826085BFE3
:1009B0008BB780648BBF80919700811104C060E089
:1009C0008FEF0ADDF8CF88E290E0FCDC81E08093D5
:1009D000C5008093E60022DD64EF71E080E090E0E6
:1009E00038DC1092E6001ADD68EC70E080E090E000
:1009F00030DC1092C50012DD60E08FE0A6DB59DC30
:100A00006B017C018091A8009091A900891B87FD52
:100A1000805F882379F18091A8009091A900891BBB
:100A200087FD805F882391F0E091A9008091A80064
:100A3000E81761F0EF5FE03108F0E0E0E093A90033
:100A4000F0E0E856FF4FC081C11101C0CFEFD0E008
:100A5000C0920E01D0920F01E0921001F0921101AC
:100A600061E08FE072DBC03ED10509F008C181E092
:100A70008093B5001EDC00910201109103012091CA
:100A8000040130910501601B710B820B930B6530E3
:100A900071058105910508F087C68091000190914C
:100AA00001012091FE003091FF002817390709F459
:100AB0007AC09C0136952795F1E02F27217020936D
:100AC000EA009C01369527953695279541E0242725
:100AD00021702093EB009C0163E0369527956A9581
:100AE000E1F751E0252721702093EC009C0174E090
:100AF000369527957A95E1F7E1E02E27217020932E
:100B0000ED009C01220F232F221F330B3195F1E0C2
:100B10002F2721702093E900292F20952170209301
:100B2000F1009C01F6E036952795FA95E1F741E052
:100B3000242721702093F2009C01A5E0369527958B
:100B4000AA95E1F751E0252721702093F6009C013A
:100B5000232F33272695E1E02E2721702093F700DD
:100B60009C01232F332726952695F1E02F2721700E
:100B70002093F8009C01232F332726952695269550
:100B800041E0242721702093F9009C01232F332773
:100B900022952F7051E0252721702093FA00909321
:100BA000FF008093FE0080E0A8DA892B09F474DC52
:100BB00035DC80910E0190910F01A0911001B09150
:100BC0001101A7019601281B390B4A0B5B0BDA01B7
:100BD000C901883C9105A105B10558F060E08FE09E
:100BE000B4DAC0920E01D0920F01E0921001F0929F
:100BF00011018091BA009091BB00A091BC00B0910E
:100C0000BD00A7019601281B390B4A0B5B0BDA01CB
:100C1000C901843F9140A105B10570F08091B900F0
:100C200091E089278093B900C092BA00D092BB00AE
:100C3000E092BC00F092BD008091B8006091B900D4
:100C4000823021F061E0811101C060E080E17DDA55
:100C5000C091B7006C2F82E178DA6C2F83E175DAEE
:100C600061E08091B600811101C060E081E16DDA40
:100C700080E090E0892B09F4C2CEC2D9C0CEC13E3B
:100C8000D10531F481E08093B5008093B400F2CEB9
:100C9000C03FD10541F48091B300811104C081E0CF
:100CA0008093B300E7CE8091B500811105C080919B
:100CB000B400882309F48FC080E091E01092B20064
:100CC0008C0F9D1F8534910509F483C20CF0AEC1D1
:100CD0008432910509F4AEC30CF0FEC08231910557
:100CE00009F43FC30CF0B1C08A30910509F43EC548
:100CF0000CF082C08530910509F408C50CF06EC077
:100D00008330910509F41AC5049709F40FC5809141
:100D1000B200882341F08091AA009091AB00892B0A
:100D200011F41092BE008091B0008823B9F0809138
:100D3000AF00882399F08091AE00882379F010925B
:100D4000B0001092AF001092AE001092B10010925D
:100D5000B2001092AB001092AA00AEDB8091B000FE
:100D6000882379F18091AF00882359F18091AD00FB
:100D7000882339F11092B0001092AF001092AD00AC
:100D80001092B1001092B2001092AB001092AA0023
:100D900088E290E017DBC1E0C093E6003FDBC09340
:100DA000C7003CDB64EF71E080E090E052DA109223
:100DB000E60034DB64EF71E080E090E04ADA109204
:100DC000C7001092B3008091B400882309F4E9C4ED
:100DD0001092B4004FCE90E080E070CF8630910545
:100DE00009F49CC4079709F092CF8091B30088233F
:100DF00009F48DCF51DB8BCF8D30910509F433C4CD
:100E00007CF48B30910509F4A1C40C9709F07FCFD5
:100E10008091B300882309F47ACF83E029DC77CF6F
:100E20008E30910509F4F8C3419709F070CF6091B5
:100E3000B30081E086278093CD008093BE0080932D
:100E4000AF0081E190E08EDB62CF8C31910509F437
:100E5000DCC20CF58631910509F4A7C174F4843124
:100E6000910509F487C2459709F051CF8091B300ED
:100E700091E089278093C0004ACF8A31910509F417
:100E800042C34B9709F043CF8091B30091E089278B
:100E90008093C7003CCF8132910509F4C4C274F439
:100EA0008D31910509F41AC34E9709F030CF809126
:100EB000B30091E089278093C90029CF8232910540
:100EC00009F413C3839709F022CF8091B30091E016
:100ED00089278093CF001BCF8433910509F4B1C2D9
:100EE0000CF047C08C32910509F4EAC20CF5893246
:100EF000910509F483C274F48532910509F40AC39B
:100F0000869709F004CF8091B30091E08927809300
:100F1000D100FDCE8A32910509F4D9C28B9709F030
:100F2000F6CE8091B30091E089278093D700EFCE71
:100F30008133910509F4AFC274F48D32910509F43F
:100F4000B8C28E9709F0E3CE8091B30091E0892773
:100F50008093E100DCCE8233910509F45DC2C39732
:100F600009F0D5CE8091B30091E089278093E40009
:100F7000CECE8D33910509F4D4C20CF58A33910598
:100F800009F482C274F48533910509F4B5C2C69799
:100F900009F0BDCE8091B30091E089278093E200F3
:100FA000B6CE8B33910509F45AC2CC9709F0AFCE77
:100FB0008091B30091E089278093DB00A8CE823432
:100FC000910509F453C21CF58E33910509F4B0C2A2
:100FD0008134910509F09BCE4091B30021E0242794
:100FE0002093CD003091B1008AE190E0311102C030
:100FF0008FE190E082549F4FFC012083442321F035
:101000001092D8001092DD003093B20080CE83346D
:10101000910509F41DC28434910509F078CE8091C0
:10102000B30091E089278093CB0071CE843791057E
:1010300009F4B0CF0CF0DDC08935910509F491C1F8
:101040000CF08DC08D34910509F42CC20CF04BC00E
:101050008A34910509F482C21CF58634910509F49D
:1010600003C18934910509F052CE4091B30021E0CB
:1010700024272093CD003091B10082E290E031111D
:1010800002C087E190E082549F4FFC0120834423FB
:1010900021F01092E0001092D5003093B20037CECC
:1010A0008B34910509F4E9C18C34910509F02FCEF8
:1010B0004091B30021E024272093CD003091B1006E
:1010C00088E090E0311102C08DE090E082549F4FA3
:1010D000FC012083442321F01092C6001092CB0023
:1010E0003093B20014CE8435910509F428C21CF562
:1010F0008E34910509F475C28235910509F007CE49
:101100004091B30021E024272093CD003091B1001D
:1011100085E090E0311102C08CE190E082549F4F55
:10112000FC012083442321F01092C3001092DA00C6
:101130003093B200ECCD8535910509F437C288357E
:10114000910509F0E4CD6091B30081E0862780939A
:10115000CD008093BE0088E590E004DAD8CD8B36D0
:10116000910509F4D7C144F58D35910509F411C2F3
:10117000A4F48A35910509F4A9C08B35910509F0CD
:10118000C6CD8091B3008111C2CD8091B10088237A
:1011900009F4E2C181E2A3D9BACD8636910509F4FA
:1011A0001FC18936910509F0B2CD8091B30091E05D
:1011B00089278093C100ABCD8137910509F455CFC4
:1011C0007CF48C36910509F4ACC18037910509F0A7
:1011D0009ECD8091B30091E089278093C20097CD86
:1011E0008237910509F463CE8337910509F4ACCEBB
:1011F0008ECD843121E0920709F4BCC00CF051C0BF
:101200008B37910509F41DC214F58837910509F44F
:10121000B5C2A4F48537910509F48AC186379105D2
:1012200009F075CD6091B30081E086278093BE0000
:101230008093C50086E790E095D969CD89379105FF
:1012400009F408C28A37910509F45DCE60CD8E3766
:10125000910509F420C27CF48C37910509F4E8C1AA
:101260008D37910509F053CD8091B30091E0892726
:101270008093CA004CCD8338910509F46FC2813147
:10128000914009F044CD6091B30081E086278093BE
:10129000CD008093BE008093AF0081E191E062D9E0
:1012A00036CD823751E0950709F476C054F58B3678
:1012B000F1E09F0709F47CC084F48A3431E093079D
:1012C00009F44CC18A35914009F021CD8091B300D9
:1012D00091E089278093C4001ACD803751E09507AB
:1012E00009F451C08137914009F011CD8091B300CC
:1012F00091E089278093CD008093D6008093AE0043
:1013000006CD8737F1E09F0709F4F2C1ACF48437CA
:1013100031E0930709F458C08537914009F0F7CCC4
:101320006091B30081E086278093BE008093DA004D
:1013300085E791E017D9EBCC8A3751E0950709F49E
:101340009EC18D37914009F0E2CC6091B30081E0FD
:1013500086278093BE008093D1008DE791E002D96B
:10136000D6CC8091B30091E089278093BE00809312
:10137000B100CDCC8091B30091E089278093CD005E
:101380008093B000C4CC8091B30091E08927809312
:10139000CD008093BF00BBCC6091B30081E0862775
:1013A0008093BE008093E20082E791E0DBD8AFCC6F
:1013B0006091B30081E086278093BE008093E100B6
:1013C0008BE691E0CFD8A3CC6091B30081E0862773
:1013D0008093BE008093D20084E791E0C3D897CC7D
:1013E0006091B300C1E0C627C093BE00C093C200A5
:1013F00086E690E0B7D8C093AD0089CC8091B30069
:1014000091E089278093C50082CC8091B30091E060
:1014100089278093BF007BCC8091B30091E089271E
:101420008093E50074CC8091B30091E0892780938C
:10143000D6006DCC8091B30091E089278093D000D5
:1014400066CC8091B30091E089278093DF005FCC68
:101450008091B30091E089278093D30058CC80918C
:10146000B30091E089278093DC0051CC8091B300D8
:1014700091E089278093D4004ACC8091B30091E019
:1014800089278093CC0043CC8091B30091E08927D9
:101490008093D5003CCC8091B30091E08927809364
:1014A000DD0035CC8091B30091E089278093C300A3
:1014B0002ECC8091B30091E089278093D80027CC6F
:1014C0008091B30091E089278093E00020CC809147
:1014D000B30091E089278093DE0019CC8091B3009E
:1014E00091E089278093C80012CC8091B30091E0ED
:1014F00089278093CE000BCC8091B30091E089279F
:101500008093E30004CC8091B30091E0892780931D
:10151000C600FDCB8091B30091E089278093D9006C
:10152000F6CB8091B30091E089278093DA00EFCB6E
:101530008091B30091E089278093D200E8CB80911D
:10154000B3008111E4CB8091B100882319F089E1C7
:10155000C6D7DDCB85E2FCCF8DE11DCE4091B30037
:1015600021E024272093CD003091B10088E190E064
:10157000311102C080E290E082549F4FFC01208331
:10158000442321F01092D6001092DE003093B20076
:10159000BECB8091B3008111BACB8091B10088237A
:1015A00019F089E09CD7B3CB81E1FCCF4091B30027
:1015B00021E024272093CD003091B10086E190E016
:1015C000311102C08EE090E082549F4FFC012083D5
:1015D000442321F01092D4001092CC003093B2003A
:1015E00096CB4091B30021E024272093CD00309189
:1015F000B10084E090E0311102C08EE190E08254AD
:101600009F4FFC012083442321F01092C2001092CE
:10161000DC003093B2007BCB8091B3009091B1009D
:10162000992309F4BBC1811172CB81E058D76FCBEC
:101630008091B30091E089278093CD008093E500ED
:1016400066CB8091B30091E089278093CD00809391
:10165000DC005DCB8091B30091E089278093CD00C1
:101660008093D40054CB6091B30081E086278093AF
:10167000BE008093D3008DE090E074D748CB60919A
:10168000B30081E086278093BE008093D9008AE76B
:1016900091E068D73CCB8091B300882309F437CB25
:1016A0008091B80081111DC081E08093B8006091E5
:1016B000B80081E0611101C080E08093AC0090E04F
:1016C00080E0F5D78091B800982F91709093F40046
:1016D000869581708093F5008091AC008093E7003F
:1016E00016CB813011F482E0E0CF1092B800DFCF4A
:1016F0008091B300882309F40ACB8091B70091E070
:1017000089278093B7008093F30001CB8091B300C9
:10171000882309F4FCCA80E0ABD7F9CA8091B300F2
:10172000882309F4F4CA81E0A3D7F1CA8091B300F9
:10173000882309F4ECCA82E09BD7E9CA8091B30000
:10174000882309F4E4CA84E093D7E1CA8091B30006
:10175000882309F4DCCA85E08BD7D9CA8091B3000D
:10176000882309F4D4CA86E083D7D1CA8091B30014
:10177000882309F4CCCA87E07BD7C9CA8091B3001B
:10178000882309F4C4CA1092B0001092AF001092DE
:10179000AE001092B1001092AB001092AA008CD64D
:1017A000B6CA1092B50066C91092010110920001EC
:1017B000C0E06C2F617080910701C7D4D1E0DC0FCD
:1017C000C33009F48BC0A8F4C23009F452C0CD2F45
:1017D000D83079F78091000180FF1092060169D519
:1017E00060930201709303018093040190930501BB
:1017F00054C9C43009F4C3C0C53049F7809106010B
:10180000882309F4D2C08091080177D4892B49F448
:101810008091000190910101986090930101809363
:1018200000018091090169D4892B49F4809100015C
:101830009091010194609093010180930001809147
:101840000A015BD4892B49F4809100019091010138
:101850009260909301018093000180910B014DD41F
:10186000892B09F0A2C08091000190910101906143
:1018700030C080910A0141D4892B31F480910B0151
:101880003CD421E0892B09F020E080910001909167
:101890000101822B909301018093000180FF85C09C
:1018A00080910C012AD4892B49F4809100019091F8
:1018B00001018064909301018093000180910D01EA
:1018C0001CD4892B09F071C0809100019091010115
:1018D0008062909301018093000179CF809108018B
:1018E0000CD4892B49F48091000190910101826010
:1018F000909301018093000180910901FED3892B0F
:1019000049F480910001909101018460909301015C
:101910008093000180910A01F0D3892B49F48091D2
:101920000001909101018860909301018093000172
:1019300080910B01E2D3892B49F4809100019091B1
:1019400001018061909301018093000180910C015D
:10195000D4D3892B49F480910001909101018068D2
:10196000909301018093000180910D01C6D3892BD2
:10197000E1F480910001909101019160AACF8091E2
:101980000801BBD3892B31F480910901B6D321E042
:10199000892B09F020E02093060119CF91E08927D7
:1019A0008093CD008093CE00B2C9CD2F02CFCF93CC
:1019B000DF9384E08093070185E08093080186E04F
:1019C0008093090187E080930A0188E080930B01EE
:1019D00089E080930C0183E080930D0161E084E055
:1019E000E1D361E080910701B0D3C8E0D1E062E0CB
:1019F0008991D8D381E0CE30D807C9F71092010180
:101A0000109200011092060154D460930201709369
:101A10000301809304019093050180E580938C007D
:101A200081E080938D00DF91CF910895E199FECF01
:101A30009FBB8EBBE09A99278DB30895262FE1991D
:101A4000FECF9FBB8EBB2DBB0FB6F894E29AE19AF6
:101A50000FBE01960895EE0FFF1F0590F491E02D43
:061A60000994F894FFCF89
:041A6600E10100009A
:00000001FF
