:1000000045C0D4C3ACC367C066C065C064C063C02C
:1000100062C05BC360C05FC05EC05DC05CC05BC0EF
:100020005AC059C058C000000000370034003100E9
:1000300000000000380035003200000000003600EB
:100040003300300004040404040404040202020225
:100050000202030303030303020203010204081064
:1000600020408001020408102001020408102040F2
:1000700080400000000000000000000405070000B0
:1000800000000000000000000000980B11241FBEBB
:10009000CFE5D4E0DEBFCDBF10E0A0E6B0E0E8E7FA
:1000A000F7E102C005900D92A436B107D9F721E01F
:1000B000A4E6B0E001C01D92AB30B207E1F710E05A
:1000C000C6E4D0E003C02197FE014EDBC534D10762
:1000D000D1F793D34FCB94CF853041F0873049F09F
:1000E000843051F48FB58F778FBD08958FB58F7D94
:1000F000FBCF85B58F7D85BD0895CF93DF93282FE6
:1001000030E0F901EE58FF4F8491F901E55AFF4FB5
:10011000D491F901EC5BFF4FC491CC2399F081118C
:10012000DBDFEC2FF0E0EE0FFF1FE65CFF4FA59149
:10013000B491EC91ED2381E090E009F480E0DF914F
:10014000CF91089580E090E0FACF1F93CF93DF9393
:10015000282F30E0F901EE58FF4F8491F901E55A5C
:10016000FF4FD491F901EC5BFF4FC491CC23A1F078
:10017000162F8111B1DFEC2FF0E0EE0FFF1FE05DD5
:10018000FF4FA591B4918FB7F894EC91111108C06D
:10019000D095DE23DC938FBFDF91CF911F9108951F
:1001A000DE2BF8CFCF93DF9390E0FC01E55AFF4FB1
:1001B00024918C5B9F4FFC0184918823D1F090E0C7
:1001C000880F991FFC01EA5DFF4FA591B491FC01D6
:1001D000E05DFF4FC591D491623071F49FB7F89400
:1001E0003C91822F809583238C93E8812E2B28834A
:1001F0009FBFDF91CF9108958FB7F894EC912E2B8C
:100200002C938FBFF6CF3FB7F89480910701909160
:100210000801A0910901B0910A0122B708B600FEB9
:1002200005C02F3F19F00196A11DB11D3FBFBA2F88
:10023000A92F982F8827BC01CD01620F711D811D48
:10024000911D42E0660F771F881F991F4A95D1F7CD
:1002500008958F929F92AF92BF92CF92DF92EF92CA
:10026000FF924B015C01CFDF6B017C01CCDF6C198D
:100270007D098E099F09683E734081059105B0F3A1
:1002800021E0821A9108A108B10888EEC80E83E027
:10029000D81EE11CF11C81149104A104B10431F7B2
:1002A000FF90EF90DF90CF90BF90AF909F908F9096
:1002B00008950895CF92DF92EF92FF920F931F93CC
:1002C000809196001ADF9FB7F894409103015091F6
:1002D000040160910501709106019FBF009191009A
:1002E0001091920020919300309194006A017B015B
:1002F000C01AD10AE20AF30A970186010B3F1105E1
:100300002105310510F01092900040939100509318
:1003100092006093930070939400909190009F5F7F
:10032000909390009A3038F4923060F59130F9F063
:100330001092900020C09A30A9F19B30C9F78091AB
:100340008E008D3FA8F78091A8008F5F803108F064
:1003500080E09091A900981759F3E82FF0E0909170
:100360008F00E856FF4F90838093A800E1CF109252
:100370008F0010928E001F910F91FF90EF90DF90F1
:10038000CF90089590918E00980F90938E002091B9
:100390008F0030E035952795811180E8282B209338
:1003A0008F00E9CF90918E009170981719F090937B
:1003B0008E00E1CF8DEF80938E00DDCFEEEBF0E08D
:1003C00011929F012E5B304028173907CCF3089516
:1003D000CF93DF93C82FD62F90918C0080918D0002
:1003E0009DB98EB960E08AE0B0DECFB90000779B9E
:1003F000FECFCFB1DFB90000779BFECF8FB161E0B8
:100400008AE0A3DEC03F19F481E080939700DF917A
:10041000CF9108958F929F92AF92BF92CF92DF9229
:10042000EF92FF920F931F93CF930EEB10E0C0E07B
:10043000C12CD12C7601C394F80190E080E060E0FB
:10044000219146015701082E04C0880C991CAA1C52
:10045000BB1C0A94D2F72223C1F068290196883088
:10046000910571F7CF5F8C2FB3DF085F1F4FC83046
:1004700019F7CF911F910F91FF90EF90DF90CF90E0
:10048000BF90AF909F908F90089580946821E6CFA1
:10049000CF93DF93CEEBD0E081E08AA7BBDF64EFA0
:1004A00071E080E090E0D5DE1AA6DF91CF91B2CF67
:1004B000CF93DF9388E290E081DFCEEBD0E081E064
:1004C00088A7A8DF64EF71E080E090E0C2DE18A6A4
:1004D000DF91CF919FCFFF920F931F93CF93DF9325
:1004E000C82F88E290E06ADF95DF64E170E080E089
:1004F00090E0AFDE0EEB10E0FF24F394F801F08201
:1005000089DF64E170E080E090E0A3DEF801F78627
:1005100081DF64E170E080E090E09BDEF801178607
:1005200079DF64E170E080E090E093DED0E0C254D7
:10053000DF4FF8826FDF64E170E080E090E089DEF9
:10054000F8011082188266DF64E170E080E090E0DC
:10055000DF91CF911F910F91FF907BCECF92DF92D1
:10056000EF92FF920F931F93CF93DF93CDB7DEB738
:10057000A8970FB6F894DEBF0FBECDBF2091AA009A
:100580003091AB00611133C012161306A4F4E4E6F7
:10059000F0E050E040E0A191B1918A179B0709F487
:1005A00061E04F5F5F4F42175307A9F7611110C019
:1005B0002431310569F0F901EE0FFF1FEC59FF4FAF
:1005C000918380832F5F3F4F3093AB002093AA002D
:1005D000A8960FB6F894DEBF0FBECDBFDF91CF91C6
:1005E0001F910F91FF90EF90DF90CF900895FE0143
:1005F000319648E2DF011D924A95E9F7121613067B
:1006000084F504E610E0780150E040E070E060E03E
:10061000D701CD90DD907D018C159D0549F0DA0163
:10062000AA0FBB1FAE0FBF1FCD92DC924F5F5F4F73
:100630006F5F7F4F6217730759F74115510589F0B6
:1006400090E080E021913191D8012D933D938D016F
:10065000019684179507B1F75093AB004093AA0019
:10066000B7CF50E040E0F8CFCF93C82F8093B600CB
:1006700081E090E064D8C81721F06C2F81E090E011
:1006800066D88091B600982F91709093EE0081FB10
:10069000992790F99093EF0082FB882780F9809347
:1006A000F000CF9105CF1F93CF93DF93EC01162F6E
:1006B00046D8181731F0612FCE01DF91CF911F91ED
:1006C00046C8DF91CF911F9108951F920F920FB6E8
:1006D0000F9211242F933F938F939F93AF93BF93C8
:1006E0008091030190910401A0910501B091060150
:1006F0003091020123E0230F2D3768F126E8230F04
:100700000296A11DB11D20930201809303019093D5
:100710000401A0930501B093060180910701909117
:100720000801A0910901B0910A010196A11DB11D16
:100730008093070190930801A0930901B0930A01E7
:10074000BF91AF919F918F913F912F910F900FBECD
:100750000F901F9018950196A11DB11DD4CF1F9227
:100760000F920FB60F9211242F933F934F935F93E5
:100770006F937F938F939F93AF93BF93EF93FF9369
:10078000E0916200F09163000995FF91EF91BF91B4
:10079000AF919F918F917F916F915F914F913F9119
:1007A0002F910F900FBE0F901F9018951F920F92D0
:1007B0000FB60F9211242F933F934F935F936F9334
:1007C0007F938F939F93AF93BF93EF93FF93E091AA
:1007D0006000F09161000995FF91EF91BF91AF9199
:1007E0009F918F917F916F915F914F913F912F9149
:1007F0000F900FBE0F901F901895789483B7836069
:1008000083BF89B7816089BF82E08EBD8EB581606C
:100810008EBD8FB581608FBD85B5846085BD85B582
:10082000806485BD87E886B91AB8CFB7F8948091FF
:10083000950081111FC0EEE4F0E08491E5E6F0E060
:100840009491E82FF0E0EE0FFF1FEA5DFF4FA591B6
:10085000B491EC91E92319F461E08AE076DC61E07F
:100860008AE0A0DC6C9A6E9A61E08DE09BDC61E02E
:100870008BE098DC809195008F5F80939500CFBFCF
:1008800061E08AE08FDC61E08AE05FDC61E08EE0BD
:1008900089DC61E08FE086DC61E080E183DC61E09F
:1008A00081E180DC61E082E17DDC61E083E17ADC92
:1008B00062E085E077DC62E086E074DC62E087E09D
:1008C00071DC62E088E06EDC62E089E06BDC62E0B3
:1008D00083E068DC62E084E065DC61E08EE035DCCA
:1008E00061E08FE032DC60E080E12FDC60E081E1FC
:1008F0002CDC60E082E129DC60E083E126DC62E060
:1009000082E050DC62E081E04DDC62E080E04ADCC5
:1009100080E490E053DD81E090E011D7C82F809310
:10092000B60090E080E00BD78093B800C83030F07C
:100930001092B60060E081E090E0B5DE8091B800F2
:10094000833030F01092B80060E090E080E0ABDEE1
:100950008091B80061E0811101C060E06093AC005B
:10096000982F91709093F400869581708093F50094
:100970006093E700C091B6008C2F81708093EE00E9
:10098000C1FB882780F98093EF00C2FB882780F99C
:100990008093F00080E1D9DB61E0C11101C060E02B
:1009A00081E1D3DB81E08093960062E082E0FADBB4
:1009B00062E081E0F7DB1092A8001092A9008AE5BE
:1009C00091E0909361008093600085B78C7F826096
:1009D00085BF8BB780648BBF80919700811104C065
:1009E00060E08FEFF5DCF8CF88E290E0E7DC81E0B3
:1009F0008093C5008093E6000DDD64EF71E080E038
:100A000090E027DC1092E60005DD68EC70E080E005
:100A100090E01FDC1092C500FDDC60E08FE095DB0C
:100A20008FB7F894C0900301D0900401E0900501C5
:100A3000F09006018FBF8091A8009091A900891BBA
:100A400087FD805F882379F18091A8009091A900AB
:100A5000891B87FD805F882391F0E091A900809138
:100A6000A800E81761F0EF5FE03108F0E0E0E09304
:100A7000A900F0E0E856FF4FC081C11101C0CFEFDF
:100A8000D0E0C092FE00D092FF00E0920001F09210
:100A9000010161E08FE059DBC03ED10509F0ACC037
:100AA00081E08093B50085E028DB21E0892B09F403
:100AB00020E02093EA0086E020DB21E0892B09F486
:100AC00020E02093EB0087E018DB21E0892B09F47C
:100AD00020E02093EC0088E010DB21E0892B09F472
:100AE00020E02093ED0089E008DB21E0892B09F468
:100AF00020E02093E90083E000DB21E0892B09F46A
:100B000020E02093F10081E08093F2008093F600D2
:100B10008093F7008093F8008093F9008093FA00A7
:100B200080E0EBDA892B09F4B3DC74DC8091FE0001
:100B30009091FF00A0910001B0910101A7019601E1
:100B4000281B390B4A0B5B0BDA01C901883C910564
:100B5000A105B10558F060E08FE0F7DAC092FE0021
:100B6000D092FF00E0920001F09201018091BA0062
:100B70009091BB00A091BC00B091BD00A70196016F
:100B8000281B390B4A0B5B0BDA01C901843F9140EA
:100B9000A105B10570F08091B90091E0892780939B
:100BA000B900C092BA00D092BB00E092BC00F092B3
:100BB000BD008091B8006091B900823021F061E001
:100BC000811101C060E080E1C0DAC091B7006C2FF4
:100BD00082E1BBDA6C2F83E1B8DA61E08091B60084
:100BE000811101C060E081E1B0DA80E090E0892B02
:100BF00009F416CF05DA14CFC13ED10531F481E0F6
:100C00008093B5008093B4004ECFC03FD10541F42E
:100C10008091B300811104C081E08093B30043CF81
:100C20008091B500811105C08091B400882309F43A
:100C30008FC080E091E01092B2008C0F9D1F853430
:100C4000910509F483C20CF0AEC18432910509F418
:100C5000AEC30CF0FEC08231910509F43FC30CF025
:100C6000B1C08A30910509F43EC50CF082C08530D0
:100C7000910509F408C50CF06EC08330910509F4A4
:100C80001AC5049709F40FC58091B200882341F07A
:100C90008091AA009091AB00892B11F41092BE00B4
:100CA0008091B0008823B9F08091AF00882399F03B
:100CB0008091AE00882379F01092B0001092AF00BE
:100CC0001092AE001092B1001092B2001092AB00E0
:100CD0001092AA00EDDB8091B000882379F1809119
:100CE000AF00882359F18091AD00882339F110922B
:100CF000B0001092AF001092AD001092B1001092AF
:100D0000B2001092AB001092AA0088E290E056DB8D
:100D1000C1E0C093E6007EDBC093C7007BDB64EFDD
:100D200071E080E090E095DA1092E60073DB64EF0A
:100D300071E080E090E08DDA1092C7001092B3006D
:100D40008091B400882309F4E9C41092B400ABCEBA
:100D500090E080E070CF8630910509F49CC407973D
:100D600009F092CF8091B300882309F48DCF90DBF6
:100D70008BCF8D30910509F433C47CF48B30910511
:100D800009F4A1C40C9709F07FCF8091B3008823A8
:100D900009F47ACF83E068DC77CF8E30910509F4CF
:100DA000F8C3419709F070CF6091B30081E08627C6
:100DB0008093CD008093BE008093AF0081E190E0EE
:100DC000CDDB62CF8C31910509F4DCC20CF58631A4
:100DD000910509F4A7C174F48431910509F487C21F
:100DE000459709F051CF8091B30091E08927809316
:100DF000C0004ACF8A31910509F442C34B9709F0EC
:100E000043CF8091B30091E089278093C7003CCF06
:100E10008132910509F4C4C274F48D31910509F44D
:100E20001AC34E9709F030CF8091B30091E0892723
:100E30008093C90029CF8232910509F413C38397A7
:100E400009F022CF8091B30091E089278093CF00F1
:100E50001BCF8433910509F4B1C20CF047C08C322A
:100E6000910509F4EAC20CF58932910509F483C2AF
:100E700074F48532910509F40AC3869709F004CF0A
:100E80008091B30091E089278093D100FDCE8A3212
:100E9000910509F4D9C28B9709F0F6CE8091B30081
:100EA00091E089278093D700EFCE8133910509F433
:100EB000AFC274F48D32910509F4B8C28E9709F06F
:100EC000E3CE8091B30091E089278093E100DCCEEE
:100ED0008233910509F45DC2C39709F0D5CE8091A4
:100EE000B30091E089278093E400CECE8D33910545
:100EF00009F4D4C20CF58A33910509F482C274F462
:100F00008533910509F4B5C2C69709F0BDCE80912D
:100F1000B30091E089278093E200B6CE8B33910530
:100F200009F45AC2CC9709F0AFCE8091B30091E09A
:100F300089278093DB00A8CE8234910509F453C23F
:100F40001CF58E33910509F4B0C28134910509F086
:100F50009BCE4091B30021E024272093CD00309117
:100F6000B1008AE190E0311102C08FE190E082543B
:100F70009F4FFC012083442321F01092D80010924F
:100F8000DD003093B20080CE8334910509F41DC298
:100F90008434910509F078CE8091B30091E08927DF
:100FA0008093CB0071CE8437910509F4B0CF0CF05B
:100FB000DDC08935910509F491C10CF08DC08D34E7
:100FC000910509F42CC20CF04BC08A34910509F448
:100FD00082C21CF58634910509F403C18934910558
:100FE00009F052CE4091B30021E024272093CD0098
:100FF0003091B10082E290E0311102C087E190E0CF
:1010000082549F4FFC012083442321F01092E00082
:101010001092D5003093B20037CE8B34910509F48D
:10102000E9C18C34910509F02FCE4091B30021E045
:1010300024272093CD003091B10088E090E0311159
:1010400002C08DE090E082549F4FFC012083442336
:1010500021F01092C6001092CB003093B20014CE53
:101060008435910509F428C21CF58E34910509F4E4
:1010700075C28235910509F007CE4091B30021E099
:1010800024272093CD003091B10085E090E031110C
:1010900002C08CE190E082549F4FFC0120834423E6
:1010A00021F01092C3001092DA003093B200ECCD20
:1010B0008535910509F437C28835910509F0E4CDED
:1010C0006091B30081E086278093CD008093BE00BD
:1010D00088E590E043DAD8CD8B36910509F4D7C185
:1010E00044F58D35910509F411C2A4F48A359105B2
:1010F00009F4A9C08B35910509F0C6CD8091B300E4
:101100008111C2CD8091B100882309F4E2C181E24E
:10111000E2D9BACD8636910509F41FC18936910509
:1011200009F0B2CD8091B30091E089278093C1008E
:10113000ABCD8137910509F455CF7CF48C36910500
:1011400009F4ACC18037910509F09ECD8091B300C0
:1011500091E089278093C20097CD8237910509F4E9
:1011600063CE8337910509F4ACCE8ECD843121E076
:10117000920709F4BCC00CF051C08B37910509F4FB
:101180001DC214F58837910509F4B5C2A4F485375A
:10119000910509F48AC18637910509F075CD6091F2
:1011A000B30081E086278093BE008093C50086E768
:1011B00090E0D4D969CD8937910509F408C28A37FE
:1011C000910509F45DCE60CD8E37910509F420C2FA
:1011D0007CF48C37910509F4E8C18D37910509F04D
:1011E00053CD8091B30091E089278093CA004CCD04
:1011F0008338910509F46FC28131914009F044CDE3
:101200006091B30081E086278093CD008093BE007B
:101210008093AF0081E191E0A1D936CD823751E0D2
:10122000950709F476C054F58B36F1E09F0709F471
:101230007CC084F48A3431E0930709F44CC18A35C8
:10124000914009F021CD8091B30091E089278093EE
:10125000C4001ACD803751E0950709F451C0813799
:10126000914009F011CD8091B30091E089278093DE
:10127000CD008093D6008093AE0006CD8737F1E095
:101280009F0709F4F2C1ACF4843731E0930709F405
:1012900058C08537914009F0F7CC6091B30081E0E8
:1012A00086278093BE008093DA0085E791E056D9C7
:1012B000EBCC8A3751E0950709F49EC18D379140F8
:1012C00009F0E2CC6091B30081E086278093BE00F4
:1012D0008093D1008DE791E041D9D6CC8091B300C5
:1012E00091E089278093BE008093B100CDCC80919E
:1012F000B30091E089278093CD008093B000C4CCE7
:101300008091B30091E089278093CD008093BF0046
:10131000BBCC6091B30081E086278093BE008093B0
:10132000E20082E791E01AD9AFCC6091B30081E08E
:1013300086278093BE008093E1008BE691E00ED972
:10134000A3CC6091B30081E086278093BE00809398
:10135000D20084E791E002D997CC6091B300C1E05C
:10136000C627C093BE00C093C20086E690E0F6D8C0
:10137000C093AD0089CC8091B30091E08927809320
:10138000C50082CC8091B30091E089278093BF0093
:101390007BCC8091B30091E089278093E50074CCE9
:1013A0008091B30091E089278093D6006DCC809125
:1013B000B30091E089278093D00066CC8091B30080
:1013C00091E089278093DF005FCC8091B30091E0AA
:1013D00089278093D30058CC8091B30091E089276E
:1013E0008093DC0051CC8091B30091E089278093F9
:1013F000D4004ACC8091B30091E089278093CC003F
:1014000043CC8091B30091E089278093D5003CCCF8
:101410008091B30091E089278093DD0035CC8091E5
:10142000B30091E089278093C3002ECC8091B30054
:1014300091E089278093D80027CC8091B30091E078
:1014400089278093E00020CC8091B30091E0892728
:101450008093DE0019CC8091B30091E089278093BE
:10146000C80012CC8091B30091E089278093CE0010
:101470000BCC8091B30091E089278093E30004CCEA
:101480008091B30091E089278093C600FDCB8091C5
:10149000B30091E089278093D900F6CB8091B30007
:1014A00091E089278093DA00EFCB8091B30091E03F
:1014B00089278093D200E8CB8091B3008111E4CBDF
:1014C0008091B100882319F089E105D8DDCB85E250
:1014D000FCCF8DE11DCE4091B30021E02427209365
:1014E000CD003091B10088E190E0311102C080E27E
:1014F00090E082549F4FFC012083442321F01092FE
:10150000D6001092DE003093B200BECB8091B300C3
:101510008111BACB8091B100882319F089E0DBD723
:10152000B3CB81E1FCCF4091B30021E0242720938D
:10153000CD003091B10086E190E0311102C08EE023
:1015400090E082549F4FFC012083442321F01092AD
:10155000D4001092CC003093B20096CB4091B300EF
:1015600021E024272093CD003091B10084E090E069
:10157000311102C08EE190E082549F4FFC01208324
:10158000442321F01092C2001092DC003093B2008C
:101590007BCB8091B3009091B100992309F4C1C035
:1015A000811172CB81E097D76FCB8091B30091E02E
:1015B00089278093CD008093E50066CB8091B300AE
:1015C00091E089278093CD008093DC005DCB8091F2
:1015D000B30091E089278093CD008093D40054CB51
:1015E0006091B30081E086278093BE008093D30092
:1015F0008DE090E0B3D748CB6091B30081E08627BF
:101600008093BE008093D9008AE791E0A7D73CCBB6
:101610008091B300882309F437CB8091B800811101
:101620001DC081E08093B8006091B80081E0611135
:1016300001C080E08093AC0090E080E034D88091DD
:10164000B800982F91709093F400869581708093E4
:10165000F5008091AC008093E70016CB813011F447
:1016600082E0E0CF1092B800DFCF8091B3008823F2
:1016700009F40ACB8091B70091E089278093B700E5
:101680008093F30001CB8091B300882309F4FCCA56
:1016900080E0EAD7F9CA8091B300882309F4F4CA3C
:1016A00081E0E2D7F1CA8091B300882309F4ECCA43
:1016B00082E0DAD7E9CA8091B300882309F4E4CA4A
:1016C00084E0D2D7E1CA8091B300882309F4DCCA50
:1016D00085E0CAD7D9CA8091B300882309F4D4CA57
:1016E00086E0C2D7D1CA8091B300882309F4CCCA5E
:1016F00087E0BAD7C9CA8091B300882309F4C4CA65
:101700001092B0001092AF001092AE001092B10093
:101710001092AB001092AA00CBD6B6CA1092B500B8
:10172000C2C991E089278093CD008093CE00ACCAD6
:10173000ECE8F0E080E5808381E081830895E19921
:10174000FECF9FBB8EBBE09A99278DB30895262FBD
:10175000E199FECF9FBB8EBB2DBB0FB6F894E29AEA
:10176000E19A0FBE01960895EE0FFF1F0590F491C8
:08177000E02D0994F894FFCF6D
:041778005901000013
:00000001FF
