:1000000045C0C4C39CC367C066C065C064C063C04C
:1000100062C04BC360C05FC05EC05DC05CC05BC0FF
:100020005AC059C058C000000000370034003100E9
:1000300000000000380035003200000000003600EB
:100040003300300004040404040404040202020225
:100050000202030303030303020203010204081064
:1000600020408001020408102001020408102040F2
:1000700080400000000000000000000405070000B0
:1000800000000000000000000000770C11241FBEDB
:10009000CFE5D4E0DEBFCDBF10E0A0E6B0E0E6EAF9
:1000A000F9E102C005900D92A436B107D9F721E01D
:1000B000A4E6B0E001C01D92A231B207E1F710E062
:1000C000C6E4D0E003C02197FE0165DCC534D1074A
:1000D000D1F783D366CC94CF853041F0873049F097
:1000E000843051F48FB58F778FBD08958FB58F7D94
:1000F000FBCF85B58F7D85BD0895CF93DF93282FE6
:1001000030E0F901EE58FF4F8491F901E55AFF4FB5
:10011000D491F901EC5BFF4FC491CC2399F081118C
:10012000DBDFEC2FF0E0EE0FFF1FE65CFF4FA59149
:10013000B491EC91ED2381E090E009F480E0DF914F
:10014000CF91089580E090E0FACF1F93CF93DF9393
:10015000282F30E0F901EE58FF4F8491F901E55A5C
:10016000FF4FD491F901EC5BFF4FC491CC23A1F078
:10017000162F8111B1DFEC2FF0E0EE0FFF1FE05DD5
:10018000FF4FA591B4918FB7F894EC91111108C06D
:10019000D095DE23DC938FBFDF91CF911F9108951F
:1001A000DE2BF8CFCF93DF9390E0FC01E55AFF4FB1
:1001B00024918C5B9F4FFC0184918823D1F090E0C7
:1001C000880F991FFC01EA5DFF4FA591B491FC01D6
:1001D000E05DFF4FC591D491623071F49FB7F89400
:1001E0003C91822F809583238C93E8812E2B28834A
:1001F0009FBFDF91CF9108958FB7F894EC912E2B8C
:100200002C938FBFF6CF3FB7F89480910E01909159
:100210000F01A0911001B091110122B708B600FEA4
:1002200005C02F3F19F00196A11DB11D3FBFBA2F88
:10023000A92F982F8827BC01CD01620F711D811D48
:10024000911D42E0660F771F881F991F4A95D1F7CD
:1002500008958F929F92AF92BF92CF92DF92EF92CA
:10026000FF924B015C01CFDF6B017C01CCDF6C198D
:100270007D098E099F09683E734081059105B0F3A1
:1002800021E0821A9108A108B10888EEC80E83E027
:10029000D81EE11CF11C81149104A104B10431F7B2
:1002A000FF90EF90DF90CF90BF90AF909F908F9096
:1002B00008952FB7F89460910A0170910B01809115
:1002C0000C0190910D012FBF0895CF92DF92EF9214
:1002D000FF920F931F93CF93809196000EDFC82F4C
:1002E000E8DF0091910010919200209193003091ED
:1002F00094006B017C01C01AD10AE20AF30A97014B
:1003000086010B3F11052105310510F01092900078
:100310006093910070939200809393009093940067
:10032000809190008F5F809390008A3038F4823003
:1003300068F58130F9F01092900020C08A30B9F150
:100340008B30C9F780918E008D3FA8F78091A70070
:100350008F5F803108F080E09091A800981759F3E2
:10036000E82FF0E090918F00E956FF4F9083809343
:10037000A700E1CF10928F0010928E00CF911F91B5
:100380000F91FF90EF90DF90CF90089580918E00B5
:100390008C0F80938E0080918F0090E095958795CB
:1003A00020E0C11120E8822B80938F00E7CF80915D
:1003B0008E0081708C1719F080938E00DFCF8DEF47
:1003C000FBCF0895EDEBF0E011929F012D5B3040E3
:1003D00028173907CCF30895CF92DF92EF92FF925E
:1003E0000F931F93CF93DF930DEB10E0D0E0C12C60
:1003F000D12C7601C394F80190E080E0C0E0219117
:10040000B701A601082E04C0440F551F661F771FB1
:100410000A94D2F7222349F1C42B01968830910522
:1004200071F7DF5F90918C0080918D009DB98EB93E
:1004300060E08AE08ADEDFB90000779BFECF8FB1F3
:10044000CFB90000779BFECF8FB161E08AE07DDEFF
:10045000085F1F4FD73079F6DF91CF911F910F9131
:10046000FF90EF90DF90CF9008954095C423D5CFB3
:10047000CF93DF93CDEBD0E081E08AA7ADDF64EFCF
:1004800071E080E090E0E5DE1AA6DF91CF91A4CF85
:10049000CF93DF9388E290E095DFCDEBD0E081E071
:1004A00088A79ADF64EF71E080E090E0D2DE18A6C2
:1004B000DF91CF9191CFFF920F931F93CF93DF9353
:1004C000C82F88E290E07EDF87DF64E170E080E0A3
:1004D00090E0BFDE0DEB10E0FF24F394F801F08212
:1004E0007BDF64E170E080E090E0B3DEF801F78646
:1004F00073DF64E170E080E090E0ABDEF801178626
:100500006BDF64E170E080E090E0A3DED0E0C354F4
:10051000DF4FF88261DF64E170E080E090E099DE17
:10052000F8011082188258DF64E170E080E090E00A
:10053000DF91CF911F910F91FF908BCECF92DF92E1
:10054000EF92FF920F931F93CF93DF93CDB7DEB758
:10055000A8970FB6F894DEBF0FBECDBF2091A900BB
:100560003091AA00611133C012161306A4F4E4E618
:10057000F0E050E040E0A191B1918A179B0709F4A7
:1005800061E04F5F5F4F42175307A9F7611110C039
:100590002431310569F0F901EE0FFF1FEC59FF4FCF
:1005A000918380832F5F3F4F3093AA002093A9004F
:1005B000A8960FB6F894DEBF0FBECDBFDF91CF91E6
:1005C0001F910F91FF90EF90DF90CF900895FE0163
:1005D000319648E2DF011D924A95E9F7121613069B
:1005E00084F504E610E0780150E040E070E060E05F
:1005F000D701CD90DD907D018C159D0549F0DA0184
:10060000AA0FBB1FAE0FBF1FCD92DC924F5F5F4F93
:100610006F5F7F4F6217730759F74115510589F0D6
:1006200090E080E021913191D8012D933D938D018F
:10063000019684179507B1F75093AA004093A9003B
:10064000B7CF50E040E0F8CFCF93C82F8093B500EC
:1006500081E090E08BD9C81721F06C2F81E090E009
:100660008DD98091B500982F91709093ED0081FB0A
:10067000992790F99093EE0082FB882780F9809368
:10068000EF00CF9105CF1F93CF93DF93EC01162F8F
:100690006DD9181731F0612FCE01DF91CF911F91E5
:1006A0006DC9DF91CF911F9108951F920F920FB6E0
:1006B0000F9211242F933F938F939F93AF93BF93E8
:1006C00080910A0190910B01A0910C01B0910D0154
:1006D0003091090123E0230F2D3768F126E8230F1D
:1006E0000296A11DB11D2093090180930A019093E8
:1006F0000B01A0930C01B0930D0180910E0190911C
:100700000F01A0911001B09111010196A11DB11D21
:1007100080930E0190930F01A0931001B0931101EB
:10072000BF91AF919F918F913F912F910F900FBEED
:100730000F901F9018950196A11DB11DD4CF1F9247
:100740000F920FB60F9211242F933F934F935F9305
:100750006F937F938F939F93AF93BF93EF93FF9389
:10076000E0916200F09163000995FF91EF91BF91D4
:10077000AF919F918F917F916F915F914F913F9139
:100780002F910F900FBE0F901F9018951F920F92F0
:100790000FB60F9211242F933F934F935F936F9354
:1007A0007F938F939F93AF93BF93EF93FF93E091CA
:1007B0006000F09161000995FF91EF91BF91AF91B9
:1007C0009F918F917F916F915F914F913F912F9169
:1007D0000F900FBE0F901F901895789483B7836089
:1007E00083BF89B7816089BF82E08EBD8EB581608D
:1007F0008EBD8FB581608FBD85B5846085BD85B5A3
:10080000806485BD87E886B91AB8CFB7F89480911F
:10081000950081111FC0EEE4F0E08491E5E6F0E080
:100820009491E82FF0E0EE0FFF1FEA5DFF4FA591D6
:10083000B491EC91E92319F461E08AE086DC61E08F
:100840008AE0B0DC6C9A6E9A61E08DE0ABDC61E02E
:100850008BE0A8DC809195008F5F80939500CFBFDF
:1008600061E08AE09FDC61E08AE06FDC61E08EE0BD
:1008700099DC61E08FE096DC61E080E193DC61E08F
:1008800081E190DC61E082E18DDC61E083E18ADC82
:1008900061E08EE05ADC61E08FE057DC60E080E1EF
:1008A00054DC60E081E151DC60E082E14EDC60E03C
:1008B00083E14BDC62E082E075DC62E081E072DCC7
:1008C00062E080E06FDC88E390E07CDD81E090E036
:1008D0004DD8C82F8093B50090E080E047D8809332
:1008E000B700C83030F01092B50060E081E090E0D1
:1008F000CADE8091B700833030F01092B70060E01C
:1009000090E080E0C0DE8091B70061E0811101C01D
:1009100060E06093AB00982F91709093F300869500
:1009200081708093F4006093E600C091B5008C2F35
:1009300081708093ED00C1FB882780F98093EE00E1
:10094000C2FB882780F98093EF0080E1FEDB61E045
:10095000C11101C060E081E1F8DB60ED77E080E08B
:1009600090E077DC95DD81E08093960062E082E0A4
:1009700019DC62E081E016DC1092A7001092A8005A
:1009800085E691E0909361008093600085B78C7F4D
:10099000826085BF8BB780648BBF60E08FE0D5DB62
:1009A00088DC6B017C018091A7009091A800891BD5
:1009B00087FD805F882379F18091A7009091A8003E
:1009C000891B87FD805F882391F0E091A8008091CA
:1009D000A700E81761F0EF5FE03108F0E0E0E09396
:1009E000A800F0E0E956FF4FC081C11101C0CFEF70
:1009F000D0E0C0920501D0920601E0920701F0928A
:100A0000080161E08FE0A1DBC03ED10509F0D5C04F
:100A100081E08093B4004DDC0091F9001091FA0060
:100A20002091FB003091FC00601B710B820B930B3B
:100A3000653071058105910508F054C68091F70075
:100A40009091F8002091F5003091F60028173907B1
:100A500009F447C09C0136952795F1E02F272170B6
:100A60002093E9009C01369527953695279541E01E
:100A7000242721702093EA009C0163E03695279596
:100A80006A95E1F751E0252721702093EB009C0146
:100A900074E0369527957A95E1F7E1E02E272170ED
:100AA0002093EC009C01220F232F221F330B319542
:100AB000F1E02F2721702093E800292F2095217045
:100AC0002093F0009C01F6E036952795FA95E1F722
:100AD00041E0242721702093F1009093F600809349
:100AE000F50080E00ADB892B09F4C2DC75DC80911B
:100AF000050190910601A0910701B0910801A7019D
:100B00009601281B390B4A0B5B0BDA01C901883CA3
:100B10009105A105B10558F060E08FE016DBC092A9
:100B20000501D0920601E0920701F0920801809140
:100B3000B9009091BA00A091BB00B091BC00A70190
:100B40009601281B390B4A0B5B0BDA01C901843F64
:100B50009140A105B10570F08091B80091E089271E
:100B60008093B800C092B900D092BA00E092BB0066
:100B7000F092BC008091B7006091B800823021F003
:100B800061E0811101C060E080E1DFDAC091B60070
:100B90006C2F82E1DADA6C2F83E1D7DA61E08091A1
:100BA000B500811101C060E081E1CFDA80E090E022
:100BB000892B09F4F5CE24DAF3CEC13ED10531F408
:100BC00081E08093B4008093B30025CFC03FD1056E
:100BD00041F48091B200811104C081E08093B200A1
:100BE0001ACF8091B400811105C08091B300882391
:100BF00009F48FC080E091E01092B1008C0F9D1F2E
:100C00008534910509F483C20CF0AEC1843291059C
:100C100009F4AEC30CF0FEC08231910509F43FC364
:100C20000CF0B1C08A30910509F43EC50CF082C0C9
:100C30008530910509F408C50CF06EC0833091052C
:100C400009F41AC5049709F40FC58091B1008823EF
:100C500041F08091A9009091AA00892B11F4109283
:100C6000BD008091AF008823B9F08091AE00882349
:100C700099F08091AD00882379F01092AF00109226
:100C8000AE001092AD001092B0001092B100109220
:100C9000AA001092A900FCDB8091AF00882379F1B3
:100CA0008091AE00882359F18091AC00882339F1FE
:100CB0001092AF001092AE001092AC001092B000F3
:100CC0001092B1001092AA001092A90088E290E060
:100CD00079DBC1E0C093E5007FDBC093C6007CDB1D
:100CE00064EF71E080E090E0B4DA1092E50074DB2C
:100CF00064EF71E080E090E0ACDA1092C6001092F0
:100D0000B2008091B300882309F4E9C41092B300C3
:100D100082CE90E080E070CF8630910509F49CC4CB
:100D2000079709F092CF8091B200882309F48DCF04
:100D30009FDB8BCF8D30910509F433C47CF48B306D
:100D4000910509F4A1C40C9709F07FCF8091B200FE
:100D5000882309F47ACF83E077DC77CF8E30910552
:100D600009F4F8C3419709F070CF6091B20081E0B7
:100D700086278093CC008093BD008093AE0081E1F4
:100D800090E0DCDB62CF8C31910509F4DCC20CF51C
:100D90008631910509F4A7C174F48431910509F4F1
:100DA00087C2459709F051CF8091B20091E0892721
:100DB0008093BF004ACF8A31910509F442C34B9713
:100DC00009F043CF8091B20091E089278093C6005B
:100DD0003CCF8132910509F4C4C274F48D31910580
:100DE00009F41AC34E9709F030CF8091B20091E018
:100DF00089278093C80029CF8232910509F413C353
:100E0000839709F022CF8091B20091E089278093E7
:100E1000CE001BCF8433910509F4B1C20CF047C05A
:100E20008C32910509F4EAC20CF58932910509F476
:100E300083C274F48532910509F40AC3869709F0D8
:100E400004CF8091B20091E089278093D000FDCE3D
:100E50008A32910509F4D9C28B9709F0F6CE8091B8
:100E6000B20091E089278093D600EFCE81339105BF
:100E700009F4AFC274F48D32910509F4B8C28E97AB
:100E800009F0E3CE8091B20091E089278093E000E1
:100E9000DCCE8233910509F45DC2C39709F0D5CE4B
:100EA0008091B20091E089278093E300CECE8D330C
:100EB000910509F4D4C20CF58A33910509F482C274
:100EC00074F48533910509F4B5C2C69709F0BDCE17
:100ED0008091B20091E089278093E100B6CE8B33F8
:100EE000910509F45AC2CC9709F0AFCE8091B200B7
:100EF00091E089278093DA00A8CE8234910509F425
:100F000053C21CF58E33910509F4B0C281349105AA
:100F100009F09BCE4091B20021E024272093CC0021
:100F20003091B0008AE190E0311102C08FE190E091
:100F300083549F4FFC012083442321F01092D7005B
:100F40001092DC003093B10080CE8334910509F417
:100F50001DC28434910509F078CE8091B20091E0F1
:100F600089278093CA0071CE8437910509F4B0CFE8
:100F70000CF0DDC08935910509F491C10CF08DC0EC
:100F80008D34910509F42CC20CF04BC08A349105C4
:100F900009F482C21CF58634910509F403C1893431
:100FA000910509F052CE4091B20021E02427209310
:100FB000CC003091B00082E290E0311102C087E1B4
:100FC00090E083549F4FFC012083442321F0109232
:100FD000DF001092D4003093B10037CE8B349105EE
:100FE00009F4E9C18C34910509F02FCE4091B2008B
:100FF00021E024272093CC003091B00088E090E0DD
:10100000311102C08DE090E083549F4FFC0120839A
:10101000442321F01092C5001092CA003093B10011
:1010200014CE8435910509F428C21CF58E3491053F
:1010300009F475C28235910509F007CE4091B200DE
:1010400021E024272093CC003091B00085E090E08F
:10105000311102C08CE190E083549F4FFC0120834A
:10106000442321F01092C2001092D9003093B100B5
:10107000ECCD8535910509F437C28835910509F025
:10108000E4CD6091B20081E086278093CC0080930C
:10109000BD0088E590E052DAD8CD8B36910509F491
:1010A000D7C144F58D35910509F411C2A4F48A35F0
:1010B000910509F4A9C08B35910509F0C6CD809141
:1010C000B2008111C2CD8091B000882309F4E2C141
:1010D00081E2F1D9BACD8636910509F41FC189366E
:1010E000910509F0B2CD8091B20091E089278093FB
:1010F000C000ABCD8137910509F455CF7CF48C3617
:10110000910509F4ACC18037910509F09ECD80911D
:10111000B20091E089278093C10097CD8237910575
:1011200009F463CE8337910509F4ACCE8ECD8431BA
:1011300021E0920709F4BCC00CF051C08B37910537
:1011400009F41DC214F58837910509F4B5C2A4F459
:101150008537910509F48AC18637910509F075CD67
:101160006091B20081E086278093BD008093C40027
:1011700086E790E0E3D969CD8937910509F408C283
:101180008A37910509F45DCE60CD8E37910509F45B
:1011900020C27CF48C37910509F4E8C18D379105A4
:1011A00009F053CD8091B20091E089278093C90066
:1011B0004CCD8338910509F46FC28131914009F01B
:1011C00044CD6091B20081E086278093CC0080936B
:1011D000BD008093AE0081E191E0B0D936CD823779
:1011E00051E0950709F476C054F58B36F1E09F077E
:1011F00009F47CC084F48A3431E0930709F44CC1CB
:101200008A35914009F021CD8091B20091E0892783
:101210008093C3001ACD803751E0950709F451C07F
:101220008137914009F011CD8091B20091E089277A
:101230008093CC008093D5008093AD0006CD873796
:10124000F1E09F0709F4F2C1ACF4843731E0930771
:1012500009F458C08537914009F0F7CC6091B2008D
:1012600081E086278093BD008093D90085E791E0D7
:1012700065D9EBCC8A3751E0950709F49EC18D37CB
:10128000914009F0E2CC6091B20081E08627809322
:10129000BD008093D0008DE791E050D9D6CC8091ED
:1012A000B20091E089278093BD008093B000CDCC3F
:1012B0008091B20091E089278093CC008093AF00A9
:1012C000C4CC8091B20091E089278093CC008093B8
:1012D000BE00BBCC6091B20081E086278093BD0048
:1012E0008093E10082E791E029D9AFCC6091B20010
:1012F00081E086278093BD008093E0008BE691E03B
:101300001DD9A3CC6091B20081E086278093BD00F7
:101310008093D10084E791E011D997CC6091B2001D
:10132000C1E0C627C093BD00C093C10086E690E02F
:1013300005D9C093AC0089CC8091B20091E0892797
:101340008093C40082CC8091B20091E08927809381
:10135000BE007BCC8091B20091E089278093E400AD
:1013600074CC8091B20091E089278093D5006DCC38
:101370008091B20091E089278093CF0066CC809164
:10138000B20091E089278093DE005FCC8091B200AB
:1013900091E089278093D20058CC8091B20091E0EF
:1013A00089278093DB0051CC8091B20091E089279E
:1013B0008093D3004ACC8091B20091E0892780933A
:1013C000CB0043CC8091B20091E089278093D40078
:1013D0003CCC8091B20091E089278093DC0035CC31
:1013E0008091B20091E089278093C2002ECC809139
:1013F000B20091E089278093D70027CC8091B2007A
:1014000091E089278093DF0020CC8091B20091E0A9
:1014100089278093DD0019CC8091B20091E0892763
:101420008093C70012CC8091B20091E0892780930D
:10143000CD000BCC8091B20091E089278093E2002F
:1014400004CC8091B20091E089278093C500FDCB48
:101450008091B20091E089278093D800F6CB8091EB
:10146000B20091E089278093D900EFCB8091B20040
:1014700091E089278093D100E8CB8091B20081115F
:10148000E4CB8091B000882319F089E114D8DDCB3A
:1014900085E2FCCF8DE11DCE4091B20021E02427F2
:1014A0002093CC003091B00088E190E0311102C06F
:1014B00080E290E083549F4FFC012083442321F07D
:1014C0001092D5001092DD003093B100BECB809118
:1014D000B2008111BACB8091B000882319F089E065
:1014E000EAD7B3CB81E1FCCF4091B20021E02427C1
:1014F0002093CC003091B00086E190E0311102C021
:101500008EE090E083549F4FFC012083442321F020
:101510001092D3001092CB003093B10096CB409143
:10152000B20021E024272093CC003091B00084E069
:1015300090E0311102C08EE190E083549F4FFC0196
:101540002083442321F01092C1001092DB003093DD
:10155000B1007BCB8091B2009091B000992309F447
:10156000BDC1811172CB81E0A6D76FCB8091B20053
:1015700091E089278093CC008093E40066CB809132
:10158000B20091E089278093CC008093DB005DCB93
:101590008091B20091E089278093CC008093D300A2
:1015A00054CB6091B20081E086278093BD00809388
:1015B000D2008DE090E0C2D748CB6091B20081E0CC
:1015C00086278093BD008093D8008AE791E0B6D744
:1015D0003CCB8091B200882309F437CB8091B700CF
:1015E00081111DC081E08093B7006091B70081E058
:1015F000611101C080E08093AB0090E080E043D8AF
:101600008091B700982F91709093F3008695817028
:101610008093F4008091AB008093E60016CB81307C
:1016200011F482E0E0CF1092B700DFCF8091B200DA
:10163000882309F40ACB8091B60091E08927809332
:10164000B6008093F20001CB8091B200882309F4A8
:10165000FCCA80E0F9D7F9CA8091B200882309F466
:10166000F4CA81E0F1D7F1CA8091B200882309F46D
:10167000ECCA82E0E9D7E9CA8091B200882309F474
:10168000E4CA84E0E1D7E1CA8091B200882309F47A
:10169000DCCA85E0D9D7D9CA8091B200882309F481
:1016A000D4CA86E0D1D7D1CA8091B200882309F488
:1016B000CCCA87E0C9D7C9CA8091B200882309F48F
:1016C000C4CA1092AF001092AE001092AD001092FA
:1016D000B0001092AA001092A900DAD6B6CA1092F1
:1016E000B40099C9F8941092F8001092F700C0E085
:1016F0006C2F61708091FE0028D5D1E0DC0FC330E3
:1017000009F48CC0B0F4C23009F453C0CD2FD830E6
:1017100079F78091F70080FF1092FD007894C9D589
:101720006093F9007093FA008093FB009093FC00A3
:1017300085C9C43009F4C3C0C53041F78091FD00AC
:10174000882309F4D2C08091FF00D7D4892B49F4B3
:101750008091F7009091F80098609093F800809342
:10176000F70080910001C9D4892B49F48091F700DA
:101770009091F80094609093F8008093F700809126
:101780000101BBD4892B49F48091F7009091F800B6
:1017900092609093F8008093F70080910201ADD49D
:1017A000892B09F0A2C08091F7009091F800906118
:1017B00030C080910101A1D4892B31F480910201C4
:1017C0009CD421E0892B09F020E08091F7009091D2
:1017D000F800822B9093F8008093F70080FF85C07B
:1017E000809103018AD4892B49F48091F70090916C
:1017F000F80080649093F8008093F70080910401D2
:101800007CD4892B09F071C08091F7009091F80089
:1018100080629093F8008093F70078CF8091FF006A
:101820006CD4892B49F48091F7009091F800826084
:101830009093F8008093F700809100015ED4892B8B
:1018400049F48091F7009091F80084609093F8003B
:101850008093F7008091010150D4892B49F4809145
:10186000F7009091F80088609093F8008093F7005B
:101870008091020142D4892B49F48091F700909124
:10188000F80080619093F8008093F7008091030145
:1018900034D4892B49F48091F7009091F800806846
:1018A0009093F8008093F7008091040126D4892B4F
:1018B000E1F48091F7009091F8009160AACF8091B7
:1018C000FF001BD4892B31F48091000116D421E054
:1018D000892B09F020E02093FD0018CF91E08927A3
:1018E0008093CC008093CD00B0C9CD2F01CFCF9392
:1018F000DF9384E08093FE0085E08093FF0086E024
:101900008093000187E08093010188E080930201C9
:1019100089E08093030183E08093040161E084E027
:1019200041D461E08091FE0010D4CFEFD0E062E0BE
:10193000899138D481E0C530D807C9F71092F800F2
:101940001092F7001092FD00B4D46093F9007093E8
:10195000FA008093FB009093FC0080E580938C005C
:1019600081E080938D00DF91CF910895E199FECFC2
:101970009FBB8EBBE09A99278DB30895262FE199DE
:10198000FECF9FBB8EBB2DBB0FB6F894E29AE19AB7
:101990000FBE01960895EE0FFF1F0590F491E02D04
:0619A0000994F894FFCF4A
:0419A600E10100005B
:00000001FF
