:020000040800F2
:108000008980000857696C6420536F756E6420493D
:108010004920427920456E746972652047726F75F8
:108020007020202048656C6C6F20546F2054534C96
:1080300020323031392020202020202020202020F4
:10804000202020200100060001000000DFF80CD0F5
:1080500000F046F800480047018800089001002021
:10806000D0F800D04068004772B6034691F800A0EF
:1080700083F800A001F1010103F10103521EF5D2C2
:10808000D0F800D0406800470148804701480047C9
:108090003B8400084D80000840EA01039B0703D0A1
:1080A00009E008C9121F08C0042AFAD203E011F837
:1080B000013B00F8013B521EF9D27047D2B201E0F9
:1080C00000F8012B491EFBD270470022F6E710B5DD
:1080D00013460A4604461946FFF7F0FF204610BD36
:1080E000064C074D06E0E06840F0010394E8070005
:1080F00098471034AC42F6D3FFF7ACFF043E0108BA
:10810000243E010801490860704700000C3C024011
:108110000248016841F4805101607047003C024010
:108120001FB5694600F059FA022100F001F81FBDA1
:1081300070B50646002529B1012927D0022928D08B
:108140004FF4407500F084F808281ED1124C2068C6
:1081500020F440702060206828432060206820F0D0
:10816000F8002060206846F0020108432060206883
:1081700040F48030206000F06BF8216821F00201AB
:108180002160216821F0F801216070BD4FF48075F5
:10819000D8E74FF40075D5E7103C02400B490820A2
:1081A0000A68D20301D5012070470A68D20601D5BA
:1081B000052070470A6812F0EF0F01D006207047C3
:1081C00009688907FBD50720704700000C3C024076
:1081D0000248016841F4006101607047003C0240C0
:1081E0000248016841F0004101607047103C0240C4
:1081F00070B50D46064600F02BF8082813D10A4C3E
:10820000206820F440702060206840F48070206076
:10821000206840F001002060358000F019F82168E6
:1082200021F00101216070BD103C0240054800684A
:10823000002805DA034804490C380160034901604D
:1082400070470000103C024023016745AB89EFCD29
:1082500008B508208DF80000FFF7A0FF8DF800009A
:108260009DF800000128F7D09DF8000008BDF0B58A
:108270000023012403270D6804FA03F215409542F8
:1082800042D1D0F800C05E0007FA06F52CEA050CD2
:10829000C0F800C091F804C0D0F800E00CFA06FC69
:1082A0004CEA0E0CC0F800C091F804C0BCF1010FFC
:1082B00002D0BCF1020F1FD1D0F808C02CEA050C87
:1082C000C0F808C091F805C0D0F808E00CFA06FC28
:1082D0004CEA0E0CC0F808C0D0F804C02CEA020C1E
:1082E000C0F804C0426891F806C00CFA03FC1FFAFB
:1082F0008CFC42EA0C024260C268AA43C260CA799E
:10830000C568B2402A43C2605B1C102BB3D3F0BDDA
:1083100041837047018370471CB50121022000F0A2
:108320004BF801208DF804008DF8070002208DF82D
:1083300005000820009069460148FFF798FF1CBD22
:108340000004024010B500F019FA00234FF4A562B2
:1083500014494FF0005000F092F901234FF41A72C3
:108360001149D80600F08BF902234AF6EC520F4966
:10837000980600F084F900F0D3F900F0B5F880B168
:1083800000BFBFF34F8F0A48006800F4E06009495E
:108390000843001D06490860BFF34F8F00BF00BFB0
:1083A000FEE710BD30880008588D0008C08F000817
:1083B0000CED00E00000FA05044A0029116801D024
:1083C000014300E0814311607047000030380240F3
:1083D00010B5044624B108210448FFF79BFF03E0D1
:1083E00008210248FFF794FF10BD0000000402407E
:1083F00010B50020FFF7ECFF642000F007F8012023
:10840000FFF7E6FF642000F001F810BD12E0401E07
:1084100000BF00BF00BF00BF00BF00BF00BF00BF64
:1084200000BF00BF00BF00BF00BF00BF00BF00BF54
:1084300000BF00BF0028EAD17047704702E008C8BB
:10844000121F08C1002AFAD170477047002001E0CE
:1084500001C1121F002AFBD170470000074A00B576
:10846000014612690020914207D200F0C3F9494247
:1084700000EB810050F8041D401A00BD00000020F0
:10848000FFF7ECBF30B500F0B5F9001F0E49002230
:108490001446CA6008E0CD689D4203D203EB820314
:1084A0001B1DCB60001F521C03685D1C03D0082AF3
:1084B000F1D30022CC6000F09DF9CB680A61C01AAC
:1084C000886090B230BD00000000002010B500248C
:1084D000FFF7D8FF20B1034803C800F074F9044641
:1084E000204610BD0800002010B5FFF7CBFF48B1B3
:1084F000FFF7ECFF0449896831F8021C884201D17A
:10850000012010BD002010BD0000002010B5FFF7B5
:10851000B7FF014682684068BDE810401231FFF79E
:10852000A3BD10B500F009F8A0F57F41FF3903D0D5
:10853000BDE81040FFF7EABF10BD30B50546FFF7B4
:10854000A1FF04000CD0002308E098B2FFF798FFC9
:108550008089A84201D198B230BD5B1CA342F4D3FC
:108560004FF6FF7030BD10B500F044F98038BDE81B
:108570001040802100F012B810B50446FFF756FEF7
:10858000B320FFF7BFFD2046FFF7CAFDFFF728FE27
:10859000FFF71EFEBDE81040FFF7BABD2DE9F04120
:1085A000840BA403001B47184FF0FF354FF480568F
:1085B0000FE028463246214608C91840521EFBD11A
:1085C000401C02D02046FFF7D7FF04F58044A7F5F2
:1085D0008047002FEDDCBDE8F08110B54FF48042FC
:1085E00010F4702F4FF0780309D003EA5032082AB4
:1085F00008D003EA520320334FF4003204E003EAC8
:10860000D02301E02023DA02DC080860C1E902245B
:10861000521E9043C0F3130000F1006048601846FA
:1086200010BD2DE9F041170027D04FF47F480446D4
:108630000D464646FFF7FAFDB320FFF763FD15F838
:10864000011B300A641C40EA01267F1EE00703D1AB
:108650003146A01EFFF7CCFD002FF0D1E00704D07B
:1086600048EA1621601EFFF7C3FDFFF7B9FDFFF7CB
:10867000AFFDBDE8F041FFF74BBDBDE8F0811CB593
:108680000024CDE90043234600F002F81CBD0000A1
:108690002DE9FF4F85B0204CDDE9128AA68C1746E4
:1086A0008B46814602EB08058EB314221B496846AF
:1086B000FFF7F2FCCDE90195ADF80CA0CDF80E5016
:1086C00054F8260F1235401B206000F093F854F840
:1086D000261900EB8600401A04EB86012438086056
:1086E00054F8260F12226946FFF79BFF20683A468E
:1086F00012305946FFF795FF54F8260912373844CF
:1087000042460899FFF78DFFA08C401EA08494F884
:10871000240009B0BDE8F08F65000020F03D01089D
:1087200038B5154D05E00022AA2311461046FFF783
:10873000A6FFA88C0028F6D100F05CF855F8262F8B
:10874000A0F12404A11A104600F03DF8ADF8000095
:1087500002462421084800F027F8ADF800002868F8
:108760000222801E6946FFF75CFF24220249204650
:10877000FFF757FF38BD00006500002010B5FFF778
:10878000F2FE2A210748FFF7A0FC00F033F8054964
:108790002438C1F826004FF0FF3008600820888494
:1087A00010BD00006500002010B503460C461046C1
:1087B00006E000BF13F8012B0146104600F007F851
:1087C000641EF7D210BD41F2AE52FFF7EDBF41403B
:1087D00081EA0110C0B2090A81EA002181EAC001E0
:1087E00081EA10107047000001480088800270473D
:1087F000227AFF1F00B5FFF7F7FF00F1006000BD10
:108800006420FFF703FEFFF787FD002402E0FFF777
:10881000EFFD641C0A2CFAD3FFF766FE10B10020AE
:10882000FFF77FFEFFF78EFD01E0FFF7E1FDFCE7BC
:10883000180900201D000020DFF80CD000F00EF811
:1088400000480047B504002018090020014880476F
:1088500001480047D301002009000020064C074DC5
:1088600006E0E06840F0010394E807009847103400
:10887000AC42F6D3FFF7E4FFF40400201405002017
:1088800001490860704700000C3C02400248016842
:1088900041F4805101607047003C024010F4702F99
:1088A0004FF0780107D001EA5030082806D001EADD
:1088B0005000203003E001EAD02000E02020022117
:1088C000AFF3008070B50646002529B1012927D0F5
:1088D000022928D04FF4407500F084F808281ED1F2
:1088E000124C206820F440702060206828432060EB
:1088F000206820F0F8002060206846F0020108435C
:108900002060206840F48030206000F06BF821681F
:1089100021F002012160216821F0F801216070BD81
:108920004FF48075D8E74FF40075D5E7103C02404E
:108930000B4908200A68D20301D5012070470A6854
:10894000D20601D5052070470A6812F0EF0F01D05A
:108950000620704709688907FBD50720704700008B
:108960000C3C02400248016841F40061016070471C
:10897000003C02400248016841F00041016070473C
:10898000103C024070B50D46064600F02BF8082852
:1089900013D10A4C206820F440702060206840F415
:1089A00080702060206840F001002060358000F079
:1089B00019F8216821F00101216070BD103C0240CE
:1089C00005480068002805DA034804490C380160AE
:1089D0000349016070470000103C024023016745D5
:1089E000AB89EFCD08B508208DF80000FFF7A0FF98
:1089F0008DF800009DF800000128F7D09DF80000D8
:108A000008BD704702E008C8121F08C1002AFAD149
:108A100070477047002001E001C1121F002AFBD1FE
:108A200070470000074A00B50146126900209142D4
:108A300007D200F051F9494200EB810050F8041DC3
:108A4000401A00BD00080020FFF7ECBF30B500F071
:108A500043F9001F0E4900221446CA6008E0CD68A1
:108A60009D4203D203EB82031B1DCB60001F521CEF
:108A700003685D1C03D0082AF1D30022CC6000F00B
:108A80002BF9CB680A61C01A886090B230BD000033
:108A90000008002010B50024FFF7D8FF20B10348DC
:108AA00003C800F002F90446204610BD0808002063
:108AB00010B5FFF7CBFF48B1FFF7ECFF0449896819
:108AC00031F8021C884201D1012010BD002010BDE8
:108AD0000008002030B50546FFF7B8FF04000CD0B1
:108AE000002308E098B2FFF7AFFF8089A84201D1C8
:108AF00098B230BD5B1CA342F4D34FF6FF7030BD7B
:108B000010B500F0E9F88038BDE81040802100F091
:108B100071B810B5FFF798FF01464FF000604A6842
:108B200082420BD300F0D8F802464868824205D949
:108B30008A68BDE81040123100F00EB810BD10B5C3
:108B4000FFF7C8FFA0F57F41FF3903D0BDE8104013
:108B5000FFF7DFBF10BD00002DE9F04104464FF4E0
:108B60000047380315460E4684420FD3104884420E
:108B70000CD2BD420AD9A5F5004206F5004104F524
:108B80000040FFF7E9FF3A463146E8E7204600F0AB
:108B900011F800280AD12946204600F02BF82A4671
:108BA00031462046BDE8F04100F043B8BDE8F08111
:108BB0000080000830B5002306E0C45CCD5CAC4208
:108BC00001D0002030BD5B1C9342F6D3012030BDA4
:108BD00010B50446FFF7F4FEB320FFF751FE204620
:108BE000FFF75CFEFFF7C6FEFFF7BCFEBDE81040D6
:108BF000FFF74CBE2DE9F041840BA403001B47187E
:108C00004FF0FF354FF480560FE02846324621469C
:108C100008C91840521EFBD1401C02D02046FFF765
:108C2000D7FF04F58044A7F58047002FEDDCBDE8B1
:108C3000F0812DE9F0414FF47F48174604460D4678
:108C40004646FFF7BDFEB320FFF71AFE0CE015F80D
:108C5000011B300A641C40EA01267F1EE00703D195
:108C60003146A01EFFF78EFE002FF0D1E00704D0A2
:108C700048EA1621601EFFF785FEFFF77BFEFFF72F
:108C800071FEBDE8F041FFF701BE000010B50346DC
:108C90000C46104606E000BF13F8012B01461046B3
:108CA00000F007F8641EF7D210BD41F2AE52FFF794
:108CB000EDBF414081EA0110C0B2090A81EA0021FA
:108CC00081EAC00181EA1010704700000148008865
:108CD00080027047227AFF1F00B5FFF7F7FF00F10F
:108CE000006000BDFFF7E4FE38B10120FFF727FF69
:108CF0000220FFF724FFFFF703FF00BFBFF34F8FF2
:108D00000648006800F4E06005490843001D034977
:108D10000860BFF34F8F00BF00BFFEE70CED00E01F
:108D20000000FA05140500200008002014000000CF
:108D3000D4010020280500201408002004010000B0
:108D4000E40100200000000000000000000000001E
:108D5000000000000000000018010020450000088D
:108D6000DFF80CD000F022F800480047FD010008B1
:108D700018010020D0F800D04068004772B60346C2
:108D800091F800A083F800A001F1010103F10103B3
:108D9000521EF5D2D0F800D0406800470148804705
:108DA000014800477900000809000008064C074DFB
:108DB00006E0E06840F0010394E8070098471034AB
:108DC000AC42F6D3FFF7D0FF34020008540200088B
:108DD000704702E008C8121F08C1002AFAD1704784
:108DE0007047002001E001C1121F002AFBD170472B
:108DF000074A00B5014612690020914207D200F0EF
:108E0000A3F8494200EB810050F8041D401A00BD50
:108E100000000020FFF7ECBF30B500F095F8001F10
:108E20000E4900221446CA6008E0CD689D4203D274
:108E300003EB82031B1DCB60001F521C03685D1CEB
:108E400003D0082AF1D30022CC6000F07DF8CB6873
:108E50000A61C01A886090B230BD00000000002096
:108E600010B50024FFF7D8FF20B1034803C800F075
:108E700054F80446204610BD0800002010B5FFF746
:108E8000CBFF48B1FFF7ECFF0449896831F8021CB9
:108E9000884201D1012010BD002010BD000000203B
:108EA00010B5FFF7B7FF014682684068BDE8104083
:108EB0001231FFF763BF10B500F009F8A0F57F414C
:108EC000FF3903D0BDE81040FFF7EABF10BD30B551
:108ED0000546FFF7A1FF04000CD0002308E098B27C
:108EE000FFF798FF8089A84201D198B230BD5B1C82
:108EF000A342F4D34FF6FF7030BD000010B5034617
:108F00000C46104606E000BF13F8012B0146104640
:108F100000F007F8641EF7D210BD41F2AE52FFF721
:108F2000EDBF414081EA0110C0B2090A81EA002187
:108F300081EAC00181EA10107047000001480088F2
:108F400080027047227AFF1F00B5FFF7F7FF00F19C
:108F5000006000BDFFF792FF10B10020FFF7ABFFEC
:108F600000BFBFF34F8F0748006800F4E060064978
:108F70000843001D03490860BFF34F8F00BF00BFC7
:108F8000FEE700000CED00E00000FA0554020008C6
:108F900000000020140000007A00000868020008A9
:108FA00014000020040100008A00000800000000F6
:108FB00000000000000000000000000000000000B1
:108FC000C8690020C5010008CD010008CF010008D4
:108FD000D1010008D3010008D501000800000000FD
:108FE000000000000000000000000000D7010008A1
:108FF000D901000800000000DB010008DD010008C5
:10900000DF010008DF010008DF010008DF010008C0
:10901000DF010008DF01000879800120798001204C
:10902000990B0008DF010008DF010008DF010008DC
:10903000DF010008DF010008DF010008DF01000890
:10904000DF010008DF010008DF010008DF01000880
:10905000DF010008DF010008DF010008E50B000860
:10906000DF010008DF010008DF010008DF01000860
:10907000DF01000879800120B10A0020DF0100082B
:10908000DF010008DF010008DF010008DF01000840
:10909000DF010008A1200008DF010008DF0100084F
:1090A000290B0008DF010008DF010008DF010008CC
:1090B000DF010008DF010008DF010008DF01000810
:1090C000DF010008DF010008DF010008DF01000800
:1090D000DF010008DF010008DF010008DF010008F0
:1090E000DF010008DF010008DF010008DF010008E0
:1090F000DF010008DF010008DF010008DF010008D0
:10910000DF010008DF010008DF010008DF010008BF
:10911000DF010008DF010008DF010008DF010008AF
:10912000DF010008DF010008DF010008DF0100089F
:10913000DF010008DF010008DF010008DF0100088F
:10914000DF010008DF010008DFF80CD000F02CF888
:1091500000480047E5520008C8690020D0F800D058
:109160004068004772B6034691F800A083F800A05B
:1091700001F1010103F10103521EF5D2D0F800D034
:10918000406800470648804706480047FEE7FEE77C
:10919000FEE7FEE7FEE7FEE7FEE7FEE7FEE7FEE7A7
:1091A000791A000889010008064C074D06E0E068BE
:1091B00040F0010394E8070098471034AC42F6D31E
:1091C000FFF7C6FF24780008847800082DE9F843EB
:1091D00004460068002635460078202805D120681E
:1091E000401C206000782028F9D04FF000086F461E
:1091F000216811F8010B21603A281CBF20280028A3
:1092000013D0A0F13001092905D8C8B206EB8601B8
:1092100000EB4106ECE7032DEAD200F095FA785511
:10922000681CC5B207F80580E2E76DB10C25FF4F59
:10923000002400BF57F82400694600F08AFA30B1D4
:10924000601C84B2AC42F5D33046BDE8F883661C9E
:10925000FAE7F8B5F64800906846FFF7B7FF42F224
:10926000107100FB01F500246846FFF7AFFF642191
:109270004843451944EB04066846FFF7A7FF451924
:1092800066416846FFF7A2FFEA494843451966412F
:109290006846FFF79BFFE849484345196641684621
:1092A000FFF794FFE549E64BA1FB002149096FF068
:1092B0001802514300EB8100A0FB031C04FB03C315
:1092C000022200FB0232481942EB0601F8BD2DE9EB
:1092D000F0410446002020700F46204600F03EFA80
:1092E000D84D0219D54E6888A6FB003149096FF0A8
:1092F0001803594300EB8100022105F0A3FC1FB1C4
:10930000D1A1204600F02FFA204600F027FA0219DA
:10931000A8884AF2D73800FB0880800DA6FB0031F0
:1093200049096FF01803594300EB8100022105F051
:1093300089FC1FB1C4A1204600F015FA204600F0B8
:109340000DFA0219A888A6FB003149096FF018032D
:10935000594300EB8100022105F074FC27B1BBA149
:10936000204600F000FA03E0B9A1204600F0FBF926
:10937000204600F0F3F9021968884AF2D73100FB61
:109380000180800DA6FB003149096FF01803594395
:1093900000EB8100022105F055FC1FB1ACA1204675
:1093A00000F0E1F9204600F0D9F902192888A6FB5F
:1093B000003149096FF01803594300EB8100022185
:1093C00005F040FC27B1A3A1204600F0CCF903E052
:1093D000A1A1204600F0C7F9204600F0BFF902190C
:1093E00028884AF2D73100FB0180800DA6FB0031AE
:1093F000BDE8F04149096FF01803594300EB8100C3
:10940000022105F01FBC70B50E460446012184B050
:10941000880300F0ADFF914D012C02D0022C09D041
:1094200010E00A21002001F0FDF84FF48060686030
:10943000282006E00721022001F0F4F8802068606F
:10944000172028700A21002001F0ECF800241020D9
:109450008DF804408DF809408DF80A408DF805001C
:10946000002E19BF01208DF806008DF8064000205F
:109470008DF80B0068680090684600F0D1FB2878F2
:109480008DF8080002A800F093FD95F9000000286F
:10949000BABF00F00F00724972494454002E04BF55
:1094A00004B070BD70490098086004B070BD70B51C
:1094B0006A4C05466078FF281CBF0021FFF7A3FF18
:1094C00065702846BDE8704001219CE72DE9F04316
:1094D00001218DB0880300F04BFF00248DF824405B
:1094E0008DF80140082601258DF802408DF8256091
:1094F0008DF826508DF803500221204601F092F895
:1095000004200C2708908DF8257008A800F088FB2F
:109510008DF80060684600F04BFD0121022000F04C
:1095200003FF02208DF82C008DF82F408DF82D00C0
:109530000320DFF838810A900AA9404600F0A3FC16
:1095400002220021404600F0EFFC022201214046A9
:1095500000F0EAFC0121022000F0FEFE04A801F068
:10956000B9FCDFF80C91484604F0E6FB4FF47A7141
:10957000B0FBF1F0401EADF8100048000590ADF8CA
:109580001840ADF8124004A9484601F065FCADF85A
:109590000640ADF80850ADF80A40ADF80C40ADF803
:1095A000046001A9484601F0B4FAADF8047001A9BD
:1095B000484601F0AEFA01227902484601F0A1FACC
:1095C0002C4941F23420086001221821484601F05C
:1095D000F6FA1D208DF800008DF801408DF802503C
:1095E0008DF80350684600F0E3FC23480470D8F877
:1095F00000002249000C486001F10E00079007A806
:10960000FFF7E4FD42F2107100FB01F507A8FFF738
:10961000DDFD64214843451944EB040607A8FFF724
:10962000D5FD4519664107A82AE00000582300200F
:10963000D691012000E1F50540420F001F85EB5156
:1096400000E40B54D09101203A00000020000000FB
:109650002E0000002E323000323000005023002057
:1096600014ED00E000E400E0103C01400004024082
:1096700000040040240400401DE400E0C8910120E3
:10968000FFF7A4FD2A4948434519664107A8FFF79B
:109690009DFD284948434519664107A8FFF796FDF7
:1096A0002549264BA1FB002149096FF018025143BF
:1096B00000EB8100A0FB031C04FB03C3022200FBA0
:1096C0000232481942EB060105460C46184A0023AF
:1096D00000F04EF842F21072002300F049F842F216
:1096E0001070174E101842F2107230804FF00003C5
:1096F0002846214600F03CF8144642F2107200233E
:1097000000F036F842F210701018708042F21070BB
:109710002018B0804FF0010106F10600FFF7D7FDD9
:1097200000210848FFF7D3FD0DB0BDE8F08300002D
:1097300000E1F50540420F001F85EB5100E40B549A
:10974000D09101200096012040F2630CC2F2000C7F
:10975000604740F2DD0CC2F2000C604740F2CF0CD3
:10976000C2F2000C604740F2B70CC2F2000C604736
:1097700040F2010CC2F2000C604748F2713CC2F2A8
:10978000010C604740F26F0CC2F2000C604740F2DF
:10979000854CC2F2000C604740F6E17CC2F2000C3E
:1097A000604740F2472CC2F2000C604740F2FD4C8B
:1097B000C2F2000C604740F2094CC2F2000C604754
:1097C00040F23B2CC2F2000C604740F2F90CC2F2AE
:1097D000000C604740F22B3CC2F2000C604740F2A4
:1097E0006F0CC2F2000C604740F2AD4CC2F2000CAC
:1097F000604740F2D54CC2F2000C604740F2234C67
:10980000C2F2000C604740F2A10CC2F2000C6047AB
:1098100040F2A10CC2F2000C604740F2930CC2F27D
:10982000000C604740F2554CC2F2000C604740F615
:10983000110CC2F2000C604740F6413CC2F2000C31
:10984000604740F6197CC2F2000C604741F6B55CF7
:10985000C2F2000C604710B502B90268531C01D176
:1098600003685A1C21F0704139B12AB1037A5C1C9B
:109870000472446844F82320016010BD044A0123A7
:109880008340106809B1184300E0984310607047A6
:1098900000740040044A93148340106809B11843CF
:1098A00000E09843106070470074004030B5084CE9
:1098B000236840F6FE7282409343D1E900252A4393
:1098C000D1E902510D432A4382401A43226030BD40
:1098D000007400400029016802D041F0010101E05C
:1098E00021F001010160704730B50368124ACC686D
:1098F00013400A682243D1E905452C432243CC6931
:1099000022430C6A22434C6A22438C6A22434C6BEA
:1099100022438C6B22431A430260426922F0070300
:10992000D1E90B2422431A4342610A6942604A6822
:1099300082608968C16030BD3F801CF02DE9F0472E
:1099400082B0044601F0D0FA07191F4CDFF8688096
:10995000DFF868901A4B1B4DA4F10C06A4F1100A15
:10996000D8F800005968B0FBF9F02268D3F800C0BD
:10997000891A4CF0010CC3F800C0D5F800C04CF0B7
:10998000807CC5F800C0814207D3B1FBF0F101FB38
:1099900000202060306808443060DAF80400009746
:1099A000019001A9684604F06FFC002801D100BFB6
:1099B000D6E702B0BDE8F0877C64002040420F008B
:1099C000001000E0FCED00E0DC2300202DE9F04F6A
:1099D00082B0A0F1010B002837D0224DDFF874804F
:1099E000DFF874901D4C1E4EA5F10C07A5F1100A6E
:1099F00001F07AFA00F57A73D8F800006168B0FBDC
:109A0000F9F02A68D4F800C0891A4CF0010CC4F8A7
:109A100000C0D6F800C04CF0807CC6F800C081427F
:109A200007D3B1FBF0F101FB00202860386808443F
:109A30003860DAF804000093019001A9684604F048
:109A400023FC28B1BBF1010BD2D202B0BDE8F08FEC
:109A500000BFD1E77C64002040420F00001000E00E
:109A6000FCED00E0DC23002070B504460D462DB16E
:109A7000002229462046FFF7EEFE70BD206820F048
:109A8000704140F20112881A91421CD004DC61B18D
:109A9000B1F5807F06D112E0012818D0A0F5506002
:109AA000FF3815D00020206000BF207A18B1204672
:109AB00000F0AAFD02E0204600F066FA11E02068FE
:109AC000401C20600DE02068401C206009E008E098
:109AD00005F0F0F905F002FA05F0F8F905F0D6F90D
:109AE00000BF00BF00BFC8E710B5174C4FF40020FF
:109AF0002060401200F08EF81449888800EB400284
:109B000002EBC00001EBC002B1F87012107D21F42D
:109B10000041102902D0112907D00EE00C4920F095
:109B20008000098AC1F3802105E00A4920F0800005
:109B30000988C1F3C01140EAC1101075FFF71DFE7E
:109B40004FF00810206010BD180402400A240020C5
:109B50000000024010080240042000F05BF80D49AC
:109B60004FF4807008600C48018A11F0040F04D192
:109B700000BF018A11F0040FFAD0BFF34F8F0748DE
:109B80000168074A01F4E06111430160BFF34F8FA0
:109B9000FEE7000080E200E0000002400CED00E083
:109BA0000400FA0510B5174C4FF400202060802007
:109BB00000F030F81449888800EB400202EBC00046
:109BC00001EBC002B1F87012107D21F400411029A0
:109BD00002D0112907D00EE00C4920F08000098A3C
:109BE000C1F3802105E00A4920F080000988C1F313
:109BF000C01140EAC1101075FFF7BFFD4FF008100B
:109C0000206010BD180402400A2400200000024019
:109C1000100802400149086070470000143C0140F0
:109C200030B51A498379026853B30B6893430B60CC
:109C30000A1D13680468A343136002790A44136879
:109C4000046823431360114A083213680468A3436D
:109C50001360131D1C680568AC431C604479102C0C
:109C600005D021440A68006802430A6030BD1168CB
:109C7000046821431160196800680143196030BD10
:109C80000079084401689143016030BD003C014007
:109C900001490860704700000C3C0240054900285B
:109CA000086802D040F4806001E020F48060086021
:109CB00070470000003C02400248016841F48051B6
:109CC00001607047003C02407FB50446694620466B
:109CD00002F0A9FB05460221284600F001F87FBDED
:109CE00070B50646002529B1012927D0022928D0C0
:109CF0004FF4407500F0B8F808281ED1124C2068C7
:109D000020F440702060206828432060206820F004
:109D1000F8002060206846F00201084320602068B7
:109D200040F48030206000F09FF8216821F00201AB
:109D30002160216821F0F801216070BD4FF4807529
:109D4000D8E74FF40075D5E7103C02400B490820D6
:109D50000A68D20301D5012070470A68D20601D5EE
:109D6000052070470A6812F0EF0F01D006207047F7
:109D700009688907FBD50720704700000C3C0240AA
:109D800005490028086802D040F4007001E020F482
:109D90000070086070470000003C02400248016803
:109DA00041F4006101607047003C024002480168D4
:109DB00041F0004101607047103C024005480068D6
:109DC000C00705D0034804490C380160034901600D
:109DD00070470000143C02403B2A19087F6E5D4C1E
:109DE00005490028086802D040F4807001E020F4A2
:109DF0008070086070470000003C024070B50D465E
:109E0000064600F031F8082813D10A4C206820F4E7
:109E100040702060206840F480702060206840F02E
:109E200001002060358000F01FF8216821F0010159
:109E3000216070BD103C024001490870704700006D
:109E4000003C024005480068002805DA0348044940
:109E50000C3801600349016070470000103C02406B
:109E600023016745AB89EFCD08B508208DF80000C8
:109E7000FFF76CFF8DF800009DF800000128F7D077
:109E80009DF8000008BDF0B50023012403270D68EC
:109E900004FA03F21540954242D1D0F800C05E00AA
:109EA00007FA06F52CEA050CC0F800C091F804C0CA
:109EB000D0F800E00CFA06FC4CEA0E0CC0F800C02A
:109EC00091F804C0BCF1010F02D0BCF1020F1FD108
:109ED000D0F808C02CEA050CC0F808C091F805C0FD
:109EE000D0F808E00CFA06FC4CEA0E0CC0F808C0EA
:109EF000D0F804C02CEA020CC0F804C0426891F803
:109F000006C00CFA03FC1FFA8CFC42EA0C02426009
:109F1000C268AA43C260CA79C568B2402A43C26017
:109F20005B1C102BB3D3F0BD4B07DB0E9A40C90866
:109F300010B500EB8100016A0F249C40A14301622F
:109F4000016A1143016210BD10B5064800F072FAB3
:109F5000044800680449B0FBF1F00449088000F0AF
:109F600075FB10BD7C64002040420F00CC23002014
:109F700070B504460D46E06804F080FE18B1E06854
:109F8000294604F0DBFE70BD10B50446206868B9B0
:109F9000207A58B9E06804F088FE2060206810F04C
:109FA000004F03D021682046FFF7E2FF206810BD74
:109FB00070B50F21C478027801234FF0E026E4B198
:109FC000124C246804F4E064C4F5E064C4F307248C
:109FD000C4F10405E1404478AC4085780D40254348
:109FE0000B4C29011155007800F01F018B404009EE
:109FF00006EB8000C0F8003170BD02F01F00834006
:10A00000500906EB8000C0F8803170BD0CED00E017
:10A0100000E400E02DE9FF4F2DED108BB9B00546AF
:10A020001C46C022B34908A8FFF7ACFB4B994A98DD
:10A0300000EB010BD5F88400C08B0A2864D12046C0
:10A0400004EBD0714A104FF4F053A3EB8B118A1A32
:10A050005699A2EB810100EE101AB8EEC00A05F184
:10A06000900181EDE50A084690EDE50AF7EE000A59
:10A07000B4EEE00AF1EE10FA03D2B7EE000A80ED7A
:10A08000E50A05F1900090EDE50ADFED9B0AB4EEDC
:10A09000E00AF1EE10FA03DD9FED970A80EDE50A84
:10A0A00005F1900090EDE50ADFED940A30EEC00A6C
:10A0B000DFED930A80EE201A11EE106A3046FFF7AA
:10A0C00066FB41EC190BB0EE491AF0EE691A9FEDF0
:10A0D0008D0BFFF761FB8DED060B9DED060B53EC31
:10A0E000102B9FED8A0B51EC100BFFF75AFB41EC44
:10A0F000100BB0EE40AAF0EE60AA51EC1A0BFFF77D
:10A1000055FBC5F82804EBE0ABF10C0B4FEAE4710A
:10A1100004EB1171039409110BD4A146E11704EB70
:10A1200011710911A046E21704EB1272A1EB221182
:10A130000AE02746E11704EB117109112646E217E0
:10A1400004EB127201EB22110846FFF734FB41ECDD
:10A15000180B0C209BFBF0F080B205900C219BFBB0
:10A16000F1F001FB10B081B204912046E11704EB3D
:10A1700011710A11049902EBC1010FFA81FABAF1C7
:10A18000000F01DA4FF0000ABAF1600F01D34FF06F
:10A190005F0A0122059902FA01F0FFF70CFB41EC7E
:10A1A0001A0B08A931F81A00FFF705FB41EC100B58
:10A1B000B0EE40EAF0EE60EA53EC182B51EC1E0BC7
:10A1C000FFF7EFFA41EC100B8DED000B53EC182B61
:10A1D0009FED500B51EC100BFFF7F2FA41EC100B16
:10A1E000B0EE40EAF0EE60EA08A931F81A00FFF795
:10A1F000E2FA41EC100BB0EE40FAF0EE60FA53ECEC
:10A200001E2B51EC1F0BFFF7CCFA41EC100BB0EEFC
:10A2100040DAF0EE60DA9DED000B53EC102B51ECC0
:10A220001D0BFFF7D2FA41EC100BB0EE40CAF0EE76
:10A2300060CA9FED3A0B53EC102B51EC1C0BFFF74F
:10A24000B0FA41EC100B8DED020B53EC1A2B9DED87
:10A25000020B51EC100BFFF7BDFA41EC100BB0EE06
:10A2600040BAF0EE60BA51EC1B0BFFF79FFAC5F84D
:10A27000240405F19000D0EDE50A5698400000EE68
:10A28000100AB8EEC00A30EEC00A05F1900080ED69
:10A29000E50A90EDE50AF7EE000AB4EEE00AF1EE09
:10A2A00010FA03D2B7EE000A80EDE50A05F190003E
:10A2B00090EDE50ADFED100AB4EEE00AF1EE10FAD7
:10A2C00003DD9FED0D0A80EDE50A05F1900090EDAC
:10A2D000E50ADFED140A80EE801A80EDE61A00BF71
:10A2E00005F1900090EDE60A39B0BDEC108BBDE8A9
:10A2F000FF8F00004C60000800FF7F470000904582
:10A300000000404400000000000000400000000089
:10A310008055C040000000000000F03F0000000039
:10A320000000304090775A4B044A0029116801D050
:10A33000014300E081431160704700003038024063
:10A34000044A0029116801D0014300E081431160F3
:10A350007047000034380240044A0029116801D0D7
:10A36000014300E081431160704700004038024023
:10A37000044A0029116801D0014300E081431160C3
:10A38000704700004438024038B500F035F801202D
:10A3900000F0B6F800F0F4F80446012C2BD10F20A1
:10A3A00002234FF4C07210210090880400F0CAF814
:10A3B000012000F0C1F800BF392000F07DF800282E
:10A3C000FAD00520FFF738FD0120FFF709FD012035
:10A3D000FFF7D6FC0120FFF761FC002000F086F8B3
:10A3E0004FF4A05000F094F84FF4805000F09AF829
:10A3F000022000F0BBF838BD0B48016841F00101B4
:10A400000160094A0021083211600268074B1A40B6
:10A410000260031D064A1A60026822F4802202606C
:10A4200001480C300160704700380240FFFFF6FE23
:10A430001030002430B51D4A11681D4B11F00C017D
:10A4400003D0042901D0082901D0036015E0174981
:10A45000091F0C68C4F380550C6804F03F04B3FB7B
:10A46000F4F30C680968C4F388146343C1F3014131
:10A47000491C4900B3FBF1F1016011680F2303EAA5
:10A4800011110C4B5C5C0168E140416014680725C8
:10A4900005EA94241C5D21FA04F48460126805EA3C
:10A4A00052329A5CD140C16030BD00000838024091
:10A4B0000024F4009C2300200246002051090129B9
:10A4C0000BD002290CD00849096802F01F020123B1
:10A4D00093400B4200D00120704703497439F3E7E1
:10A4E0000149091FF0E7000074380240034A11686F
:10A4F00021F0F0010143116070470000083802406C
:10A50000024900220A7008707047000002380240B9
:10A51000034A116821F4E0510143116070470000C3
:10A520000838024003490A6822F4604242EAC00047
:10A53000086070470838024001490866704700000B
:10A540000000474241EA82115A0810B5054B029CAF
:10A5500003EB02421143014341EA046002490860EF
:10A5600010BD00000000FFFF04380240034A1168DC
:10A5700021F00301014311607047000008380240D8
:10A5800018B500204FF4A06400903120FFF794FF2D
:10A590000099491C0091A14201D00028F5D031203A
:10A5A000FFF78AFF002800D0012018BD05490028C8
:10A5B000086802D040F0040001E020F004000860C8
:10A5C000704700000008065010B501214020FFF739
:10A5D000B7FE0120FFF7EAFF10BD000010B50648E6
:10A5E00004F094FB002804BF4FF6FF7010BD024832
:10A5F000BDE8104004F04ABBAC230020014804F041
:10A6000085BB0000AC2300200146087A38B1087AE7
:10A61000401E087248680A7A50F8220008600868EC
:10A620007047000010B58A0721F003040649130F94
:10A6300021440F220C689A4094430C600A689840A9
:10A6400002430A6010BD00000838014010B500BF89
:10A65000012341F2110203214D4803F07DFD00BFAB
:10A6600000BF012340F2033204214A4803F074FD85
:10A6700000BF00BF012340F203320521454803F02B
:10A680006BFD00BF00BF002310221946404803F0B5
:10A6900063FD00BF00BF0023102201213C4803F0EE
:10A6A0005BFD00BF00BF00234FF4805202213848F9
:10A6B00003F052FD00BF00BF00234FF4805204217D
:10A6C000334803F049FD00BF00BF00234FF4805220
:10A6D00005212F4803F040FD00BF00BF00234FF4C9
:10A6E000805206212A4803F037FD00BF00BF002337
:10A6F0004FF480520721264803F02EFD00BF00BF13
:10A70000032310220821224803F026FD00BF00BFCA
:10A710000323102209211E4803F01EFD00BF00BFC5
:10A72000032310220A211A4803F016FD00BF00BFC0
:10A73000032310220B21164803F00EFD00BF00BFBB
:10A74000032310220C21124803F006FD00BF00BFB6
:10A75000032310220D210E4803F0FEFC00BF00BFB2
:10A76000032310220E210A4803F0F6FC00BF00BFAD
:10A77000032310220F21064803F0EEFC00BF00BFA8
:10A78000002310220221034803F0E6FC00BF10BDA5
:10A7900000040240000002402DE9F047DFF898A0D5
:10A7A00005000C4628D0002C08BFBDE8F087234FD9
:10A7B0004FF020084FF0E029B8882646B04238BF55
:10A7C000BE881E4804F05AFAB042FAD3C9F8848110
:10A7D000B2B22946194804F0B8FA012240F22771B2
:10A7E000504600F0ADFCC9F80481B0B215FA86F508
:10A7F000241AE1D1BDE8F087200C08BF8CB207D045
:10A8000088B200F039F8BDE8F047042000F0D0BB72
:10A810000A4804F07BFA0028FAD14021504600F0A3
:10A8200069FC0028F4D0052000F0C2FB2046BDE8FA
:10A83000F04700F021B8000000100140BC230020C8
:10A8400001B501216846FFF7A7FF08BD014A0021B5
:10A8500004F01EB98118000810B5024804F00EFA81
:10A8600080B210BDBC23002041F48051014A04F0A5
:10A870000FB9000081180008F8B51A4D04461A48AF
:10A8800004F044FA0028FAD14021284600F032FCB6
:10A890000028F4D0002C08BFF8BD022000F088FB8F
:10A8A000322C38BFFF2615D28DF800600121684692
:10A8B000FFF772FF601E0404240CF5D10A4804F06F
:10A8C00025FA0028FAD14021284600F013FC002880
:10A8D000F4D002E02046FFF731F8BDE8F84003204D
:10A8E00000F066BB00100140BC23002010B50446F8
:10A8F000FEF734FF01462046BDE81040FFF74CBF8D
:10A9000030B587B004461C2216A16846FEF73AFF10
:10A91000A069FEF723FF05462A466846A169FEF7AF
:10A920005EFF6846FFF7E2FF08212068FFF79CFF03
:10A9300013A0FFF7DBFF08216068FFF795FF11A068
:10A94000FFF7D4FF0821A068FFF78EFF0CA0FFF7E8
:10A95000CDFF0821E068FFF787FF0BA0FFF7C6FFD8
:10A9600007B030BD2E2E2E2E2E2E2E2E2E2E2E2E1B
:10A970002E2E2E2E2E2E2E2E2E2E2E2E2E20000061
:10A980002E000000200000000D0A000010B519A0E4
:10A99000FFF7ACFF18A0FFF7A9FF1CA0FFF7A6FF69
:10A9A0001EA0FFF7A3FF214909888802FFF74EFF89
:10A9B00010A0FFF79BFF1EA0FFF798FF1B4912395D
:10A9C00008680821FFF750FF2020FFF739FF1749DB
:10A9D0000E3908680821FFF747FF2020FFF730FFF6
:10A9E00012490A3908680821FFF73EFF01A0FFF766
:10A9F0007DFF10BD0D0A0000426F6F7420466C6130
:10AA000073686572202E2E2E0D0A0000456E747537
:10AA100072652047726F75700D0A0000466C617395
:10AA2000682053697A653A2000000000227AFF1FEF
:10AA3000446576696365200010B50448006840F4F9
:10AA4000700002490860FFF79FFC10BD88ED00E030
:10AA500070B5048C24F001040484058B048C4FF63B
:10AA6000FF7606EA0313134325F0F3052B4324F086
:10AA70000A020A4342F001010383018470BDF0B56C
:10AA8000048C24F010040484078B068C4FF6FF74AA
:10AA900004EA011527F4734704EA0331394304EA51
:10AAA00002220A4326F0A001294341F0100102834B
:10AAB0000184F0BD10B50A884B88CC881A438B8876
:10AAC00023431A430B891A434B8989891A430A4342
:10AAD000A0F8442010BD0021018041808180C18008
:10AAE0000181418181817047C943018270470029FA
:10AAF000018802D041F0010101E021F00101018053
:10AB00007047002A828901D00A4300E08A4382818B
:10AB100070472DE9F0410D460E884988AA882B8997
:10AB2000044616B3042E28D0082E268C4FF6FF704C
:10AB30002BD026F480562684A78B268C00EA02228E
:10AB400000EA013127F473473A4300EA0330104327
:10AB500026F420420A4342F48051A0832184E988EC
:10AB60002046BDE8F04100F06BB9FFF771FFE988BE
:10AB70002046BDE8F04100F047B9FFF780FFE988C3
:10AB80002046BDE8F04100F047B926F480762684DF
:10AB9000A78B268C00EA012100EA0310104327F05E
:10ABA000F307384326F420620A4342F48071A083FD
:10ABB0002184E9882046BDE8F04100F039B9002A37
:10ABC000828901D00A4300E08A43828170470000F5
:10ABD00030B5028C22F001020284028C8388048B3F
:10ABE00022F0020224F073050C882C438D89154352
:10ABF0004A882A430C4DA84202D00C4DA8420DD1E0
:10AC000022F00805CA8923F440732A4322F0040580
:10AC10008A882A430D8A1D434B8A2B4383800483F1
:10AC200089684163028430BD000001400004014096
:10AC3000028B22F008020A430283704770B5028C2F
:10AC400022F010020284028C8488038B0D8823F486
:10AC5000E6464FF6FF7303EA052535438E8922F059
:10AC6000200203EA061616434A8803EA0212324318
:10AC7000104EB04202D0104EB04215D122F08006E4
:10AC8000CA8924F4406403EA0212324322F04006E7
:10AC90008A8803EA021232430E8A03EA86062643B2
:10ACA0004C8A03EA84043443848005838968816381
:10ACB000028470BD0000014000040140028B4FF689
:10ACC000FF7322F4006203EA0121114301837047FC
:10ACD00070B5028C22F480720284028C8488838B8B
:10ACE0000D8823F073031D4322F400738E894FF601
:10ACF000FF7202EA06261E434B8802EA032333430F
:10AD0000104EB04202D0104EB04215D123F400666E
:10AD1000CB8924F4405402EA0323334323F48066AE
:10AD20008B8802EA032333430E8A02EA061626437F
:10AD30004C8A02EA04143443848085838968C163A1
:10AD4000038470BD0000014000040140828B22F0AA
:10AD500008020A438283704770B5028C22F4805245
:10AD60000284048C8288838B0D8823F4E6464FF698
:10AD7000FF7303EA0525354324F400568C8903EA62
:10AD8000043434434E8803EA06362643084CA04276
:10AD900002D0084CA04205D122F480440A8A03EA7A
:10ADA000821222438280858389680164068470BD93
:10ADB0000000014000040140828B4FF6FF7322F433
:10ADC000006203EA0121114381837047028922F066
:10ADD00070020A4302817047028922F080020281D8
:10ADE00002890A4302817047828822F070028280C1
:10ADF00082880A4382807047028922F0070202811A
:10AE000002890A4302817047028B22F00C020283FE
:10AE1000028B0A4302837047028B22F44062028352
:10AE2000028B4FF6FF7303EA01210A430283704746
:10AE3000828B22F00C028283828B0A4382837047CA
:10AE4000828B22F440628283828B4FF6FF7303EA87
:10AE500001210A438283704730B50288164B174C94
:10AE600098420DD0A0420BD0B0F1804F08D0144DC5
:10AE7000A84205D0134DA84202D0134DA84203D1D9
:10AE800022F070054A882A43104DA84206D0104D82
:10AE9000A84203D022F440750A892A4302804A68F6
:10AEA000C2620A880285984201D0A04201D1897A03
:10AEB00001860121818230BD000001400004014073
:10AEC0000004004000080040000C0040001000405A
:10AED000001400404FF0FF314160002101800181EA
:10AEE0004180817270470000124810B40068124916
:10AEF000124BB0FBF1F05968114A1C68D2F800C03F
:10AF0000A1EB0C0144F001041C600E4B1C6844F0E2
:10AF100080741C60A2F10C03814207D3B1FBF0F1F5
:10AF200001FB00C0106018680844186006484068BB
:10AF300010BC70477C64002040420F00001000E00D
:10AF4000DC230020FCED00E0CC230020134810B4EB
:10AF500000684FF47A71B0FBF1F0114B5968114A57
:10AF60001C68D2F800C0A1EB0C0144F001041C6085
:10AF70000D4B1C6844F080741C60A2F10C038142EC
:10AF800007D3B1FBF0F101FB00C010601868084462
:10AF900018600648C06810BC704700007C64002040
:10AFA000001000E0E4230020FCED00E0CC230020B2
:10AFB00010B52A4C042828BF10BDDFE800F0021F9E
:10AFC0003D4601211020FFF7D3F907220921204631
:10AFD000FEF7AAFF07220A212046FEF7A5FF01235C
:10AFE00040F201320921204603F0B6F82046012341
:10AFF0001022BDE810400A2103F0AEB80121102054
:10B00000FFF7B6F9072209212046FEF78DFF072238
:10B010000A212046FEF788FF012341F2023209216E
:10B02000204603F099F820460123BDE8104040F285
:10B0300002320A2103F090B820460123BDE81040F7
:10B0400040F20132092103F087B820460123BDE810
:10B05000104041F20232092103F07EB800000240A4
:10B0600038B51C4C40F22551204600F04AF898B102
:10B07000204600F0D9F88DF80000174803F0FEFDD7
:10B0800020B101226946144803F05FFE012240F21C
:10B090002771204600F054F840F22771204600F056
:10B0A00030F8002808BF38BD0C4803F02FFE40B12F
:10B0B0000A4803F0EBFD01462046BDE8384000F0A9
:10B0C000B7B82046BDE83840002240F2277100F0B2
:10B0D00037B8000000100140AC230020BC23002042
:10B0E0000029818902D041F4005101E021F400518E
:10B0F000818170470246002012880A4200D0012058
:10B10000704730B501F01F0201240025C1F342133E
:10B1100004FA02F2012B0FD0022B0FD0838A4FEAE0
:10B1200011210088134204FA01F400EA040001D05E
:10B1300000B10125284630BD8389F0E7038AEEE798
:10B1400010B5C1F3421301F01F040121A140012BEE
:10B1500007D0022B07D01430002A026805D00A431A
:10B1600004E00C30F8E71030F6E78A43026010BDC7
:10B170007FB50446008A0D4620F44051E888084314
:10B180002082A08941F20C618843A9882A89114351
:10B190006A8902431143A181A08A20F44071A889E1
:10B1A0000843A0826846FFF745F91D48844202D053
:10B1B0001C48844201D1039800E00298A189090447
:10B1C000002900EBC00101EB0010296802DA4FEA08
:10B1D000410101E04FEA8101B0FBF1F26420B2FBD2
:10B1E000F0F14FEA01114FEA11136FF018056B43AC
:10B1F00002EB8302A3891D044FF0320306D503EB53
:10B20000C202B2FBF0F000F0070005E003EB02120F
:10B21000B2FBF0F000F00F00084320817FBD00007A
:10B2200000100140001401408088C0F308007047FE
:10B23000C1F308018180704770B5054686B00C46A1
:10B240000120FFF7B5FE2D4E00213046FFF748FFE5
:10B250002B4803F05BFD0146294803F0FDFC210962
:10B26000002204F00F00012908BF4FF4C06142D052
:10B27000022914BF00214FF480613CD0002808BF90
:10B280004FF4805009D0022808BF4FF4005004D07A
:10B29000032814BF00204FF440500095ADF804205F
:10B2A000ADF806000020ADF80810ADF80C000C2039
:10B2B000ADF80A0069463046FFF75AFF25208DF8A1
:10B2C0001000FF208DF811008DF8120001208DF87C
:10B2D000130004A8FEF76CFE0A49F0200870012252
:10B2E00040F225513046FFF72BFF01213046FFF792
:10B2F000F7FE06B070BD4FF48052BFE7001001406A
:10B30000AC23002025E400E070B5044600680D463B
:10B31000002660B1FFF71AFE21680A1A0BD52068D3
:10B3200052192844206006F10106F8D403E0FFF723
:10B330000DFE28442060304670BD0146D1F88400DF
:10B34000008C401E82B2002007E001F259431B5CD2
:10B350000BB1531E9AB2431C98B2D1F884301B8CA7
:10B360008342F2DC12B9012381F8583491F8580471
:10B37000704700002DE9F04F2DED068B81B004469B
:10B38000B0EE40AA4FF480394FF0400A4FF0FF0B67
:10B39000D4F85414491CC4F85414D4F85014491E59
:10B3A000C4F85014D4F85004012877DAD4F8841083
:10B3B00001F59271D4F8440400EB800001EB4000E9
:10B3C0000189D4F82C04814231D8D4F83C14491CAA
:10B3D000C4F83C14D4F88410098CD4F83C04884296
:10B3E00004D3D4F88400418CC4F83C14D4F83C1441
:10B3F000C4F840142046FFF7A0FF012104F2594091
:10B40000D4F840248154D4F82C04000C000402D158
:10B410000021C4F82C14D4F884302433D4F83C042C
:10B42000195CB4F82C0482B2204601F079FA204667
:10B4300001F0A6F90020AFE000EB800204F5C7514F
:10B440001144C9780E2904D00F2928D0172974D1A6
:10B450003FE000EB800204F5C7511144C9780A01AE
:10B4600000EB800304F5C7511944097942EA211120
:10B47000CAB200EB800304F5C7511944CA7000EB4F
:10B48000800204F5C7511144097901F00F0200EB65
:10B49000800304F5C75119440A714EE089E000EBBE
:10B4A000800204F5C75111440979202908DA00EB1C
:10B4B000800204F5C75111440A79C4F84C2407E00E
:10B4C00000EB800204F5C75111440A79C4F84824FE
:10B4D00033E000EB800204F5C7511144097911F003
:10B4E000F00102D0102910D100E016E000EB80023C
:10B4F00004F5C7511144C978491CCAB200EB800356
:10B5000004F5C7511944CA7007E0002200EB80031C
:10B5100004F5C7511944CA7000BF00BF00EB800298
:10B5200004F5C7511144097901F00F0200EB8003C3
:10B5300004F5C75119440A7100BF00BF012204F588
:10B540000E6101EBC0110A6700EB800204F5C751E0
:10B550001144C978ED291DD100EB800204F5C751D3
:10B560001144097901F00F0204F50E6101EBC011DD
:10B570000A6704F50E6101EBC011096F51B104F5C2
:10B580000E6101EBC0110A6F521C04F50E6101EB54
:10B59000C0110A67411C88B2D4F88410098B81421B
:10B5A0003FF74AAFD4F84C14C4F850140021C4F843
:10B5B00054140025F1E3002104F50E6000EBC510E2
:10B5C00080F8251004F50E6000EBC510016F491ED0
:10B5D00004F50E6000EBC5100167002104F50E6054
:10B5E00000EBC510C16704F50E6000EBC510006FDD
:10B5F000002867D105EB850104F5C7500844407861
:10B6000000286CD005EB850204F5C7501044407843
:10B61000C0EBC00000EB4000D4F880100844017C6F
:10B6200004F50E6000EBC510016205EB850104F521
:10B63000C7500844C078032800D14FE005EB8501CE
:10B6400004F5C750405CE0B3002104F50E6000EB48
:10B65000C510416505EB850204F5C75010444078DC
:10B66000C0EBC00000EB4000D4F88010084490F913
:10B67000111004F50E6000EBC510C16505EB8502E5
:10B6800004F5C75010444078C0EBC00000EB400008
:10B69000D4F88010084490F9141004F50E6000EB03
:10B6A000C510016505EB850104F5C75008444178D4
:10B6B00004F50E6000EBC51080F8241005EB850141
:10B6C00001E00AE094E004F5C7500844417804F52D
:10B6D0000E6000EBC51080F8251000BF17E005EBE9
:10B6E000850104F5C750405C88B1002104F50E6067
:10B6F00000EBC510416504F50E6000EBC51090F835
:10B70000241004F50E6000EBC51080F8251005EB41
:10B71000850104F5C750405CE8B305EB850104F5ED
:10B72000C7500844C07803283AD1002104F50E60C0
:10B7300000EBC510816505EB850104F5C750415C40
:10B7400004F50E6000EBC510017204F50E6000EB0D
:10B75000C51090F82400C0EBC00000EB4000D4F806
:10B760008010084490F9111004F50E6000EBC5102C
:10B77000416604F50E6000EBC51090F82400C0EBA4
:10B78000C00000EB4000D4F88010084490F9141079
:10B7900004F50E6000E00FE000EBC51001660AE062
:10B7A00005EB850104F5C750415C04F50E6000EB24
:10B7B000C510017000BF00BF05EB850104F5C7503F
:10B7C00008448078102813DB05EB850104F5C75089
:10B7D0000844807850280BDC05EB850104F5C75040
:10B7E00008448178103904F50E6000EBC510016241
:10B7F000002104F50E6000EBC510416005EB8501EA
:10B8000004F5C7500844C0780C2879D008DC46D22B
:10B81000DFE800F015465E7B4545454545FEFDFCED
:10B82000E6286ED006DC0D286CD0E1286BD0E2282B
:10B8300035D151E2EA2867D0EB28F9D1AEE20321F5
:10B84000D4F8540490FBF1F201FB120020B101285E
:10B8500009D0022822D113E0002104F50E6000EB8C
:10B86000C51041601AE005EB850104F5C750084496
:10B870000079011104F50E6000EBC51041600DE088
:10B8800005EB850104F5C7500844007900F00F016D
:10B8900004F50E6000EBC510416000BF00BF95E2EB
:10B8A00004F50E6000EBC510006F80B104F50E606A
:10B8B00000EBC51005EB8502416D04F5C75010443F
:10B8C0000079014404F50E6000EBC51041657DE28E
:10B8D00004F50E6000EBC510006F80B104F50E603A
:10B8E00000EBC51005EB8502416D04F5C75010440F
:10B8F0000079091A04F50E6000EBC510416565E298
:10B9000041E101E29EE1CFE12FE204F50E6000EBA0
:10B91000C510006F00287CD0D4F83804082801D165
:10B920004FF000084FF0000804F50E6000EBC51062
:10B93000806D009004F50E6000EBC510436E04F5B9
:10B940000E6000EBC510026E04F50E6000EBC51032
:10B95000017A2046FEF75EFB04F1900090EDE50AC7
:10B9600010EE101A0846FDF712FF41EC100B04F51B
:10B970000E6000EBC51080ED040B04F1900090ED1B
:10B98000E60A10EE101A0846FDF701FF41EC100B15
:10B9900004F50E6000EBC51080ED060B04F50E609B
:10B9A00000EBC51090ED062BB0EE420AF0EE620AF5
:10B9B00004F50E6000EBC51090ED122BB0EE421AAC
:10B9C000F0EE621A53EC102B51EC110BFDF70CFF4B
:10B9D00050D204F50E6000EBC51005EB8502416DF9
:10B9E00004F5C75010440079014404F50E6000EBE3
:10B9F000C510416504F50E6000EBC510406D009068
:10BA000004F50E6000EBC510C36D03E0FBE0C6E07B
:10BA1000A7E0A5E004F50E6000EBC510026D04F58B
:10BA20000E6000EBC51001782046FEF7F3FA04F132
:10BA3000900090EDE60A10EE101A0846FDF7A7FEFA
:10BA400041EC100BB0EE408AF0EE608A04F50E6017
:10BA500000EBC51090ED061BB0EE410AF0EE610A56
:10BA600053EC102B51EC180BFDF7C3FE4DD24FF0E9
:10BA700001084AE004F50E6000EBC51005EB8502F5
:10BA8000416D04F5C75010440079091A04F50E60A1
:10BA900000EBC510416504F50E6000EBC510406D6C
:10BAA000009004F50E6000EBC510C36D04F50E6048
:10BAB00000EBC510026D04F50E6000EBC5100178B7
:10BAC0002046FEF7A7FA04F1900090EDE60A10EE8A
:10BAD000101A0846FDF75BFE41EC100BB0EE408AF1
:10BAE000F0EE608A04F50E6000EBC51090ED061BC9
:10BAF000B0EE410AF0EE610A53EC102B51EC180B3A
:10BB0000FDF772FE01D24FF00108B8F1010F27D105
:10BB100004F50E6000EBC510017A04F50E6000EB31
:10BB2000C510017004F50E6000EBC510016E04F540
:10BB30000E6000EBC510016504F50E6000EBC5104A
:10BB4000416E04F50E6000EBC510C16504F50E6092
:10BB500000EBC510816D04F50E6000EBC51041656A
:10BB600034E105EB850104F5C750405C50B105EBAD
:10BB7000850104F5C7500844017904F50E6000EB17
:10BB8000C510C16722E105EB850104F5C7500844E3
:10BB9000017904F50E6000EBC510016216E104F5B1
:10BBA0000E6000EBC510006F60B305EB850104F576
:10BBB000C7500844007910F0F00F12D004F50E6061
:10BBC00000EBC51005EB8502016A04F5C75010446F
:10BBD000007901EB201104F50E6000EBC510016245
:10BBE00010E004F50E6000EBC51005EB8502016A5C
:10BBF00004F5C75010440079091A04F50E6000EBF3
:10BC0000C5100162E2E004F50E6000EBC510006FA4
:10BC1000B8B94FF00061C4F82C1405EB850104F5A8
:10BC2000C75008440179C4F83C14D4F88410098C36
:10BC3000D4F83C04884204D3D4F88400418CC4F87E
:10BC40003C14C3E004F50E6000EBC510006F50BB60
:10BC500005EB850104F5C7500844007900F00F0199
:10BC600005EB850204F5C75010440079001100EB84
:10BC7000800041EA4001C4F82C14D4F82C0440F0B0
:10BC80000061C4F82C14D4F84014C4F83C14D4F85F
:10BC90008410098CD4F83C04884204D3D4F884007E
:10BCA000418CC4F83C1491E004F50E6000EBC51023
:10BCB000006F80B904F50E6000EBC51005EB85023E
:10BCC000416D04F5C75010440079014404F50E603D
:10BCD00000EBC510416579E004F50E6000EBC5107E
:10BCE000006F80B904F50E6000EBC51005EB85020E
:10BCF000416D04F5C75010440079091A04F50E602F
:10BD000000EBC510416561E004F50E6000EBC51065
:10BD1000006F28BB05EB850104F5C7500844007986
:10BD200020B9D4F83814C4F830141DE005EB8502AE
:10BD300004F5C75010440079D4F83414814210D26D
:10BD4000D4F8300440F00061C4F82C14D4F8341452
:10BD5000491CC4F83414D4F84014491EC4F83C14E7
:10BD600002E00021C4F8341430E004F50E6000EB6A
:10BD7000C510006F80B904F50E6000EBC51005EB2F
:10BD80008502016A04F5C75010440079014404F5A6
:10BD90000E6000EBC510016218E030E204F50E60A1
:10BDA00000EBC510006F80B904F50E6000EBC51004
:10BDB00005EB8502016A04F5C75010440079091AA1
:10BDC00004F50E6000EBC510016200BF00BF04F572
:10BDD0000E6000EBC510006A402805DD402104F527
:10BDE0000E6000EBC510016204F50E6000EBC5109B
:10BDF000006A002805DA002104F50E6000EBC5108A
:10BE0000016204F50E6000EBC510406D009004F572
:10BE10000E6000EBC51090F800C004F50E6000EB5A
:10BE2000C51000796044C1B204F50E6000EBC51086
:10BE3000C36D04F50E6000EBC510026D2046FEF7E1
:10BE4000E9F804F1900090EDE50A10EE101A0846AA
:10BE5000FDF79DFC41EC100B04F50E6000EBC510E6
:10BE600080ED100B04F1900090EDE60A10EE101A30
:10BE70000846FDF78CFC41EC100B04F50E6000EB5E
:10BE8000C51080ED120B04F1900090EDE50A10EE64
:10BE9000101A0846FDF77BFC41EC100B04F50E6010
:10BEA00000EBC51080ED0C0B04F1900090EDE60A5C
:10BEB00010EE101A0846FDF76AFC41EC100B04F571
:10BEC0000E6000EBC51080ED0E0B04F50E6000EB6C
:10BED000C51090F8207004F50E6000EBC51090F8C6
:10BEE00026A04FEA192000FB0AF094F859154843A0
:10BEF00000FB07F6B00B00FB0BF6360B04F50E60EB
:10BF000000EBC510A0F8746004F50E6000EBC510DE
:10BF100090F8741004F50E6000EBC51080F87610F0
:10BF200004F50E6000EBC51090F8741004F50E6077
:10BF300000EBC51080F87710D4F88400C08B01287E
:10BF40007ED035B1012D53D0022D7AD0032D4ED1A4
:10BF5000EFE004F50E6101EBC511B1F87400FDF7D7
:10BF60002AFC41EC100BB0EE409AF0EE609A9FED87
:10BF7000AA0B53EC102B51EC190BFDF712FC41EC02
:10BF8000100BB0EE408AF0EE608A51EC180BFDF712
:10BF900035FCC1B204F50E6000EBC51080F87610D8
:10BFA00004F50E6101EBC511B1F87400FDF703FC57
:10BFB00041EC100BB0EE409AF0EE609A9FED980BBA
:10BFC00053EC102B51EC190BFDF7EBFB41EC100B74
:10BFD000B0EE408AF0EE608A51EC180BFDF70EFCD3
:10BFE000C1B204F50E6000EBC51080F87710EFE0E9
:10BFF00004F50E6101EBC511B1F87400FDF7DBFB30
:10C0000041EC100BB0EE409AF0EE609A9FED820B7F
:10C0100053EC102B51EC190BFDF7C3FB41EC100B4B
:10C02000B0EE408AF0EE608A51EC180BFDF7E6FBAB
:10C03000C1B204F50E6000EBC51080F8761001E087
:10C04000C7E027E004F50E6101EBC511B1F87400FB
:10C05000FDF7B1FB41EC100BB0EE409AF0EE609AA8
:10C060009FED710B53EC102B51EC190BFDF799FB65
:10C0700041EC100BB0EE408AF0EE608A51EC180BE8
:10C08000FDF7BCFBC1B204F50E6000EBC51080F8F3
:10C0900077109DE004F50E6101EBC511B1F8740055
:10C0A000FDF789FB41EC100BB0EE409AF0EE609A80
:10C0B0009FED5D0B53EC102B51EC190BFDF771FB51
:10C0C00041EC100BB0EE408AF0EE608A51EC180B98
:10C0D000FDF794FBC1B204F50E6000EBC51080F8CB
:10C0E000761004F50E6101EBC511B1F87400FDF78F
:10C0F00062FB41EC100BB0EE409AF0EE609A9FEDBF
:10C10000460B53EC102B51EC190BFDF74AFB41EC9D
:10C11000100BB0EE408AF0EE608A51EC180BFDF780
:10C120006DFBC1B204F50E6000EBC51080F877100E
:10C130004EE004F50E6101EBC511B1F87400FDF796
:10C140003AFB41EC100BB0EE409AF0EE609A9FED96
:10C15000340B53EC102B51EC190BFDF722FB41EC87
:10C16000100BB0EE408AF0EE608A51EC180BFDF730
:10C1700045FBC1B204F50E6000EBC51080F87610E7
:10C1800004F50E6101EBC511B1F87400FDF713FB66
:10C1900041EC100BB0EE409AF0EE609A9FED1E0B52
:10C1A00053EC102B51EC190BFDF7FBFA41EC100B83
:10C1B000B0EE408AF0EE608A51EC180BFDF71EFBE2
:10C1C000C1B204F50E6000EBC51080F8771000BF17
:10C1D00000BF04F50E6000EBC51090F8761004F572
:10C1E0000E6000EBC51090F8770041EA002104F5DD
:10C1F0000E6000EBC510A0F87810681C85B2D4F86A
:10C200008400008BA8423FF7D6A994F8580401B0E7
:10C21000BDEC068BBDE8F08F000000000000F03F91
:10C220009A9999999999D93FCDCCCCCCCCCCEC3F6B
:10C2300002E008C8121F08C1002AFAD170477047EF
:10C24000002001E001C1121F002AFBD1704700004D
:10C2500030B50246002307480068824208D201F048
:10C2600073FF511C042505FB11031C681B1B00BF39
:10C27000184630BD9823002010B504462046FFF72D
:10C28000E7FF10BD10B501F05FFF041F0022002082
:10C29000114908600AE010480068984204D2501C16
:10C2A00003EB80000C490860241F521C2368581CB3
:10C2B00001D0082AEFD3581C03D00020064908609B
:10C2C000002201F041FF04490968401A034908604F
:10C2D0000348026090B210BD9423002090230020F8
:10C2E0009823002070B50024FFF7CCFF054635B138
:10C2F000044801680448006801F006FF044620462F
:10C3000070BD0000942300209023002070B5FFF73B
:10C31000B9FF04465CB1FFF7E5FF05460548006834
:10C3200030F8026CB54201D1012070BD00BF002081
:10C33000FBE700009023002070B505462846FFF774
:10C340009BFF0446A268606804F11201FCF70AFF33
:10C3500070BD70B50546284600F009F80446A4F5FE
:10C360007F40FF3802D02046FFF7E6FF70BDF0B5F2
:10C370000546FFF787FF06466EB1002409E0A0B22C
:10C38000FFF77AFF0746B889A84201D1A0B2F0BDF5
:10C39000641CB442F3D34FF6FF70F8E770B5802504
:10C3A00001F0D2FEA0F180048021204600F012F8B6
:10C3B00070BD10B50446FDF745FDB320FDF768FCE0
:10C3C0002046FDF781FCFDF7F1FCFDF7E7FCFDF7EA
:10C3D00073FC10BD2DE9F04705460E46AC0BA403D7
:10C3E000281B87191BE04FF0FF384FF48059A246F5
:10C3F00007E0DAF8000000EA08080AF1040AA9F1E7
:10C400000109B9F1000FF4D118F1010002D0204662
:10C41000FFF7CFFF04F58044A7F5804700BF002F4A
:10C42000E1DCBDE8F08770B5024600234FF480449C
:10C4300012F4702F03D1782000EAD2230EE0782086
:10C4400000EA5233082B06D000EA530000F1200323
:10C450004FF4003402E018334FF480340A60D808F7
:10C46000C8608C6001F066FEC2F31305661EB5431A
:10C4700028444860184670BD2DE9F04707468846B5
:10C480001546002D2DD03C46C1464FF47F46FDF7A2
:10C49000D9FCB320FDF7FCFB0FE0301299F8001037
:10C4A00040EA0126641C09F101096D1E14F0010F18
:10C4B00003D1A01E3146FDF7A1FC002DEDD114F0F3
:10C4C000010F07D04FF47F4040EA2626601E314618
:10C4D000FDF794FCFDF76AFCFDF760FCFDF7ECFB53
:10C4E00000BFBDE8F0872DE9FC4105460E46174622
:10C4F0001C46002003463A463146CDE90004284652
:10C5000000F002F8BDE8FC812DE9FF4F87B0074637
:10C5100014469846DDE9149A04EB09052648808CF8
:10C52000002843D01422254902A8FDF72BF90397D0
:10C530000495ADF814A0CDF816501F48868C05F16F
:10C54000120BD0F82600A0EB0B001B49C1F8260007
:10C5500001F0FAFD243800EB86001749D1F82610C7
:10C56000401A0190144901EB8601019808601249B4
:10C57000D1F82600122202A9FFF77EFF0E49D1F85A
:10C58000261001F1120022460899FFF775FF0A49AB
:10C59000D1F82610123108194A464146FFF76CFFC0
:10C5A0000548808C401E0449888400BF024890F8EA
:10C5B00024000BB0BDE8F08F51620020E077000846
:10C5C00038B505E0AA23002211461046FFF78BFF7D
:10C5D0001348808C0028F5D101F0B6FDA0F12404A9
:10C5E0000F48D0F82600251A0D49D1F82600294613
:10C5F00001F08AFD0090BDF800202421084801F0D8
:10C600006DFD00900649D1F82610881E0222694669
:10C61000FFF732FF242202492046FFF72DFF38BDE5
:10C620005162002010B5FFF7B9FE2A210748FDF737
:10C63000EAF801F089FD24380449C1F826004FF0DA
:10C64000FF3008600820888410BD0000516200207F
:10C650002DE9F04704464FF00008B4F8440485B2D1
:10C66000B4F82C0487B2B4F88800A8427CDDD4F872
:10C67000840000F5927005EB850100EB4100008914
:10C68000B84275DD3C48D0F82064A02100F5C750C1
:10C69000FDF7BEF8002048E0D4F8842002F592723D
:10C6A00005EB850302EB4302D2F800C03246761C4C
:10C6B0001CF8021011F0800F15D1D4F8843003F566
:10C6C000927305EB850C03EB4C031B689A5900EB46
:10C6D000800C2A4B0CF8031000EB800C6344C3F869
:10C6E0000120361D1FE000221BE011F0010F15D0C4
:10C6F000D4F884C00CF5927C05EB85090CEB490C51
:10C70000DCF800A0B446761C1AF80C3000EB800967
:10C71000DFF868C0CC440CF8023000BF4910531C4D
:10C720009AB2052AE1DB411C88B21349D1F8841082
:10C73000098B8142B0DC1048C0F82064C4F838741A
:10C74000D4F82C14491CC4F82C14D4F8840000F537
:10C75000927005EB850100EB41000189D4F82C04AF
:10C76000814202D1022001E002E00120804600BFA8
:10C770004046BDE8F087000000270020E03F002091
:10C780007FB505462846FFF763FF06461449D1F8F2
:10C7900038040221FEF768F812A0FEF7A7F800247B
:10C7A0000FE014B110A0FEF7A1F804EB84020F49CA
:10C7B0005018694600F01EF86846FEF797F8601CAE
:10C7C00084B20748D0F88400008BA042E9DC05A0C1
:10C7D000FEF78CF806A0FEF789F8304604B070BD6D
:10C7E000002700207C00000020000000E03F002027
:10C7F0000D0A0000F0B591B005460C46282232A182
:10C8000007A8FCF7BFFF287800282CD028786128DB
:10C810001ADA1C2236A16846FCF7B4FF2878401EBD
:10C820000C2190FBF1F087B22878401E90FBF1F2CA
:10C8300001FB120086B2684600EB460000882080AB
:10C8400007F13000A07013E02878612805D12FA0EF
:10C85000018821808078A0700AE02DA001882180C5
:10C860008078A07004E02BA0018821808078A070DF
:10C87000E41C687830B16878224648F2020102F080
:10C8800003F902E024A000882080A41CA87830B11D
:10C89000A878224648F2020102F0F6F802E01FA052
:10C8A00000882080A41CE87807A9085C04F8010B24
:10C8B0002879224648F2020102F0E6F8A41C002082
:10C8C000207011B0F0BD00003031323334353637CE
:10C8D00038394142434445464748494A4B4C4D4EFE
:10C8E0004F505152535455565758595A0000000052
:10C8F000432D4323442D4423452D462D4623472DC8
:10C900004723412D4123422D0000000020582000E4
:10C910003F3F3F002D2D2D002E2E00002D2D00001D
:10C9200070B504460D461646B4F88800A84225DDC9
:10C93000C4F84454D4F8840000F5927005EB8501E6
:10C9400000EB41000089B0420ADCD4F8840000F515
:10C95000927005EB850100EB41000089401E86B214
:10C960000021C4F82014C4F82C1402E02046FFF77C
:10C970006FFE3000A6F101018EB2F7D170BD2DE936
:10C98000F04104460D461746D4F88400008CA842B6
:10C9900004DCD4F88400008C401E85B2D4F88400F6
:10C9A0002430465D31463A462046FFF7B9FFBDE8E0
:10C9B000F08170B504460E4643F6F00104F1900094
:10C9C000FCF726FFC4F81864D4F88400818BC4F8FF
:10C9D0004814D4F88400418BC4F84C14D4F8841063
:10C9E0002431D4F83C04095CC4F8441400252EE03A
:10C9F000402104F50E6000EBC510016204F50E60E5
:10CA000000EBC51080F82610302104F50E6000EB15
:10CA1000C5100170C5EBC50204F1900000EB820067
:10CA2000D4F8801041610021C5EBC50304F19002E8
:10CA300002EB830251609160C5EBC50204F19001E5
:10CA400001EB8200002100F00EFB681C85B2202D56
:10CA5000CEDBB4F8400481B200222046FFF78FFFFE
:10CA6000012104F25940D4F840248154402184F833
:10CA700059154FF0FF31C4F85414FF21D4F8840045
:10CA8000028C04F25940815470BD00002DE9F05F22
:10CA900004464FF0000A204600F0EAF80646B6F5D4
:10CAA000807F5AD94FF400202D490860C6124EE00D
:10CAB000D4F81C0410B9204600F054F83546D4F8D8
:10CAC0001004C0F50067BD4200D93D46D4F81C04EF
:10CAD000A84201D2D4F81C544FF0040905FB09F117
:10CAE00004F1900241F6F00C6244D4F8103402EBE9
:10CAF0008300FCF78DFE4FF0000818E0D4F8842086
:10CB0000138B04F1900241F6F00B5A44D4F810C490
:10CB100002EB8C01C8EBC80C04F1900202EB8C0014
:10CB20002A4600F0C1F908F101001FFA80F8D4F894
:10CB30008400008B4045E1DC2946204600F0C6F821
:10CB4000761BD4F81C04411BC4F81C1400BF002E33
:10CB5000AED14FF00810024908605046BDE8F09F82
:10CB6000180402402DE9F041044604F19000D0ED94
:10CB7000E20AF8EE600AB0EE600A2046FEF7FAFB21
:10CB80000746D4F81804C0EB00108100D4F848041C
:10CB900000EB4000C000B1FBF0F1C4F81C1400250C
:10CBA00046E004F50E6000EBC51090F825607EB1FC
:10CBB00004F50E6000EBC510C06F0302C5EBC502A3
:10CBC00004F1900000EB82013246204600F038F874
:10CBD00004F50E6202EBC512D4F8181492ED0E1B88
:10CBE000B0EE410AF0EE610AC5EBC50304F1900214
:10CBF00002EB830000F000F904F50E6000EBC510B5
:10CC000090F87610C5EBC50204F1900000EB8200AD
:10CC1000017604F50E6000EBC51090F87710C5EBB7
:10CC2000C50204F1900000EB82004176681C85B2D9
:10CC3000D4F88400008BA842B3DC3846BDE8F0810C
:10CC40002DE9F04104460D4616461F46B4F88A0009
:10CC5000B0420BDDC6EBC60101EB4101D4F8800008
:10CC6000084468613946284600F0FDF9BDE8F081C6
:10CC700010B50446204600F020F8C0F500630BB163
:10CC8000581E10BD0020FCE730B501460020D1F849
:10CC90001424D1F8103493420ED01346521C01F1E3
:10CCA000900441F6F0052C4454F82300B2F5006FCF
:10CCB00000D10022C1F8142430BD0146B1F810247F
:10CCC000B1F81404101AC0F30A007047B0F8102429
:10CCD0000A44C2F30A03C0F8103470472DE9FF413B
:10CCE0000446666806F1300700253946012001F048
:10CCF000A5FD80B2ADF80400BDF8040001F0ACFB66
:10CD00001830CDF80600206800904AF6AA20ADF849
:10CD10000A00C0430390A07C20B1012805D002285E
:10CD200004D000BFE068A06000BF00BF00BF00BF2C
:10CD30000025BDF8040010236A46294601F040FE94
:10CD40001035BDF8040008230022294601F024FC18
:10CD5000A06808300544BDF80400082300222946D5
:10CD600001F01AFCE0680830A168401A0544BDF8DB
:10CD7000040008230022294601F00EFC60680830F8
:10CD8000E168401A0544BDF8040008230022294642
:10CD900001F002FCBDF8040001F05EFB04B0BDE848
:10CDA000F0812DE9F04104460D469046FF22152101
:10CDB0002046FCF732FD65600020A060E560402061
:10CDC0002074002060740120A0748020E074002092
:10CDD00020752046FFF782FF07462760002605E002
:10CDE00042463146204600F016F9761CAE42F7D393
:10CDF0003846BDE8F08100002DE9F0412DED088BAB
:10CE00000446B0EE408AF0EE608A0D469FED220B9C
:10CE100053EC102B51EC180BFCF7C3FC41EC100B3E
:10CE2000B0EE409AF0EE609A51EC190BFCF7E6FC7C
:10CE300020602846FCF7BFFC41EC100BB0EE40AA86
:10CE4000F0EE60AA9FED160B53EC102B51EC180B73
:10CE5000FCF7A7FC41EC100BB0EE40BAF0EE60BA64
:10CE600053EC1A2B51EC1B0BFCF7B4FC41EC100BF0
:10CE7000B0EE409AF0EE609A51EC190BFCF7D2FC40
:10CE800006460F46380240EA16603102C4E9011036
:10CE9000BDEC088BBDE8F081000000000000704090
:10CEA00000000000000070412DE9FF4F84B00C46E7
:10CEB000164641694FF48073079A93FBF2F9027E9C
:10CEC00002FB09F2120A0392427E02FB09F2120AE5
:10CED0000292CA688B68D51A8A6802F10807CA7C70
:10CEE000802A06DACA7C5200029B5A43120A029236
:10CEF00007E0CA7CC2F1FF025200039B5A43120AA8
:10CF0000039205B9012580E0D0E901BAD0E9038395
:10CF100018EB0B0843EB0A03C0E9038302690B68B3
:10CF2000D3F8063013F802C0BCF1000F4ED1002335
:10CF3000B0F80AA01AF4004F02D04FF0FF3A01E017
:10CF40004FF0010AD046B8F1000F06DBBA4204D216
:10CF50000832C8F1000A0FFA8AF8D31B002B02DA54
:10CF6000C3F1000A03E0B3FBF5FA05FB1A3A534696
:10CF7000B8F1000F09DB91F812A0BAF1020F0DD140
:10CF8000A5F1010AAAEB030308E091F812A0BAF197
:10CF9000020F03D0A5F1010AAAEB030391F812A036
:10CFA000BAF1020F09D14FF0000ED0E901BADBF15E
:10CFB000000B6EEB0A0AC0E901BAFA180261D1F857
:10CFC00000A0DAF806A01AF802C000BF4FFA8CF3EE
:10CFD000DDF80C8003FB08F31BB201934FFA8CF3CE
:10CFE000DDF8088003FB08F31BB20093B4F800805F
:10CFF000009B43441BB22380B4F80280019B43444E
:10D000001BB26380241D761E00BF002E7FF47CAF10
:10D0100008B0BDE8F08F2DE9F74304460D464FF008
:10D0200018086068A8421CD9206887882E469DF899
:10D03000080080F0800002909DF8080008B90120E7
:10D040000290A068A84200D80836E068A84200D83C
:10D05000083606F11801012302AA384601F0B0FC97
:10D0600000BFBDE8FE83024653695B688B4201D96D
:10D070000B4602E053695B685B1E184653699B6868
:10D080008B4200D808305369DB688B4200D80830E7
:10D090000023C2E90330704700210185016241622B
:10D0A00070472DE9F04104460E4600250027606ACE
:10D0B00058B1002211462046636A984787B227B1CB
:10D0C000204600F016F8284485B2218D481C2085A2
:10D0D00004F12A0046542069401C2061208D20283C
:10D0E00004D1204600F005F8284485B22846BDE862
:10D0F000F08170B50446258D5DB1A08B2B4604F1FF
:10D100002A02216A01F05CFC206A28442062002087
:10D110002085284670BD2DE9F05F04460E469346F3
:10D120004FF0000AA069A8B3A069D0F88C70A0697C
:10D13000B0F88A5023E06D1EA069D0F88000C5EBDE
:10D14000C50101EB410108440068D0F80080474563
:10D1500014D3A7EB0809B9F1000F02D12846FDF757
:10D1600075FBA169D1F88010C5EBC50303EB430340
:10D17000C818F2B24946FFF74EFF02E000BF002D8B
:10D18000D9D100BFA069D0F88C00401CA169C1F8BA
:10D190008C0000BF5046BDE8F09F00002DE9F05F15
:10D1A00004468A46934600272669A08B00EB40017F
:10D1B0002A480068001D50F821804FF0150904F13D
:10D1C0002A052EBBA08B00EB400124480068001DFF
:10D1D00000EB810040681521B0FBF1F0A169A1F8D6
:10D1E0008A00A069C0F880800020A169C1F88C0085
:10D1F00015202085802210212846FFF7D2FD2860C7
:10D2000029688888FDF722FB15A0FDF76FFB012731
:10D210001520B6FBF0F100FB116010B1142819D1F4
:10D2200001E0012716E02968A069B0F88A00401ED5
:10D23000C0EBC00000EB4000081A28602846FFF74A
:10D240004DFD286029688888FDF700FB05A0FDF7E3
:10D250004DFB00BF00BF3846BDE8F09F4C230020C7
:10D260003A0000002E000000034600207047000036
:10D270002DE9F04F034688469146002519694FF481
:10D28000927C988B00EB400427480068001D50F802
:10D290002420B1F5927F15D2FF209C69A4F8880064
:10D2A00021B1022906D004290BD105E09869C0F804
:10D2B000842006E0012504E0588D40F400405885A4
:10D2C00000BF2DE0A1F592704FF00A0AB0FBFAFB07
:10D2D0000AFB1B06D3F82A40B0FBFAFA1FFA8AF7BA
:10D2E000D3F818A0BAF888A0BA4518DD16B1042EF4
:10D2F00014D101E0012511E0B1F5947F09D1A4F525
:10D30000927A4FF00A0BBAFBFBFAD3F818B0ABF8DD
:10D3100088A004EB020AC3F82AA000BF00BF00BF28
:10D320002846BDE8F08F00004C23002010B50446CD
:10D33000204600F00BF8204600F02DF80020208158
:10D34000606110BD018100224281704710B5044622
:10D35000206801F07BFC10BD10B50446206801F088
:10D36000D5FC10BD70B504460025204600F020F81D
:10D3700018B1606801F08AFC0546284670BD70B59A
:10D3800004460D46204600F00CF818B129466068A6
:10D3900001F0C2FC70BD10B50446606801F056FC97
:10D3A00010BD10B50446606801F068FC80B210BD85
:10D3B00010B50446606801F0A9FC10BD42698A43BB
:10D3C0004261704701464869704742690A434261B9
:10D3D0007047000070B504462046FFF7F3FF10F0D9
:10D3E000010F15D02089A0B9608930B1002060817B
:10D3F00001212046FFF7E2FF0AE0FBA0FDF776FAE5
:10D40000FAA0FDF773FA01212046FFF7D7FF00BF0E
:10D41000DBE2208901281AD1608930B100206081C7
:10D4200001212046FFF7CAFF10E0F1A0FDF75EFAE8
:10D430002046FFF77BFFF1A0FDF758FAEBA0FDF7C0
:10D4400055FA01212046FFF7B9FF00BFBDE2208950
:10D4500002282BD1608960B1012813D0022815D091
:10D46000032817D00020608101212046FFF7A6FF86
:10D470001BE0E4A0FDF73AFA01F044F86089401C93
:10D48000608112E06089401C60810EE06089401C70
:10D4900060810AE0D9A0FDF729FAD4A0FDF726FAA9
:10D4A00001212046FFF78AFF00BF8EE22089102865
:10D4B00069D1608950B1012828D0022848D00020C5
:10D4C000608101212046FFF779FF5BE0D0A0FDF7E6
:10D4D0000DFA0120E16801F0B1F9C0B2A16908704C
:10D4E000A083A08BFDF7B2F9CBA0FDF7FFF9E068B0
:10D4F000FDF7ACF9C0A0FDF7F9F92046FFF7CCFD28
:10D50000C64860626089401C60813BE02046FFF7AE
:10D510004FFF054635B1B8A0FDF7E8F96089401C1A
:10D52000608114E02046FFF7E4FDD4E9031088424F
:10D5300003D1BBA0FDF7DAF902E0BBA0FDF7D6F9F5
:10D54000AAA0FDF7D3F901212046FFF737FF19E024
:10D550002046FFF72DFF05460AE02046FFF702FFB1
:10D560000646681E85B231462046FFF79AFD00BF89
:10D57000002DF2D16089401E608101212046FFF715
:10D580001DFF00BF21E22089112808D100BF002023
:10D59000608101212046FFF711FF00BF15E22089BD
:10D5A00020286BD1608950B101282AD002284AD0A6
:10D5B0000020608101212046FFF700FF5DE09DA073
:10D5C000FDF794F9E06800F11501012001F036F94A
:10D5D000C0B2A1694870A083A08BFDF737F98EA077
:10D5E000FDF784F9E068FDF731F983A0FDF77EF9D6
:10D5F0002046FFF751FD914860626089401C6081C0
:10D600003BE02046FFF7D4FE054635B17AA0FDF792
:10D610006DF96089401C608114E02046FFF769FDC8
:10D62000D4E90310884203D185A0FDF75FF902E039
:10D6300086A0FDF75BF96DA0FDF758F901212046A2
:10D64000FFF7BCFE19E02046FFF7B2FE05460AE0F0
:10D650002046FFF787FE0646681E85B23146204603
:10D66000FFF71FFD00BF002DF2D16089401E6081D1
:10D6700001212046FFF7A2FE00BFA6E12089212854
:10D680005CD1608950B1012818D0022837D0002021
:10D69000608101212046FFF791FE4EE06EA0FDF76C
:10D6A00025F9E068FDF7D2F853A0FDF71FF92046F1
:10D6B000FFF7F2FC6089401C60813EE02046FFF7E6
:10D6C00077FE054635B14CA0FDF710F96089401C86
:10D6D000608113E0D4E90310884204D160A0FDF713
:10D6E00005F900BF03E061A0FDF700F900BF3FA00E
:10D6F000FDF7FCF801212046FFF760FE1DE0204603
:10D70000FFF756FE05460EE02046FFF72BFE0646C5
:10D71000681E85B2002231462046FFF7FCFC2069D6
:10D72000401C206100BF002DEED16089401E608149
:10D7300001212046FFF742FE00BF46E12089302844
:10D7400050D1608940B101284DD000206081012175
:10D750002046FFF733FE33E14DF69A014648FFF7C6
:10D7600028F946A0FDF7C2F820A0FDF7BFF847A0B2
:10D77000FDF7BCF84049D1F88410081DFDF7B6F854
:10D780001AA0FDF7B3F846A0FDF7B0F83A49D1F872
:10D790008410088BFDF75AF814A0FDF7A7F845A0F0
:10D7A000FDF7A4F83449B1F88800FDF74FF80FA051
:10D7B000FDF79CF844A0FDF799F82F49B1F88A00CD
:10D7C000FDF744F809A0FDF791F844A0FDF78EF8A5
:10D7D0002949D1F88410888BFDF738F803A0FDF7AC
:10D7E00085F885E0EDE0DFE04E4F50000D0A0000C7
:10D7F000434C454152202E2E2E00000020444F4E17
:10D80000450000004552415345202E2E2E000000B9
:10D81000584D5354202E00003A000000B142000839
:10D82000545220446F6E65005452204572726F72DC
:10D830000000000058494E48202E0000DD4100083D
:10D84000494E4820446F6E6500000000494E482054
:10D850004572726F7200000058494E53202E00002E
:10D86000494E5320446F6E6500000000494E53201E
:10D870004572726F7200000000270020506C6179C1
:10D88000657220496E69743A00000000204E616D97
:10D8900065202E2E2E2E2E2E2E2E2E200000000045
:10D8A000204368616E6E656C73202E2E2E2E2E2006
:10D8B00000000000205061747465726E73202E2E7B
:10D8C0002E2E2E200000000020496E737472756D9C
:10D8D000656E7473202E2E20000000002042504DF3
:10D8E000202E2E2E2E2E2E2E2E2E2E20000000002C
:10D8F00036A0FCF7FBFF3A49D1F88410488BFCF7BF
:10D90000A5FFAFF21810FCF7F1FF36A0FCF7EEFF11
:10D910003348D0F88400C08B012803D136A0FCF72F
:10D92000E5FF02E036A0FCF7E1FFAFF24010FCF7A4
:10D93000DDFF35A0FCF7DAFF2949D1F88410088C07
:10D94000FCF784FFAFF25C10FCF7D0FF33A0FCF7CC
:10D95000CDFF2349D1F88410488CFCF777FFAFF254
:10D960007410FCF7C3FF32A0FCF7C0FF00260DE0E7
:10D9700016B134A0FCF7BAFF1949D1F8841024314C
:10D98000885D0221FCF770FF701C86B21448D0F845
:10D990008400008CB042EBDCAFF2B010FCF7A6FFC5
:10D9A0006089401C60810BE00D48FFF76FF8032091
:10D9B0002549A1F8920201212046FFF7FFFC00BF94
:10D9C00003E001212046FFF7F9FC70BD20544D50C3
:10D9D000202E2E2E2E2E2E2E2E2E2E20000000003B
:10D9E0000027002020467265715461626C65202E0C
:10D9F0002E2E2E20000000004C696E656172000022
:10DA0000416D696761000000205061744C656E20B3
:10DA10002E2E2E2E2E2E2E2000000000205061745F
:10DA2000526573202E2E2E2E2E2E2E20000000004A
:10DA3000205061744F72646572202E2E2E2E2E207F
:10DA4000000000002C0000000A2400207CB54FF0EC
:10DA50008054E0880619A56829A0FCF747FF2C49E7
:10DA6000B1F86E02FCF7F2FE2AA0FCF73FFF284651
:10DA7000FCF7ECFE28A0FCF739FF6420FBF7A6FFBB
:10DA8000FEF7D0FD0120224981F86902084690F88E
:10DA9000680220F0010081F868024FF4FA70FBF789
:10DAA00095FF1EA0FCF722FF00234FF4A5621C493E
:10DAB0006000FEF718FD19A0FCF718FF01234FF4D2
:10DAC0001A721849D806FEF70EFD14A0FCF70EFFD7
:10DAD0000220334682031449CDE900508006FEF748
